:020000040800F2
:10000000580900200D080008B5100008B7100008B6
:10001000B9100008BB100008BD1000080000000067
:10002000000000000000000000000000BF100008F9
:10003000C110000800000000C3100008C51000082F
:10004000C7100008C9100008CB100008000000000D
:1000500000000000CD100008CF100008D1100008EB
:10006000D310000800000000D5100008D7100008C9
:10007000D910000800000000DB100008ED13000894
:10008000EF130008F113000800000000F31300084C
:10009000F513000800000000000000000000000050
:1000A000000000000000000000000000F71300083E
:1000B000F9130008FB130008FD130008FF130008E4
:1000C000DFF80CD001F0BCFD0048004781050008B6
:1000D0005809002001B402E00098401E00900098EA
:1000E0000028F9D101B070470146FB4800F07EBD01
:1000F0000146F94800F088BD2DE9F04105460E465D
:1001000017460024002D0ED93846FFF7EDFF304684
:10011000FFF7E0FF3846FFF7EBFF3046FFF7DAFF67
:10012000641CAC42F0D3BDE8F08170B5EB4C00200C
:10013000E07020716071A071E07103212172617221
:100140000125A572A0702580E54E2146304600F0BD
:1001500079FCA5700221218021463046BDE870401F
:1001600000F070BC70B5DD4C0020E0702071607153
:10017000A071E07102212172032161720125A57233
:10018000A07080202080D74E2146304600F05AFCD7
:10019000A5704021218021463046BDE8704000F026
:1001A00051BC70B5CD4C0020E07020716071A07121
:1001B000E0713F212180A07020720125A572657237
:1001C0002146C84800F03EFC0C2020802146C4484F
:1001D00000F038FC4FF4F0602080A5702146C24842
:1001E00000F030FC032020802146BDE87040BA4872
:1001F00000F028BCB9480321018001218170002250
:100200000272817241720146B34800F01BBC10B506
:10021000B24C602020800020A07020720120A072CB
:1002200060722146B04800F00DFC04202080214679
:10023000A94800F007FC0A2020802146BDE81040B4
:10024000AA4800F0FFBB10B50021012000F0EEFD30
:100250000121802000F008FDA54C0021204600F07F
:10026000C8FBA44942F6E060086060208880002254
:10027000CA800A814A81C0008881204600F0E9FADC
:100280002046BDE81040012100F03CBB10B50446FB
:100290000321022000F0CAFD002000F0F9FD01203A
:1002A00000F0DCFD00F0DDFD30B9012000F0D3FDF1
:1002B00000F0D7FD0028F8D04FF4807000F0E0FC8B
:1002C0000121084600F0D0FC8B494FF08070086295
:1002D0008101012C01D189488860022C01D1884814
:1002E000886000200864874A1060121D1060032295
:1002F0004A64C1F81002C1F81402C1F81802C1F82A
:100300001C02814A1060121D10600120086010BD9F
:1003100010B50121880300F0A7FC77494FF0E06099
:1003200048627A480021C16001603F2242604FF676
:10033000FF728260016241628162C1620163416356
:100340008163C163416502218165C16841F001019A
:10035000C16010BD70B5FFF7E8FEFFF774FF634E94
:10036000634D0821304600F038FCA0B140212846FA
:1003700000F038FB0128F4D1284600F002FBC4B29B
:100380008021284600F02EFB0128F9D1214628467D
:1003900000F0F3FAE5E7002070BD10B5534C0821DA
:1003A000204600F01AFC0028F9D110BD2DE9F047D5
:1003B000FFF7D8FE0120FFF769FF4C4E544F002590
:1003C00041F608284FF02109F4034FF0030A0821F1
:1003D000304600F002FC18B3D4F8140210F0080FF5
:1003E000F5D0D4F81802D4F81C126564C4F8105281
:1003F000C4F81452C4F81852C4F81C52C4F800725D
:10040000C4F80482C4F80802C4F80C12C4F840907E
:10041000206C10F0200FFBD12564C4F844A0D6E76F
:10042000012000F05FFC00F046FC002000F028FCFA
:100430003148C168C5604168456081688560BDE834
:10044000F0872DE9F047FFF78DFE0220FFF71EFF32
:10045000264E2F4F002541F608284FF02109F403BE
:100460004FF0030A0821304600F0B7FB18B3D4F868
:10047000140210F0080FF5D0D4F81802D4F81C12AA
:100480006564C4F81052C4F81452C4F81852C4F881
:100490001C52C4F80072C4F80482C4F80802C4F8FC
:1004A0000C12C4F84090206C10F0200FFBD1256492
:1004B000C4F844A0D6E7012000F014FC00F0FBFBD8
:1004C000002000F0DDFB0C48C168C5604168456054
:1004D00081688560BDE8F08700800B40380500200A
:1004E00000800E4000800A4000000B4000800C405D
:1004F0000080034044050020000002400400210F5A
:100500000100510A000500400805004000000740B6
:100510006700AA152DE9F05FDFF81892864C874F27
:10052000DFF81CA2DFF81CB24FF000084FF4804542
:100530004FF0E02684F800800020401C4845FCDB9A
:10054000C6F88051012239460520FFF7D5FD022269
:1005500039460520FFF7D0FD01202070C6F8005174
:100560000421504600F039FB0028E3D0082158460A
:1005700000F033FB0028F3D184F80080BDE8F09F41
:10058000012000F007FC00F018FC0128FBD100F06E
:10059000D7FB00F0E8FB0128FBD10121400500F06A
:1005A00063FB0121880500F05FFB0121C80500F015
:1005B0005BFB0121080600F057FB0121480600F013
:1005C00053FB0121480700F04FFB0121880700F091
:1005D0004BFBFFF7E6FDFFF71AFE01F00BFA0120D7
:1005E00000F075FF10F0010FF9D1012000F0CAFFF3
:1005F000022000F06CFF10F0010FF9D1022000F092
:10060000C1FF012001F02BFA022001F028FA4F4926
:100610004D480860091F4FF0006008604C494013C6
:100620000860FFF775FEDFF818910024424E454F31
:10063000DFF82081DFF804A101250421484600F0FD
:10064000CCFA18B32021404600F0C7FA00283FD06A
:100650000221384600F0C1FA00284ED00821384661
:1006600000F0BBFA002859D04021404600F0B5FA0E
:100670000028E2D14021404600F0AFFA0028F9D02E
:10068000012251460520FFF737FDD6E704214846F1
:1006900000F0A3FA0028F9D0B06818B9F570FFF798
:1006A00039FFF470B068012803D17570FFF752FE6E
:1006B0007470B068022803D13571FFF76EFE347193
:1006C000B0680328B9D1B570FFF7BBFEB470B4E7CA
:1006D0002021404600F081FA0028F9D0B06808B126
:1006E000401EB060F06810B1401EF060A5E7012226
:1006F00051460520FFF700FD9FE70221384600F034
:100700006CFA0028F9D0B068032801D0401CB06012
:10071000F068022891D0401CF0608EE7082138462E
:1007200000F05BFA0028F9D0022251460520FFF7BD
:10073000E3FC82E740420F0004000020A086010095
:1007400000800B4000800C400005FA050CED00E035
:1007500000E100E000000B40264BD868DFF898C0AD
:1007600010F0020F01D0604600E06046D96811F039
:10077000010F00D02148D96811F0040F04D0596846
:10078000C1F30311491C484359681D4AC1F30121B3
:1007900039B1012908D002290ED049F64040106035
:1007A0007047C2F800C07047D968C1F30311491CF3
:1007B000B0FBF1F0106070474FF4004010607047DC
:1007C0000C481049C1611049CA6B42F48102CA63E6
:1007D000CA6B02F48102CA63C1680021C160426829
:1007E0004160826881600269016142694161826998
:1007F0008161B1E70000024000127A0000093D006B
:10080000180000201000000800800D4006488047B6
:1008100006480047FEE7FEE7FEE7FEE7FEE7FEE7E5
:10082000FEE7FEE7FEE7FEE7C1070008C10000089B
:1008300000210163C16241609022826101624162D4
:10084000816202224263816381644FF440710163DB
:10085000704730B585B004460D46684600F07EFB13
:1008600000987249896A0122A4F18043B3F54033AC
:1008700005D0A4F18043B3F5603307D00CE001F05C
:10088000070102FA01F1B0FBF1F005E0C1F302212A
:1008900002FA01F1B0FBF1F02A689108B0FBF1F324
:1008A000990903F03F03800003EB811CB0FBFCF0CF
:1008B000801AC001B0FBF2F0022802D905B0002076
:1008C00030BD6162A362E06AA988EA886B8911433E
:1008D0002A891A4311430843E062206B6FF3CF105B
:1008E000A9890843206305B0012030BD4FF416519B
:1008F000016000218180C180018141814FF44071FC
:1009000081817047002904D0016B41F0010101632E
:100910007047016B4FF6FE72114001637047002A69
:1009200003D0826B114381637047826B22EA01011D
:1009300081637047C06B31EA000001D0002070472E
:1009400001207047006C084201D001207047002050
:100950007047426C11434164704742EAC1014163F0
:100960007047002A03D0826C114381647047826C07
:10097000C94389B2114081647047C1F30801016025
:100980007047006880B27047002904D0C16A41F006
:100990000101C1627047C16A4FF6FE721143C16224
:1009A000704730B585B004460D46042D08D1684621
:1009B00000F0D4FA00984FF4E111B0FBF1F020629E
:1009C000206B2843206305B030BD002904D0016BA3
:1009D00041F0020101637047016B4FF6FD72114354
:1009E000016370478069084201D0012070470020F0
:1009F00070470E4B9A6AA0F1804CBCF5403C05D084
:100A0000A0F1804CBCF5603C07D00CE042F0807057
:100A100020F0FF0040EA010205E042F0007020F4FF
:100A20007F4040EA01229A627047000000000240C5
:100A30000021C160016141600160816041618161AB
:100A4000C16170472DE9F04F83B046688768D0F8E0
:100A50000C80D0F810B0D0F8149082690192C2696D
:100A600000920022012303244FF00115B1F800C0C9
:100A7000BCF1000F5DD01CF0010F51D091F802A025
:100A80009E430AFA02FA46EA0A0691F808E04FEA9B
:100A9000420ACDF808A00EFA0AFAA7434AEA070765
:100AA00091F80AA028EA03080AFA02FA48EA0A08B2
:100AB00091F803E002F1100A2BEA050B0EFA0AFE88
:100AC0004BEA0E0B91F804E00EFA02FE4BEA0E0B15
:100AD00091F805E029EA05090EFA0AFA49EA0A0935
:100AE00091F806A00AFA02FA49EA0A0991F809E01F
:100AF000DDF808A00EFA0AFEDDF804A02AEA040ACE
:100B00004EEA0A0ACDF804A0DDF800A091F807E04B
:100B10002AEA030A0EFA02FE4AEA0E0ACDF800A0FB
:100B20005B00A4006D00521C4FEA5C0CBCF1000F8E
:100B3000A1D14C49884202D14FF01F0101E04FF092
:100B4000000126EA0101416002D14FF01F0101E0DE
:100B50004FF0000127EA0101816002D14FF01F012F
:100B600001E04FF0000128EA0101C16002D14FF01D
:100B70001F0101E04FF000012BEA0101016102D1E8
:100B80004FF01F0101E04FF0000129EA010141612E
:100B900002D14FF01F0101E04FF00001019A22EA5B
:100BA0000101816102D14FF01F0101E04FF000010E
:100BB000009A22EA0101C16103B0BDE8F08F4FF64F
:100BC000FF71018000218170C170017141718171DB
:100BD000C17101724172817270470068084201D090
:100BE0000120704700207047006870470368A0F13B
:100BF0008042B2F5302205D0002223EA02021143DE
:100C0000016070471F22F8E70368A0F18042B2F547
:100C1000302205D00022114323EA01010160704710
:100C20001F22F8E7D0F800C0A0F18043B3F53023CD
:100C300006D000232CEA030322B119430160704758
:100C40001F23F7E723EA010101607047A0F180420A
:100C5000B2F5302203D000229143016070471F2279
:100C6000FAE7000000000B40FC4A002903D0D169DC
:100C70000843D0617047D16921EA0000D061704714
:100C8000F64AD16821F440710843D060704700F003
:100C9000E00120290AD0F249C96B00F01F000122AF
:100CA00002FA00F0084204D001207047EB490968BD
:100CB000F3E70020704708B5002000901720FFF7E9
:100CC000E6FF0099491C00910099B1F5C06F01D26F
:100CD0000028F3D01720FFF7DAFF08B1012008BD84
:100CE000002008BDDF490860704700B50120FFF70C
:100CF000F9FFFFF7E0FF0020FFF7C2FFD748C16808
:100D00000021C160426841608268816002690161BE
:100D10004269416182698161D349C16100BD00B509
:100D2000FFF7E3FF0121C806FFF79EFFCC48C16B28
:100D300041F48101C163C16B01F48101C16300BD54
:100D4000C6498A6822F003028A60012806D0022878
:100D500003D1886840F0030088607047886840F0DD
:100D600001008860704708B5002000902220FFF73E
:100D70008EFF0099491C00910099B1F5C06F01D216
:100D80000028F3D02220FFF782FF08B1012008BD20
:100D9000002008BDB249CA6B22F00302CA630128D1
:100DA00006D0022803D1C86B40F00300C863704727
:100DB000C86B40F00100C863704708B50020009080
:100DC0000D20FFF764FF0099491C00910099B1F5CF
:100DD000C06F01D20028F3D00D20FFF758FF08B1F3
:100DE000012008BD002008BD9D4AD16B21F07C5137
:100DF00041EA0060D06370479C490860704708B5BD
:100E0000002000901520FFF742FF0099491C009137
:100E10000099B1F5C06F01D20028F3D01520FFF77B
:100E200036FF08B1012008BD002008BD8B4AD368F9
:100E300023F003031843D060506820F4706040EA48
:100E4000012050608A48D0F88810002902D0012182
:100E5000C0F88C1070478749086070478649086061
:100E6000704708B5002000902120FFF710FF00997F
:100E7000491C00910099B1F5C06F01D20028F3D050
:100E80002120FFF704FF08B1012008BD002008BDA4
:100E9000724AD16821F0F0010843D06070476F4A70
:100EA000136923F0030318431061506820F0F00029
:100EB00040EA011050606E48D0F88010002902D03E
:100EC0000121C0F8841070476C49086070476C4974
:100ED0000860704708B5002000902020FFF7D7FE7B
:100EE0000099491C00910099B1F5C06F01D200280A
:100EF000F3D02020FFF7CBFE08B1012008BD002071
:100F000008BD6049086070475F4908607047534AF0
:100F1000516921F033010843506170474F4A5169CC
:100F200021F4706141EA0020506170475749086020
:100F300070474A4A916921F0F00141EA001090613E
:100F40007047534908607047444A916921F00F0186
:100F50000843906170474F4908607047F0B4444DB2
:100F6000D5F884114C4F002901D03B4600E03B46A8
:100F7000D5F88011DFF824C101B163461946D5F8D0
:100F80008821364E22B17268C2F30322521C5143AB
:100F9000F268C2F301225AB1012A0BD0022A1AD0F8
:100FA00049F640420260D5F80422C2B13A4617E041
:100FB0000760F8E7F26812F0800F0AD0F268C2F317
:100FC0000212521C012404FA02F2B1FBF2F2026096
:100FD000E9E70A46FBE74FF400420260E3E73A46DE
:100FE000D5F8004204B162469446D5F808422CB1C7
:100FF0007468C4F30314641C0CFB04FC6446D5F849
:10100000105205B164084460B469C4F30314641C4D
:10101000B7FBF4F5C560B46904F00F04641CB7FBBA
:10102000F4F40461746914F0030439D0012C39D04C
:10103000022C00D061467269C2F301126AB1012A22
:1010400035D0022A00D029467269C2F30322521C0D
:10105000B1FBF2F18160F0BC704725E00000024076
:1010600000800D40D807B04310000008BC07B04313
:10107000000040428801404288004042080240424D
:10108000800040422002404210024042B4024042EE
:10109000240340422003404200127A0000093D0030
:1010A0001946C8E71146C6E74FF40041CCE749F6B8
:1010B0004041C9E77047FEE7FEE7FEE7FEE77047FD
:1010C0007047704770477047704770477047704768
:1010D000704770477047704770472DE9F041C84826
:1010E00000254565C748016800293DD101210160FF
:1010F00000221146C44800F0BDFC00220121C34873
:1011000000F0B8FC00220221C14800F0B3FC00222C
:101110000321C04800F0AEFC00220421BE4800F0CC
:10112000A9FC00220521BD4800F0A4FC00220A21F0
:10113000BB4800F09FFC00220B21BA4800F09AFC4B
:1011400000220C21B84800F095FC00220D21B74880
:1011500000F090FC00220E21B54800F08BFC00222C
:101160000F21B44800F086FC01220B21B24800F0A8
:1011700081FC01220C21B14800F07CFC01220D21F0
:10118000AF4800F077FC01220E21AE4800F072FC5F
:1011900001220F21AC4800F06DFCAC4C322207213B
:1011A000AB48236800F0C9FC0028F7D02068401C39
:1011B0002060372800D12560A6480078012812D089
:1011C000A548007801281CD0A4480078012835D013
:1011D000A348007801284ED0A24FA34DA34E3868F3
:1011E00000286FD09CE00321A14800F066FC042198
:1011F000A04800F062FCBDE8F04105219E4800F0E7
:101200005CBC03219D4800F058FC03220F219C4840
:1012100000F030FC04219B4800F04FFC04220F2119
:10122000974800F027FC0521944800F046FCBDE8F3
:10123000F04105220F21924800F01CBC03218F4889
:1012400000F03BFC03220F218D4800F013FC042129
:101250008C4800F032FC04220F21894800F00AFC7F
:101260000521864800F029FCBDE8F04105220F2148
:10127000834800F0FFBB0321834800F01EFC0421DB
:101280007E4800F01AFC04220F217D4800F0F2FB9A
:101290007E48007801280AD00521784800F00DFC2E
:1012A000BDE8F04105220F21754800F0E3BB0521A0
:1012B000774800F002FCBDE8F04105220F2170489C
:1012C00000F0D8BB00242868032204EB001021465C
:1012D00056F8200000F0CEFB641C102CF3DB002439
:1012E00028680422401C04EB0010214656F8200018
:1012F00000F0C0FB641C102CF2DB002428680522DF
:10130000801C04EB0010214656F8200000F0B2FBD0
:10131000641C102CF2DB03220F215E4800F0AAFBB4
:10132000386801282DD1002428680322401E04EBD0
:101330000010214656F8200000F09CFB641C102C85
:10134000F2DB00242868042204EB0010214656F842
:10135000200000F08FFB641C102CF3DB00242868B5
:101360000522401C04EB0010214656F8200000F036
:1013700081FB641C102CF2DB04220F21454800F095
:1013800079FB386802282FD1002428680322801EA8
:1013900004EB0010214656F8200000F06BFB641CA3
:1013A000102CF2DB002428680422401E04EB0010FD
:1013B000214656F8200000F05DFB641C102CF2DB87
:1013C00000242868052204EB0010214656F820006E
:1013D00000F050FB641C102CF3DBBDE8F04105224B
:1013E0000F212C4800F046BBBDE8F08170477047E4
:1013F0007047704770477047704770477047704735
:10140000000007400000002070000020780000204D
:10141000980000208800002080000020900000201C
:10142000600000206800002028000020A8000020A4
:101430003000002020000020500000204800002044
:101440003800002058000020400000201C00002030
:10145000B800002008000020140000200600002032
:1014600007000020100000200C0000208001002058
:1014700080020020C002002000030020C0030020E2
:10148000A000002040030020800300200400002072
:1014900000040020B0000020FE490A684FF6C07327
:1014A0001A400A600A6800F03F031A430A60FA49CA
:1014B0000A684FF6F3731A400A600A680C2303EABD
:1014C0001010104308607047401EFDD270472DE990
:1014D000F0410446EF4D68684FF6C07108406860FF
:1014E000ED4E70684FF6F37108407060EB4F012CC1
:1014F0003ED0A9153846FFF779FBDFF8A483012118
:101500004046FFF781FB4FF480613846FFF76EFBE2
:101510000520FFF7D9FF02214046FFF767FB0520B2
:10152000FFF7D2FF2868316800F03F00C02202EACE
:10153000011140EA01050520FFF7C6FF02214046E0
:10154000FFF762FB0520FFF7BFFF01214046FFF7D1
:101550005BFB4FF480613846FFF756FB012C0CD043
:101560004FF480713846FFF74FFB2846BDE8F08105
:1015700080213846FFF73AFBBFE780213846FFF766
:1015800043FBF2E72DE9F0410446C44F012C49D05A
:10159000B9153846FFF72AFBDFF8048301214046DE
:1015A000FFF732FB4FF480613846FFF72DFB052033
:1015B000FFF78AFFB74D686840F03F006860B64E9D
:1015C000706840F00C0070603F20FFF765FF052059
:1015D000FFF77AFF02214046FFF708FB0520FFF7DF
:1015E00073FF02214046FFF70FFB0520FFF76CFF5A
:1015F00001214046FFF708FB29153846FFF704FB99
:1016000068684FF6C0710840686070684FF6F37103
:1016100008407060012C0AD0A9153846BDE8F04199
:10162000FFF7F2BA80213846FFF7E0FAB4E7384610
:10163000BDE8F0418021FFF7E7BA2DE9F04104460B
:10164000964F012C49D0B9153846FFF7CFFADFF88D
:10165000508201214046FFF7D7FA4FF480613846A7
:10166000FFF7D2FA0520FFF72FFF8A4D686840F098
:101670003F006860884E706840F00C0070603E204B
:10168000FFF70AFF0520FFF71FFF02214046FFF783
:10169000ADFA0520FFF718FF02214046FFF7B4FA24
:1016A0000520FFF711FF01214046FFF7ADFA29158C
:1016B0003846FFF7A9FA68684FF6C07108406860BD
:1016C00070684FF6F37108407060012C0AD0A915BC
:1016D0003846BDE8F041FFF797BA80213846FFF75A
:1016E00085FAB4E73846BDE8F0418021FFF78CBAAF
:1016F0002DE9F04704460F46DFF8A081012C4BD0BE
:101700004FF480714046FFF771FADFF894910121A0
:101710004846FFF779FA4FF480614046FFF774FAC4
:101720000520FFF7D1FE5B4D686840F03F00686020
:10173000594E706840F00C00706047F0B800FFF739
:10174000ABFE0520FFF7C0FE02214846FFF74EFA28
:101750000520FFF7B9FE02214846FFF755FA05209C
:10176000FFF7B2FE68684FF6C071084068607068A5
:101770004FF6F3710840706001214846FFF744FAC4
:1017800029154046FFF740FA012C0AD0A91540461A
:10179000BDE8F047FFF738BA80214046FFF726FA48
:1017A000B3E74046BDE8F0478021FFF72DBA2DE9A9
:1017B000F04704460F46DFF8E480012C4BD04FF48D
:1017C00080714046FFF712FADFF8D49001214846B5
:1017D000FFF71AFA4FF480614046FFF715FA05202B
:1017E000FFF772FE2B4D686840F03F0068602A4E9C
:1017F000706840F00C00706047F04000FFF74CFE4E
:101800000520FFF761FE02214846FFF7EFF90520AA
:10181000FFF75AFE02214846FFF7F6F90520FFF7C9
:1018200053FE68684FF6C0710840686070684FF6F4
:10183000F3710840706001214846FFF7E5F929156A
:101840004046FFF7E1F9012C0AD0A9154046BDE852
:10185000F047FFF7D9B980214046FFF7C7F9B3E752
:101860004046BDE8F0478021FFF7CEB92DE9F047AB
:1018700004468946094F012C52D0B9153846FFF766
:10188000B5F9DFF81C8001214046FFF7AFF94FF4AE
:10189000806107E000800A4000800E4000000B409D
:1018A00000800B403846FFF7AFF90520FFF70CFE2C
:1018B000DF4D686840F03F006860DE4E706840F0C1
:1018C0000C0070604846FFF7E7FD0520FFF7FCFDC0
:1018D00002214046FFF78AF90520FFF7F5FD0221B6
:1018E0004046FFF791F90520FFF7EEFD68684FF6D7
:1018F000C0710840686070684FF6F371084070600E
:1019000001214046FFF780F929153846FFF77CF999
:10191000012C0AD0A9153846BDE8F047FFF774B985
:1019200080213846FFF762F9ABE73846BDE8F0475B
:101930008021FFF769B92DE9F0420446BE4F012C22
:101940004ED0B9153846FFF751F9DFF8F092012172
:101950004846FFF74BF94FF480613846FFF746F9E8
:101960000520FFF7B1FDB24E70684FF6C071084018
:101970007060B04D68684FF6F3710840686040468B
:10198000FFF78AFD0520FFF79FFD02214846FFF77C
:101990002DF90520FFF798FD3068296800F03F0019
:1019A000C02202EA011140EA01050520FFF78CFD83
:1019B00002214846FFF728F90520FFF785FD0121A0
:1019C0004846FFF721F931153846FFF71DF9012C7C
:1019D0000BD0B1153846FFF717F92846BDE8F0825D
:1019E00080213846FFF702F9AFE780213846FFF73C
:1019F0000BF9F2E710B5904C4FF400712046FFF759
:101A000003F9C820FFF760FD61152046FFF7EEF8E7
:101A10000120FFF75CFD00F090040220FFF757FD66
:101A200000F09000002C01D00028F1D110BD70B55D
:101A300005462846FFF75CFE00212846FFF7B7FE63
:101A400000242846FFF743FD10F0010FF9D10021D3
:101A50002846FFF70BFF641C402CF2DB70BD70B50D
:101A600005460024E1B22846FFF7E1FF641C082C7C
:101A7000F8DB70BD70B50646C81701EB5070012346
:101A800003EBE00420F00700081AC500D1B2E0B271
:101A9000FFF72EFEE9B2E0B2FFF789FE0025E0B2C3
:101AA000FFF715FD10F0010FF9D1715DE0B2FFF7FE
:101AB000DDFE6D1C082DF2DB70BD2DE9F041054601
:101AC0000F46F9B20120FFF713FE00210120FFF7B6
:101AD0006EFE002600240120FFF7F9FC10F0010F34
:101AE000F9D155F82600015D0120FFF7BFFE641C07
:101AF000082CF0DB761C082EECDBF9B20220FFF795
:101B0000F7FD00210220FFF752FE0026002406F117
:101B100008070220FFF7DBFC10F0010FF9D155F8A0
:101B20002700015D0220FFF7A1FE641C082CF0DBFA
:101B3000761C082EEADBBDE8F08170B592B04FF05C
:101B4000000CCDF800C0CDF804C06D4602AC0F2BE0
:101B500017DA002203EB020CBCF10F0F02DA44F893
:101B6000225007E002EB030CACF10F0C50F82CC034
:101B700044F822C0521C102AECDB02A8FFF79DFF9C
:101B800018E04FF0000C03EB0C060F3E964202DB10
:101B900044F82C5006E00CEB03060F3E50F826608C
:101BA00044F82C600CF1010CBCF1100FEBDB02A827
:101BB000FFF783FF12B0012070BD2DE9FF5F814662
:101BC000DDF838A088469B460027D8452DDC029ECC
:101BD000564526DCF01706EB5070012101EBE005BD
:101BE00020F00700301AC40008F0FF01E8B2FFF748
:101BF0007FFDE1B2E8B2FFF7DAFD0024E8B2FFF7BB
:101C000066FC10F0010FF9D1381919F80010E8B28C
:101C1000FFF72CFE641C082CF0DB0837761C5645B9
:101C2000D8DD08F10108D845D1DD04B0BDE8F09F4A
:101C300000800A4000800E4000000B4000800B40F6
:101C4000064C074D06E0E06840F0010394E8070009
:101C500098471034AC42F6D3FEF736FAD81C000889
:101C6000F81C000870B58C1810F8015B15F007031C
:101C700001D110F8013B2A1106D110F8012B03E025
:101C800010F8016B01F8016B5B1EF9D12B0705D42D
:101C90000023521E0DD401F8013BFAE710F8013B76
:101CA000CB1A921C03E013F8015B01F8015B521E92
:101CB000F9D5A142D8D3002070BD02E008C8121F98
:101CC00008C1002AFAD170477047002001E001C125
:101CD000121F002AFBD17047F81C000800000020EA
:101CE00038050000641C00085C1F0008380500204F
:101CF00020040000CA1C0008011953127A2722632D
:101D000049497F36273C7E4B497930270303717957
:101D10000F071008207454543C784037387C5454D2
:101D20005C1835417F7F4027485C54547424271C3D
:101D30003C60603C1C10087F7F30180C7F7F1808C7
:101D400063673C180C0703101A60027A7F40277CF7
:101D50007C20107C7C1808447C7C10386C44103A41
:101D600010101B7C4002D11A080119061D1C3E7F71
:101D70001C0113A80414201805122019041A0804C1
:101D80001AF0101AC8041A789B1A30101AA00829E1
:101D90001C29101AC01829205A1010291C5AF8148E
:101DA000290C1A8804A94C290C29181AB0205A8029
:101DB00020291C29302938690C1A20081AD808292A
:101DC000346984291C1A90305A281C2948291C2956
:101DD000482908298429181AE804292429200912E5
:101DE000041A50201A40045A5844092E041A703814
:101DF00029040A3560405A80400A39484029C01AEF
:101E000068040A2978441AB82C1AD8041308051B48
:101E100020100409228C1AF81811192C1AF0081A2B
:101E2000C80429081AD0041A801C2944294C5A30A5
:101E30004C1A90040A1578442AE0AC5934298429B4
:101E4000181A88081A38081A50042A98D42944D92C
:101E5000880912B42A502C19045A582C2960299840
:101E600029A82948698409123C5A60A869C45A887B
:101E7000B42920694469ECE9C809430459AC697084
:101E80002968290809122C277C7E13137E7C1008F0
:101E9000417F7F49497F3610081C3E6341416322E0
:101EA00038087F7F060C187F7F182C090F0608154D
:101EB00009197F6627266F4D5973321A0311234182
:101EC00003273F7F60607F3F10087C7C18381C7CB4
:101ED000782008447C784C041C183E043E7F44243F
:101EE000582D41010303081D081C7763581C0E1C64
:101EF0000E58694027307C4A4A7A3127447C7C540A
:101F00005428276038343438601A380F1A5C471068
:101F10000840780C047C7C401E787C081008602FF8
:101F2000387C44447C38701A041819383F787C5443
:101F3000141C08181A6C401A0849234408274C5CE2
:101F400050507C3C1E3C3C203C3C5016403C505089
:0C1F500020127C2D4028141438000000E2
:04000005080000C12E
:00000001FF
