:020000040800F2
:10000000D8100020A1150008291F00082B1F000888
:100010002F1F0008331F0008371F000800000000D2
:100020000000000000000000000000003B1F00086E
:100030003D1F0008000000003F1F0008411F00088E
:10004000431F0008451F0008471F0008000000006C
:1000500000000000491F00084B1F00084D1F00084A
:100060004F1F000800000000511F0008531F000828
:10007000551F000800000000571F0008BD2400089D
:10008000BF240008C124000800000000C3240008A9
:10009000C52400080000000000000000000000006F
:1000A000000000000000000000000000C72400085D
:1000B000C9240008CB240008CD240008CF24000860
:1000C00000F002F800F05EF80AA090E8000C82440C
:1000D0008344AAF10107DA4501D100F053F8AFF2E9
:1000E000090EBAE80F0013F0010F18BFFB1A43F016
:1000F00001031847542C0000742C000010F8013B39
:100100000A4413F0030408BF10F8014B1D1108BF87
:1001100010F8015B641E05D010F8016B641E01F835
:10012000016BF9D1002D15D010F8014B03F00C0331
:100130000C2BA1EB04040ABF10F8013BA4EB8314C1
:10014000A4EB032405F1010314F8016B5B1E01F815
:10015000016BF9D5914238BF10F8013BD1D37047FC
:100160000023002400250026103A28BF78C1FBD8C0
:10017000520728BF30C148BF0B6070471FB51FBD75
:1001800010B510BD02F0A5FD1146FFF7F7FF01F015
:1001900023F802F0C3FD03B4FFF7F2FF03BC02F043
:1001A000CBFD000001B502E00098401E00900098D1
:1001B0000028F9D108BD10B504462146FE4801F0DB
:1001C000CFFB10BD10B504462146FB4801F0CCFB27
:1001D00010BD2DE9F04104460D46164600270CE0FF
:1001E0003046FFF7E8FF2846FFF7DCFF3046FFF711
:1001F000E9FF2846FFF7D6FF7F1CA742F0D3BDE8F2
:10020000F08110B57A20ED490880012088700872CD
:100210008872002088714871022048720020C870DE
:100220000871E74801F0EAFA10BD10B50F20E34964
:1002300008800120887008728872002088714871D7
:10024000012048720020C871C8700871DD4801F0B3
:10025000D5FA4FF6FC70D9490880012088700872E1
:10026000887248720020C871C8700871D64801F0C1
:10027000C5FA4FF6FF70D1490880012008728872D4
:1002800000204871C871012048720020C8700871B0
:10029000CE4801F0B3FA4FF6FF70C849088001203C
:1002A0000872887248720020C8700871C84801F04E
:1002B000A5FA7E20C14908800120887008728872E2
:1002C00000208871012048720020C8700871BC4865
:1002D00001F094FA10BD10B54FF6FF70B7490880D1
:1002E00001200872887200204871C871012048728C
:1002F0000020C8700871B54801F080FA4FF48050B2
:10030000AE490880012088700872887200208871C8
:10031000012048720020C871C8700871A94801F016
:100320006DFA0620A549088001208870087288723D
:1003300000208871012048720020C8700871A04810
:1003400001F05CFA4FF6FC709C490880012088702F
:100350000872887248720020C87008719A4801F0CB
:100360004DFA4FF400609549088001208870002004
:1003700008720120887200208871012048720020D4
:10038000C8700871924801F039FA4FF40061904842
:1003900001F0E6FA4FF400618D4801F0E5FA002023
:1003A000864988708A4801F029FA10BD10B50020EE
:1003B0008249C870087148718871C871FF2008802F
:1003C0000020887008720120887248727F4801F00E
:1003D00015FA84207949088001208870784801F056
:1003E0000DFA4FF4436075490880764801F006FA2B
:1003F00010BD10B500207149C8700871487188712E
:10040000C871032008724872012088720020887029
:10041000012008806C4801F0F1F9012067498870DB
:1004200002200880684801F0E9F910BD10B50020ED
:100430006249C870087148718871C87101200872DA
:100440000320487201208872002088704FF40070E9
:1004500008805B4801F0D2F90120584988700002F9
:100460000880574801F0CAF910BD10B54FF4F840A4
:10047000524908800120887000200872012088728B
:1004800048724D4801F0BAF910BD10B54FF4F8406C
:100490004A490880002088700872012088724872DA
:1004A000474801F0ABF910BD10B50021012001F063
:1004B0007FFB0121802001F069FA0021454801F00D
:1004C00075F942F6E06044490860602088800020A9
:1004D000C880088148814FF4407088813D4801F010
:1004E00092F801213B4801F0EBF810BD10B504462D
:1004F000012001F0CAFA00BF01F0E3FA0128FBD1A4
:100500000321022001F054FB002001F087FB0120B1
:1005100001F067FB02E0012001F060FB01F064FBE9
:100520000028F8D04FF4807001F03DFA0121084610
:1005300001F02CFA4FF0807028490862012C02D19A
:10054000274801078860022C02D12648810788606D
:1005500000204FF08041086423490860091D0860AD
:100560000320090748640020204908608906C1F873
:1005700014021E4908310860091D08601A49083133
:100580000860091D086001208107086010BD10B5D2
:100590000121880301F0FAF94FF0E0600F49486249
:1005A00000201349C86008603F2048604FF6FF7084
:1005B0008860002008621DE000000C405C0A0020FA
:1005C00000800B4000800C4000800E4000800A40FC
:1005D00000000B4000800340680A00200000024039
:1005E0000400210F0100510A0005004010020040E4
:1005F0000000074048628862C862086348638863F5
:10060000C8634865022088650846C06840F001005C
:10061000C86010BD10B5FFF7ECFEFFF745FF1CE00A
:1006200000BF4FF40051FE4801F08FF900B915E00A
:100630004021FC4801F0B2F80128F2D1F94801F05C
:100640007DF8C4B200BF8021F64801F0A7F8012868
:10065000F9D12146F34801F06DF8E1E7012001F0FE
:10066000D9F901F0BDF9002001F09DF9EE48C0680C
:100670000020ED49C86008464068002048600846F0
:1006800080680020886010BD70B5FFF7CFFE0120A4
:10069000FFF72CFF3FE000BF4FF40051E04801F0AE
:1006A00054F900B938E0E148006800F00800082873
:1006B000F2D1DE48001D05684FF08040D0F81C42A2
:1006C00000204FF080414864D849091F0860091D87
:1006D0000860091D0860091D0860D548D349143910
:1006E000086041F60820C106C1F80402C006C0F83F
:1006F0000852CE48083804602120086400BF4FF03B
:100700008040006C00F020000028F8D14FF08041BC
:10071000086403204864BEE7012001F07BF901F082
:100720005FF9002001F03FF9BF48C0680020BE49D2
:10073000C86008464068002048600846806800207D
:10074000886070BD70B5FFF771FE0220FFF7CEFE26
:100750003FE000BF4FF40051B14801F0F6F800B996
:1007600038E0B248006800F008000828F2D1AF482D
:10077000001D05684FF08040D0F81C4200204FF06B
:1007800080414864A949091F0860091D0860091DC6
:100790000860091D0860A648A4491439086041F69C
:1007A0000820C106C1F80402C006C0F808529F48DC
:1007B000083804602120086400BF4FF08040006CBE
:1007C00000F020000028F8D14FF080410864032099
:1007D0004864BEE7012001F01DF901F001F9002095
:1007E00001F0E1F89048C06800208F49C8600846D1
:1007F000406800204860084680680020886070BD1E
:1008000010B592B000BF00208A4908708A4908607C
:10081000002400E0641C89488442FBDB4FF48040E4
:1008200087490860FFF701FD48F2020085494865E5
:10083000002400E0641C81488442FBDB4FF011304F
:100840004FF0C04148600846406800904FF02230A9
:1008500088600846806801904FF033300861400797
:10086000006902904FF0443008620846006A039025
:100870004FF0553008640846006C04904FF0663025
:10088000714908600007D0F8800005904FF077307C
:100890004FF0C041C1F800010846D0F800010690B1
:1008A0004FF08830C1F800020846D0F800020790E7
:1008B0004FF09930654908600846006808904FF08D
:1008C000AA30634908600846006809904FF0BB30C1
:1008D00060490860084600680A904FF0CC305E49D5
:1008E0000860084600680B904FF0DD305B490860F7
:1008F000084600680C904FF0EE30594908600846F1
:1009000000680D904FF0FF305649086008460068B7
:100910000E90002054490860084600680F904FF080
:100920001130524908600846006810904FF022309C
:100930004F490860084600681190009820F4F810AC
:100940004C49884205D03C48006840F001003A49D3
:100950000860019820F4F8104749884205D03648CD
:10096000006840F0020034490860029820F4F81052
:100970004249884205D03048006840F004002E49C2
:100980000860039820F4F8103D49884205D02A48B1
:10099000006840F0080028490860049820F4F81026
:1009A0003849884205D02448006840F010002249A8
:1009B0000860059820F4F8103349884205D01E4895
:1009C000006840F020001C490860069820F4F810E8
:1009D0002E49884205D01848006840F0400016496A
:1009E0000860079820F4F8102949884205D0124879
:1009F000006840F0800010490860089820F4F81062
:100A00002449884205D00C48006840F480700A49A7
:100A10000860099820F4F8101F49884244D03DE04E
:100A200000800B40008003400000024014020040A0
:100A30006700AA15180000201400002040420F0093
:100A400080E100E000000F408000006000040060D2
:100A5000000800600010006000200060004000609E
:100A6000008000600000016000000260000004607F
:100A7000000008601111001122222022333320339C
:100A800044444044555540556666606677776077C4
:100A90008888808899998099AAAAA0AAFD480068A8
:100AA00040F40070FB4908600A9820F4F810FA49F5
:100AB000884205D0F748006840F48060F549086036
:100AC0000B9820F4F810F549884205D0F1480068E9
:100AD00040F40060EF4908600C9820F4F810F049E9
:100AE000884205D0EB48006840F48050E94908602E
:100AF0000D9820F4F810EB49884205D0E5480068CD
:100B000040F40050E34908600E9820F4F8106FF4A8
:100B1000F811884205D0DF48006840F48040DD4984
:100B200008600F9820F4F81028B1DA48006840F403
:100B30000040D8490860109820F4F810DA4988423B
:100B400005D0D448006840F48030D249086011983C
:100B500020F4F810D549884205D0CE48006840F40A
:100B60000030CC4908600120D1490870D14800F01C
:100B70003BFED14800F038FED04800F035FEFFF7CC
:100B800015FC4FF48040CE49086000BF4FF48061EF
:100B9000CC4800F0DAFE00B935E64FF40051C94800
:100BA00000F0D3FE0028F1D100BFC149087012B097
:100BB00010BD10B592B000BF0020C3490870C349F2
:100BC0000860002400E0641C42F210708442FADBEA
:100BD0004FF48040BA4980310860FFF726FB0120BE
:100BE000BB494865002400E0641CBA488442FBDB32
:100BF0004FF0F0304FF08051086002F035F84FF0C0
:100C00001131B54802F000F8B34802F025F8009021
:100C10004FF02231B048001D01F0F6FFAE48001D34
:100C200002F01AF801904FF03331AB480C3001F06C
:100C3000EBFFA9480C3002F00FF802904FF044315E
:100C4000A5481C3001F0E0FFA3481C3002F004F876
:100C500003904FF05531A0483C3001F0D5FF9E483D
:100C60003C3001F0F9FF04904FF066319A487C3037
:100C700001F0CAFF98487C3001F0EEFF05904FF07C
:100C800077319548FC3001F0BFFF9348FC3001F00C
:100C9000E3FF06904FF08831904801F0B5FF8F4890
:100CA00001F0DAFF07904FF099318D4801F0ACFF69
:100CB0008B4801F0D1FF08904FF0AA31894801F02C
:100CC000A3FF884801F0C8FF09904FF0BB314FF0F7
:100CD000102001F099FF4FF0102001F0BDFF0A90A5
:100CE0004FF0CC31804801F08FFF7F4801F0B4FF16
:100CF0000B904FF0DD317D4801F086FF7B4801F01D
:100D0000ABFF0C904FF0EE31794801F07DFF784851
:100D100001F0A2FF0D904FF0FF31764801F074FF13
:100D2000744801F099FF0E900021734801F06CFFA8
:100D3000714801F091FF0F904FF011316F4801F0B1
:100D400063FF6E4801F088FF10904FF022316C482D
:100D500001F05AFF6A4801F07FFF11900098B0F14E
:100D6000113F05D05948006840F00100574908601C
:100D70000198B0F1223F05D05448006840F00200CD
:100D8000524908600298B0F1333F05D04F480068DF
:100D900040F004004D4908600398B0F1443F05D08D
:100DA0004A48006840F00800484908600498B0F1DB
:100DB000553F05D04548006840F0100043490860A1
:100DC0000598B0F1663F05D04048006840F020002B
:100DD0003E4908600698B0F1773F05D03B4800686F
:100DE00040F04000394908600798B0F1883F05D0CD
:100DF0003648006840F08000344908600898B0F137
:100E0000993F05D03148006840F480702F49086050
:100E10000998B0F1AA3F05D02C48006840F4007052
:100E20002A4908600A98B0F1BB3F05D027480068FE
:100E300040F48060254908600B98B0F1CC3F05D0A4
:100E40002248006840F40060204908600C98B0F126
:100E5000DD3F05D01D48006840F480501B49086004
:100E60000D98B0F1EE3F05D01848006840F40050EE
:100E7000164908600E98401C28B11448006840F4D8
:100E80008040124908600F98E0B31048006840F4B1
:100E9000004038E014000020BBBBA0BBCCCCC0CCD1
:100EA000DDDDC0DDEEEEE0EE111100112222202288
:100EB0001800002000800A4000000B4000800E4017
:100EC00000E100E000800B40100000200C0000203A
:100ED00000000F4040420F0004000010000200100C
:100EE0000004001000080010002000100040001056
:100EF000008000100000011000000210000004102B
:100F00000000081001E0FE4908601098B0F1113FA0
:100F100005D0FB48006840F48030F949086011981A
:100F2000B0F1223F05D0F648006840F40030F449A3
:100F30000860F348006828B94FF48061F14800F078
:100F40000FFD04E04FF48041EE4800F009FD01F090
:100F50008BFE4FF40061EB4800F002FD0120EA49EE
:100F60000870EA4800F040FCE94800F03DFCE94820
:100F700000F03AFCFFF71AFA4FF48040E6490860A7
:100F800000BF4FF48061E54800F0DFFC00B913E6D4
:100F90004FF40051E14800F0D8FC0028F1D100BF27
:100FA000D949087012B010BD70B500BF0020DC49EF
:100FB0000870DC490860002400E0641CDA488442C0
:100FC000FBDB4FF48040D44980310860FFF783F9A0
:100FD00042F20200D549486545F28230D4490860A2
:100FE000002404E0A00000F1C0400460641CB4F5DB
:100FF000006FF7DB00240DE0A00000F1C0400568A1
:10100000A00000F1C0400068A04202D00120C54904
:101010000860641CB4F5006FEEDB002403E0C549F2
:1010200041F82440641CB4F5006FF8DB002409E0AB
:10103000C04951F82400A04203D00120B9490860FA
:101040006CE0641CB4F5006FF2DB002406E045F2AE
:101050005551A00000F1C0400160641CB4F5006F60
:10106000F5DB00240CE0A00000F1C040006845F270
:101070005551884203D00120AA4908604EE0641C03
:10108000B4F5006FEFDB002405E04AF6AA20A94A78
:1010900042F82400641CB4F5006FF6DB00240BE07A
:1010A000A44951F824004AF6AA21884203D001201D
:1010B0009C49086032E0641CB4F5006FF0DB00244A
:1010C00003E09D4941F82440641C802CF9DB002496
:1010D00009E0994951F82400A04203D00120914928
:1010E00008601BE0641C802CF3DB002404E0A000FB
:1010F00000F160200460641C802CF8DB00240AE00E
:10110000A00000F160200068A04203D001208549C2
:10111000086003E0641C802CF2DB00BF01208049E2
:1011200008707A4800F060FB794800F05DFB794870
:1011300000F05AFBFFF73AF94FF480407649086017
:1011400000BF4FF48061754800F0FFFB00B92DE748
:101150004FF40051714800F0F8FB0028F1D100BFB6
:101160006F49087070BD10B500BF0020734908704A
:101170004FF4806272490520FFF72BF84FF40062AC
:101180006F490520FFF725F84FF480526C49052080
:10119000FFF71FF84FF4005269490520FFF719F8CF
:1011A0004FF4804266490520FFF713F80120634998
:1011B000087000BF4FF48061584800F0C6FB00B9CA
:1011C000D3E74FF40051554800F0BFFB0028F1D1A0
:1011D00000BF5A49087010BD012000F08CFC0120AE
:1011E00000F053FC00BF00F06CFC0128FBD1012192
:1011F000400500F0CBFB0121880500F0C7FB012171
:10120000C80500F0C3FB0121080600F0BFFB012167
:10121000480600F0BBFB0121480700F0B7FB0121A5
:10122000880700F0B3FBFEF7ECFFFFF7BFF8FFF70E
:101230001CF9FFF72AF901F08FFB00BF012001F034
:1012400060F9044604F001000028F7D1012001F004
:10125000A1F900BF022001F054F9044604F0010096
:101260000028F7D1022001F095F9012001F0B1FB2F
:10127000022001F0AEFB3348334908604FF00060B4
:10128000091F0860401324490860FFF780F9FFE058
:101290004FF48061214800F058FB00287ED100BF48
:1012A0004FF480611D4800F050FB0028F8D027481B
:1012B000006838B9012026490870FFF754FF002064
:1012C0002349087021480068012806D12149087087
:1012D000FFF7A0F900201F4908701C480068022889
:1012E00007D101201C490870FFF7CEF900201A49E8
:1012F000087016480068032838D1012017492FE0EC
:101300000C00002000000C401000002000800A406B
:1013100000000B4000800E4000E100E000800B4028
:10132000200000201C00002040420F0000000F4061
:101330007C7F0060004000600020006021000020F1
:10134000A08601000005FA050CED00E00400002075
:10135000280000202200002023000020240000207C
:101360000870FFF7EFF900204A4908704A48006802
:10137000042807D1012049490870FFF71AFC002012
:101380004649087044480068052809D101204449AD
:101390000870FFF735FA0020414900E00CE00870C2
:1013A0003D480068062807D101203E490870FFF734
:1013B000FBFD00203B4908704FF400613A4800F003
:1013C000C4FAE8B900BF4FF40061374800F0BDFA35
:1013D0000028F8D03048006820B12F480068401E2F
:1013E0002D4908603148006820B130480068401E2F
:1013F0002E4908604FF400522D490520FEF7E9FE02
:101400004FF48051284800F0A0FAC8B900BF4FF44B
:101410008051254800F099FA0028F8D01E4800684D
:10142000062804D01C480068401C1B4908601F485F
:101430000068022804D01D480068401C1B49086051
:101440004FF40051184800F080FA68B900BF4FF41B
:101450000051154800F079FA0028F8D04FF4804286
:1014600013490520FEF7B5FE4FF480410E4800F009
:101470006CFA68B900BF4FF480410B4800F065FA80
:101480000028F8D04FF4806209490520FEF7A1FE3C
:10149000FEE60000240000200400002025000020BB
:1014A000260000202700002000800B4008000020BC
:1014B000A086010030B5354CE46804F00204022C2B
:1014C00001D1334800E03248304CE46804F00104B4
:1014D00004B1400801462D4CE46804F00404042CD7
:1014E00005D12A4C6468C4F30314631C5943274C88
:1014F0006468C4F3012424B1012C06D0022C13D15A
:101500000DE0234C234D2C6013E0204CE468C4F321
:101510000314641CB1FBF4F21E4C226009E04FF48A
:1015200000441C4D2C6004E049F64044194D2C60E9
:1015300000BF00BF30BD00B517481449C861174847
:10154000C06B40F481001549C8630846C06B00F4C5
:101550008100C8630D48C06800200C49C860084677
:10156000406800204860084680680020886008467F
:10157000006900200861084640690020486108466B
:10158000806900208861FFF795FF00BD00000240E0
:1015900000127A002C0000201000000800800D408E
:1015A0000948804709480047FEE7FEE7FEE7FEE7F7
:1015B000FEE7FEE7FEE7FEE7FEE7FEE70448054933
:1015C000054A064B7047000037150008C1000008A7
:1015D000D80A0020D8100020D80C0020D80C0020F9
:1015E00000210163C162416090218161002101629B
:1015F00041628162022141630021816381644FF471
:101600004071016370472DE9F04F87B004460D46E5
:1016100001A800F079FB019F7048866A70488442F7
:1016200006D106F0070101208840B7FBF0F708E07B
:101630006C48844205D1C6F3022101208840B7FBE3
:10164000F0F728688008B7FBF0F94FEA991809F01D
:101650003F0AB8000AEB8811B0FBF1FB2868ABEB3E
:101660000000C0012968B0FBF1F00690069802283E
:1016700003D9002007B0BDE8F08FC4F82480C4F877
:1016800028A0E66AA888E988084329890843698967
:1016900008430643E662266B4FF680708643A889AE
:1016A000064326630120E5E74FF41651016000214F
:1016B0008180C180018141814FF4407181817047F7
:1016C00021B1026B42F00102026304E0026B4FF6AB
:1016D000FE731A40026370471AB1836B0B43836336
:1016E00002E0836B8B43836370470246D36B0B40EE
:1016F0008B4201D1012000E0002070470246136CAC
:101700000B400BB1012000E000207047426C0A43FF
:101710004264704742EAC1034363704710B51AB18F
:10172000836C0B43836404E0836CCC43A4B22340FA
:10173000836410BDC1F30802026070470146086867
:1017400080B2704721B1C26A42F00102C26204E075
:10175000C26A4FF6FE731A43C262704770B586B014
:1017600004460D46042D08D101A800F0CDFA019ED3
:101770004FF4E110B6FBF0F02062206B28432063A9
:1017800006B070BD21B1026B42F00202026304E0B8
:10179000026B4FF6FD731A4302637047024693696A
:1017A0000B400BB1012000E00020704702460B4BBC
:1017B000986A0B4B9A4205D140F0807020F0FF00F0
:1017C000084308E0074B9A4205D140F0007020F42E
:1017D0007F4040EA0120014B9862704700000240C0
:1017E00000000340008003400021C16001614160AE
:1017F0000160816041618161C16170472DE9FE4FE7
:1018000044688568C6680769D0F814C0D0F81880A5
:10181000D0F81C90002201234FF0030ACDF804A059
:101820004FF0011ACDF800A0B1F800A0CDF808A043
:101830006CE0DDF808A00AF0010ABAF1000F51D0FF
:1018400024EA030A91F802B00BFA02FB4AEA0B04FD
:1018500091F808A04FEA420B0AFA0BFADDF804B03F
:1018600025EA0B0B4AEA0B0526EA030A91F80AB0AF
:101870000BFA02FB4AEA0B06DDF800A027EA0A0A87
:1018800091F803B002F1100E0BFA0EFB4AEA0B0AB4
:1018900091F804B00BFA02FB4AEA0B07DDF800B03E
:1018A0002CEA0B0A91F805B00BFA0EFB4AEA0B0A78
:1018B00091F806B00BFA02FB4AEA0B0C91F809A06A
:1018C0004FEA420B0AFA0BFADDF804B028EA0B0BD8
:1018D0004AEA0B0829EA030A91F807B00BFA02FB5F
:1018E0004AEA0B095B00DDF804A04FEA8A0ACDF84A
:1018F00004A0DDF800A04FEA4A0ACDF800A0521C6F
:10190000DDF808A04FEA5A0ACDF808A0DDF808A0D3
:10191000BAF1000F8DD144608560C6600761C0F8E0
:1019200014C0C0F81880C0F81C90BDE8FE8F4FF6B8
:10193000FF71018000218170C1700171417181715D
:10194000C1710172417281727047024613680B4087
:101950000BB1012000E00020704701460868704785
:1019600002680A430260704702688A430260704757
:1019700010B503681AB143EA0104046002E023EAE7
:101980000104046010BD01607047000029B1FC4AE9
:10199000D2690243FA4BDA6104E0F94AD269824320
:1019A000F74BDA6170470146F54AD06820F4407081
:1019B0000843D060704710B5014601F0E003202BCA
:1019C00002D1EF4B1A6801E0EE4BDA6B01F01F0415
:1019D0000123A34013400BB1012000E0002010BD03
:1019E00038B50020009000BF1720FFF7E4FF054640
:1019F0000098401C00900098B0F5C06F01D2002DF7
:101A0000F2D01720FFF7D7FF08B1012400E000242F
:101A1000204638BDDC490860704700B50120FFF75B
:101A2000F9FFFFF7DDFF0020FFF7BDFFD448C068D6
:101A30000020D349C8600846406800204860084636
:101A40008068002088600846006900200861084618
:101A50004069002048610846806900208861CB48C1
:101A6000C86100BD00B5FFF7D8FF0121C806FFF728
:101A70008DFFC448C06B40F48100C249C86308466A
:101A8000C06B00F48100C86300BDBD49896821F0C6
:101A90000301BB4A9160012802D002280ED106E062
:101AA000B749896841F00101B54A916007E0B4493E
:101AB000896841F00301B24A916000E000BF00BFB5
:101AC000704738B50020009000BF2220FFF773FF59
:101AD00005460098401C00900098B0F5C06F01D2F8
:101AE000002DF2D02220FFF766FF08B1012400E0AC
:101AF0000024204638BDA349C96B21F00301A14A47
:101B0000D163012802D002280ED106E09D49C96B9D
:101B100041F001019B4AD16307E09A49C96B41F04A
:101B20000301984AD16300E000BF00BF704738B599
:101B30000020009000BF0D20FFF73DFF05460098F4
:101B4000401C00900098B0F5C06F01D2002DF2D07B
:101B50000D20FFF730FF08B1012400E000242046EB
:101B600038BD0146874AD06B20F07C5040EA0160C6
:101B7000D063704784491C390860704738B500202D
:101B8000009000BF1520FFF716FF05460098401C87
:101B900000900098B0F5C06F01D2002DF2D0152052
:101BA000FFF709FF08B1012400E00024204638BDFA
:101BB00010B50246724BD86820F003001043D8607D
:101BC000586820F4706040EA01205860704B1B6830
:101BD0001BB101236E4C241D236010BD6D490860AC
:101BE00070476B490860704738B50020009000BF0F
:101BF0002120FFF7E0FE05460098401C0090009869
:101C0000B0F5C06F01D2002DF2D02120FFF7D3FE36
:101C100008B1012400E00024204638BD0146584A9E
:101C2000D06820F0F0000843D060704710B502463D
:101C3000534B186920F0030010431861586820F0D6
:101C4000F00040EA01105860514B083B1B681BB183
:101C500001234F4C241F236010BD4E498031086082
:101C600070474B4908390860704738B5002000902C
:101C700000BF2020FFF79FFE05460098401C009003
:101C80000098B0F5C06F01D2002DF2D02020FFF7F0
:101C900092FE08B1012400E00024204638BD3D49F1
:101CA0009831086070473B498831086070470146A9
:101CB000334A506920F033000843506170470146B1
:101CC0002F4A506920F4706040EA0120506170474B
:101CD0003149086070470146294A906920F0F000B8
:101CE00040EA0110906170472B49703108607047DD
:101CF0000146234A906920F00F0008439061704725
:101D000025496C31086070472DE9F84FDFF880B045
:101D1000ABF1880BDBF884B1BBF1000F01D01F4998
:101D200000E01E49DFF868B0ABF1880BDBF880B14A
:101D3000BBF1000F00D049080A46DFF854B0ABF100
:101D4000880BDBF888B1BBF1000F09D0DFF830B0A9
:101D5000DBF804B0CBF3032B0BF1010902FB09F212
:101D6000DFF81CB0DBF80CB0CBF3012BBBF1000F9C
:101D700016D0BBF1010F18D0BBF1020F37D131E003
:101D80000000024000800D40D807B043100000085A
:101D90008800404288014042B402404200127A006A
:101DA000DFF878B1C0F800B026E0DFF874B1DBF8F6
:101DB0000CB04FF0080E0EEA1B1BBBF1000F01D157
:101DC00017460DE0DFF858B1DBF80CB0CBF3021B7F
:101DD0000BF1010B4FF0010E0EFA0BFEB2FBFEF7FA
:101DE000076009E04FF4004BC0F800B004E049F68A
:101DF000404BC0F800B000BF00BFDFF828B1DBF8EF
:101E000004B2BBF1000F01D0444B00E0434BDFF8BC
:101E100014B1DBF800B2BBF1000F00D05B081E4626
:101E2000DFF800B1DBF808B2BBF1000F09D0DFF832
:101E3000F0B0DBF804B0CBF3031B0BF1010906FB98
:101E400009F6B446DFF8DCB0DBF810B2BBF1000FE6
:101E500001D04FEA5C0CC0F804C0DFF8C4B0DBF876
:101E600018B0CBF3031B0BF1010BDFF8B0E0BEFBA6
:101E7000FBF8C0F80C80DFF8A8B0DBF818B00BF066
:101E80000F0B0BF1010BBEFBFBFBCDF800B0DDF837
:101E900000B0C0F810B0DFF888B0DBF814B00BF079
:101EA000030BBBF1000F06D0BBF1010F05D0BBF156
:101EB000020F06D103E00C4605E01C4603E0144681
:101EC00001E0344600BF00BFDFF854B0DBF814B0C7
:101ED000CBF3011BBBF1000F06D0BBF1010F06D005
:101EE000BBF1020F08D105E04FF4004506E049F6CA
:101EF000404503E0254601E0454600BF00BFDFF84E
:101F000020B0DBF814B0CBF3032B0BF1010BB5FBC6
:101F1000FBFAC0F808A0BDE8F88F000000127A00B4
:101F20000000024000004042704700BFFEE700BFD3
:101F3000FEE700BFFEE700BFFEE77047704770474F
:101F400070477047704770477047704770477047D9
:101F500070477047704738B50020FB494865FB481B
:101F6000006860BB0120F949086003460022114661
:101F70000090F74800F0FAFD00220821F54800F033
:101F800034FD00220921F44800F02FFD00220A212F
:101F9000F24800F02AFD00220B21F14800F025FD57
:101FA00000220C21EF4800F020FD00220D21EE4818
:101FB00000F01BFD00220E21EC4800F016FD00BFD2
:101FC000EB48512207210368EA4800F08EFD002803
:101FD000F6D0E7480068401CE549086008460068FC
:101FE000612801D100200860E348007801281BD156
:101FF0000321E24800F02DFD03220F21E04800F00C
:10200000F4FC0421DF4800F024FD04220F21DC4809
:1020100000F0EBFC0521D94800F01BFD05220F2143
:10202000D74800F0E2FC48E2D748007801281BD1ED
:102030000321D24800F00DFD03220F21D04800F00B
:10204000D4FC0421D14800F004FD04220F21CC4827
:1020500000F0CBFC0521C94800F0FBFC05220F2154
:10206000C74800F0C2FC28E2C948007801281BD10B
:102070000321C24800F0EDFC03220F21C04800F00C
:10208000B4FC0421C14800F0E4FC04220F21BC4848
:1020900000F0ABFC0521B94800F0DBFC05220F2164
:1020A000B74800F0A2FC08E2BA480078012841D104
:1020B0000321B94800F0CDFC03220F21B04800F005
:1020C00094FC0421B54800F0C4FC04220F21AC4864
:1020D00000F08BFCB248007801280CD1B1480068B0
:1020E00048B90521B04800F0B4FC05220F21A448EE
:1020F00000F07BFCE1E1AA48007801280CD1A94856
:10210000006848B10521A94800F0A3FC05220F2171
:102110009B4800F06AFCD0E1A14800780028A2D1D9
:102120000521964800F095FC05220F21944800F007
:102130005CFCC2E19E480078012841D10321964809
:1021400000F087FC03220F218D4800F04EFC042193
:10215000984800F07EFC04220F21894800F045FCDD
:102160009548007801280CD19448006848B90521A9
:102170008D4800F06EFC05220F21814800F035FCEF
:102180009BE18D48007801280CD18C48006848B14B
:102190000521864800F05DFC05220F21784800F0FB
:1021A00024FC8AE1844800780028A3D105217348E3
:1021B00000F04FFC05220F21714800F016FC7CE175
:1021C0007F480078012841D10321734800F041FC89
:1021D00003220F216A4800F008FC0421794800F02E
:1021E00038FC04220F21664800F0FFFB7648007897
:1021F00001280CD17548006848B905216A4800F0EB
:1022000028FC05220F215E4800F0EFFB55E16E48E7
:10221000007801280CD16D48006848B10521634859
:1022200000F017FC05220F21554800F0DEFB44E1C9
:10223000654800780028A3D10521504800F009FC2A
:1022400005220F214E4800F0D0FB36E160480078AF
:10225000012824D103215F4800F0FBFB04214748FB
:1022600000F0F7FB04220F21454800F0BEFB5A485E
:102270000078012809D10521584800F0EAFB052221
:102280000F213F4800F0B1FB17E105213B4800F06A
:10229000E0FB05220F213A4800F0A7FB0DE1504872
:1022A0000068C8BB00240CE04E490968102202FBFC
:1022B00001414D4A52F821000322214600F095FBCE
:1022C000641C102CF0DB00240DE046490968491C11
:1022D000102202FB0141444A52F821000422214607
:1022E00000F083FB641C102CEFDB00240DE03D4963
:1022F0000968891C102202FB01413B4A52F8210067
:102300000522214600F071FB641C102CEFDB032238
:102310000F21364800F069FB31480068012867D179
:1023200000240DE02F490968491E102202FB0141DB
:102330002D4A52F821000322214600F056FB641C6E
:10234000102CEFDB002461E00000074000000020BB
:102350005804002088020020700300208803002019
:10236000280300209803002048030020B003002029
:10237000780400207C040020220000204009002076
:10238000300400208007002023000020C007002028
:102390002400002025000020C008002000080020A4
:1023A000100000200C00002080090020C00900203F
:1023B0002600002040080020180000201400002003
:1023C0002700002080080020200000201C000020A2
:1023D000280000200009002021000020000A002021
:1023E0000800002004000020C00500205004002048
:1023F00025E037490968102202FB0141354A52F8AD
:1024000021000422214600F0F0FA641C102CF0DBBD
:1024100000240DE02E490968491C102202FB0141ED
:102420002C4A52F821000522214600F0DEFA641CF5
:10243000102CEFDB04220F21274800F0D6FA2748A2
:102440000068022839D100240DE021490968891E5D
:10245000102202FB01411F4A52F8210003222146AB
:1024600000F0C3FA641C102CEFDB00240DE01849C7
:102470000968491E102202FB0141164A52F8210048
:102480000422214600F0B1FA641C102CEFDB00247A
:102490000CE00F490968102202FB01410D4A52F875
:1024A00021000522214600F0A0FA641C102CF0DB6C
:1024B00005220F21084800F098FA38BD7047704790
:1024C0007047704770477047704770477047704754
:1024D00004000020C0050020500400200800002057
:1024E000FE49096801F47F41FC4A11601146096800
:1024F00001431160704700BF011EA0F10100FBD134
:10250000704770B50446F548406800F47F40F349D1
:102510004860012C04D11021F148FFF721FA03E0B3
:102520002021EF48FFF71CFA4FF40061EC48FFF759
:102530001BFA0421EB48FFF713FA0520FFF7DBFF36
:102540008021E848FFF70CFA0520FFF7D4FFE348A5
:102550000068C5B20520FFF7CEFF8021E148FFF7F4
:1025600003FA0520FFF7C7FF4FF40061DC48FFF7CF
:10257000FBF90421DB48FFF7F7F9012C04D1102106
:10258000D748FFF7F1F903E02021D548FFF7ECF930
:10259000284670BD10B50446012C04D11021D04846
:1025A000FFF7DEF903E02021CD48FFF7D9F94FF41A
:1025B0000061CB48FFF7D8F90421CA48FFF7D4F9E6
:1025C0000520FFF798FFC548406840F0FF00C34969
:1025D00048603F20FFF784FF0520FFF78CFF802134
:1025E000C048FFF7BDF90520FFF785FF8021BD48F2
:1025F000FFF7BAF90520FFF77EFF4FF40061B848F6
:10260000FFF7B2F90421B748FFF7AEF9B3484068C5
:1026100000F47F40B1494860012C04D11021B0483A
:10262000FFF7A2F903E02021AD48FFF79DF910BDA7
:1026300010B50446012C04D11021A948FFF790F9E8
:1026400003E02021A648FFF78BF94FF40061A4486E
:10265000FFF78AF90421A348FFF786F90520FFF761
:102660004AFF9E48406840F0FF009C4948603E2079
:10267000FFF736FF0520FFF73EFF80219948FFF75F
:102680006FF90520FFF737FF80219648FFF76CF9B7
:102690000520FFF730FF4FF400619148FFF764F920
:1026A00004219048FFF760F98C48406800F47F40AF
:1026B0008A494860012C04D110218948FFF754F958
:1026C00003E020218648FFF74FF910BD70B504469E
:1026D0000D46012C04D110218148FFF741F903E098
:1026E00020217F48FFF73CF94FF400617C48FFF759
:1026F0003BF904217B48FFF737F90520FFF7FBFE84
:102700007648406840F0FF007449486045F0B800E2
:10271000FFF7E6FE0520FFF7EEFE80217148FFF788
:102720001FF90520FFF7E7FE80216E48FFF71CF92F
:102730000520FFF7E0FE6948406800F47F406749E4
:1027400048604FF400616648FFF70EF904216548C0
:10275000FFF70AF9012C04D110216148FFF704F9B1
:1027600003E020215E48FFF7FFF870BD70B5044616
:102770000D46012C04D110215948FFF7F1F803E070
:1027800020215748FFF7ECF84FF400615448FFF759
:10279000EBF804215348FFF7E7F80520FFF7ABFEFD
:1027A0004E48406840F0FF004C49486045F040000A
:1027B000FFF796FE0520FFF79EFE80214948FFF7B0
:1027C000CFF80520FFF797FE80214648FFF7CCF8A9
:1027D0000520FFF790FE4148406800F47F403F49E4
:1027E00048604FF400613E48FFF7BEF804213D48C1
:1027F000FFF7BAF8012C04D110213948FFF7B4F8DB
:1028000003E020213648FFF7AFF870BD70B50446ED
:102810000D46012C04D110213148FFF7A1F803E047
:1028200020212F48FFF79CF84FF400612C48FFF758
:1028300097F804212B48FFF797F80520FFF75BFE78
:102840002648406840F0FF00244948602846FFF7CA
:1028500047FE0520FFF74FFE80212248FFF780F852
:102860000520FFF748FE80211E48FFF77DF8052070
:10287000FFF741FE1948406800F47F40174948605F
:102880004FF400611648FFF76FF804211548FFF771
:102890006BF8012C04D110211148FFF765F803E013
:1028A00020210F48FFF760F870BD70B50446012C79
:1028B00004D110210A48FFF753F803E0202108480B
:1028C000FFF74EF84FF400610548FFF749F804217F
:1028D0000448FFF745F8052006E0000000800A40A4
:1028E00000800C4000800B40FFF705FEC3484068A5
:1028F00000F47F40C14948602846FFF7F1FD0520FC
:10290000FFF7F9FD8021BE48FFF72AF80520FFF701
:10291000F2FDBA480068C5B20520FFF7ECFD802142
:10292000B748FFF721F80520FFF7E5FD4FF40061F8
:10293000B448FFF719F80421B148FFF715F8012C46
:1029400004D11021AF48FFF70FF803E02021AD4874
:10295000FFF70AF8284670BD70B54FF48061A948AA
:10296000FFF702F8C820FFF7C6FD4FF48061A548C5
:10297000FEF7F6FF00BF0120FFF7C3FD00F0900552
:102980000220FFF7BEFD00F090040DB1002CF2D143
:1029900070BD2DE9F04106460F4639463046FFF737
:1029A00095FE00213046FFF7E1FE00250DE000BF57
:1029B0003046FFF7A6FD044604F001000028F7D1D9
:1029C00000213046FFF722FF6D1C402DEFDBBDE8F4
:1029D000F08170B50546002404E0E1B22846FFF717
:1029E000D8FF641C082CF8DB70BD2DE9F05F814630
:1029F0000C4616462046E11704EB5171C9104D1CD8
:102A0000B2462046E11704EB5171C910A4EBC10195
:102A10004FEAC10B0AF0FF01E8B2FFF757FE0BF0D7
:102A2000FF01E8B2FFF7A2FE00270EE000BFE8B208
:102A3000FFF767FD804608F001000028F7D119F87C
:102A40000710E8B2FFF7E2FE7F1C082FEEDBBDE8BF
:102A5000F09F2DE9F0410746884608F0FF0101206C
:102A6000FFF734FE00210120FFF780FE002414E070
:102A700000250FE000BF0120FFF743FD064606F0EA
:102A800001000028F7D157F82400415D0120FFF72D
:102A9000BDFE6D1C082DEDDB641C082CE8DB08F086
:102AA000FF010220FFF712FE00210220FFF75EFE69
:102AB000002416E0002511E000BF0220FFF721FDF1
:102AC000064606F001000028F7D104F1080057F887
:102AD0002000415D0220FFF799FE6D1C082DEBDB05
:102AE000641C082CE6DBBDE8F0812DE9F04192B0D2
:102AF0000646884617461D460020009001900F2D7F
:102B000017DA00240EE028190F2803DA02A941F889
:102B100024D006E060190F3856F8200002A941F8C9
:102B20002400641C102CEEDB414602A8FFF791FF45
:102B300018E0002410E0A5F10F002044B84203DBA8
:102B400002A941F824D006E060190F3856F8200099
:102B500002A941F82400641C102CECDB414602A8B9
:102B6000FFF777FF012012B0BDE8F0812DE9FF4F9C
:102B700083B081468A46934600200090564637E04F
:102B80005C4631E02046E11704EB5171C9104D1C41
:102B90000296E11704EB5171C910A4EBC101CA0000
:102BA0000192029EF1B2E8B2FFF790FD019AD1B214
:102BB000E8B2FFF7DBFD002710E000BFE8B2FFF747
:102BC000A0FC804608F001000028F7D1009A3A44A2
:102BD00019F80210E8B2FFF719FE7F1C082FECDB92
:102BE000009808300090641C10988442CADD761C5E
:102BF00006988642C4DD07B0BDE8F08F00800A4029
:102C000000800B4000800C4030B54FF0FF342B4D5E
:102C10006C602B4D6C604FF0AA342A4D2C60640818
:102C2000294D2C604FF0A034264D2C60016000230C
:102C300000E05B1CB3F57A7FFBDB00241F4D6C606A
:102C40001F4D6C6000BF026802F080354FF0803489
:102C50008C43A542F7D030BD01460020174A506092
:102C6000174A5060086870474FF0FF31134A5160AF
:102C7000134A51604FF0AA31124A11604908124AB2
:102C800011604FF080310F4A11604FF0AA3111608E
:102C900049080D4A11604FF010310A4A11600021B5
:102CA000064A5160064A516000BF4FF080510868E3
:102CB00000F08031B1F1803FF7D1704700800A40C9
:102CC00000000B4054150010A80A00107047704710
:102CD0007047754600F02CF8AE460500694653462D
:102CE00020F00700854618B020B5FEF767FCBDE868
:102CF00020404FF000064FF000074FF000084FF063
:102D0000000B21F00701AC46ACE8C009ACE8C009F3
:102D1000ACE8C009ACE8C0098D46704710B5044660
:102D2000AFF300802046BDE81040FDF734BA000044
:102D300000487047780A002001491820ABBEFEE722
:102D40002600020070470000682D000800000020E7
:102D50005C0A0000FC0000083C3200085C0A00200D
:102D60007C06000060010008022A00014046127A39
:102D7000003E7F71594D7F3E0040427F7F404000C2
:102D800000627359496F660000226349497F36002B
:102D900000181C16537F7F5000276745457D39007A
:102DA000003C7E4B4979300000030371790F070026
:102DB00000367F284013064F49693F1E00007C7E85
:102DC00013137E7C0000417F1920081C3E634141A3
:102DD000632210300541633E1C1830045D416320BE
:102DE00030041D010320300C517372007F7F0808EE
:102DF0007F7F00391241072008307040417F3F013A
:102E00000F3004081C773010054140607028100412
:102E10000E1C0E2910067F7F060C180821406158F1
:102E2000300B090F06001E3F21717F5E47100C0911
:102E3000197F6600266F4D597332B021411013037C
:102E400000003F7F60607F3F00001F3F60603F1FCA
:102E50000050100430183050100E63673C183C6767
:102E60006300074F78784FD817476318100B6773C4
:102E700000207454543C784088100D3F4848783006
:102E800000387C44446C28A010077848493F7F40B4
:102E900010301654545C180000487E7F490302002D
:102EA000004C5E52527C3E02B8400A047C7800001E
:102EB000447D7D40D03004407D3DDF300510386CCE
:102EC00044E8211810067C7C18381C2830047C7CCF
:102ED000042F2160137C3837141E787C54141C088E
:102EE00000081C1454787C4000447C784C041C1866
:102EF00000485C54547424BC1005043E7F44081000
:102F0000053C7C4040042008001C3C60603C1C10D8
:102F1000300A7038707C3C00446C386810054C5C9A
:102F200050500FD408004C64745C4C64A077793323
:102F3000A8251F740C01030300787E3733377E7891
:102F4000A81812447C7D5454456C0063147F7F1490
:102F50006300006318126B302538360C8823301B51
:102F60000865A82405607F1F03C285A845D865A809
:102F700010047F7F03207600B0692065A025887447
:102F80000C0C0703001E527F7F521E0098240D3F39
:102F90003F20203F3F60000F1F18583A10047F7FEA
:102FA000600210047F003F161220183404017F7F56
:102FB000A0310743007F0819A83236B038053E001B
:102FC0007F0829200600667F1909A065D8140730FC
:102FD0007C4A4A7A31A7167CC9322808740D440C01
:102FE00008000060383434386000E0163807165D99
:102FF000E8140644287C7C28BF10062E4454547CD8
:103000003018067C7C20107CF020057C7C21110887
:1030100011403578140640780C047CB83406787C6E
:10302000081008E032102865E035F0867CE8695821
:10303000220881118065B813085499111065D010C9
:10304000063C3C203C3C9820041C10505F100400BF
:103050007C40021D37031117222018100A443C50EF
:1030600050702000004008300420007C0811091333
:103070000028B0195712009E1B44446020054028C8
:103080001414908D0D041260561C080000327B4908
:10309000497B30031006327A48487A081006081C2B
:1030A0003E7F1C0122FE0130077E1E06061E7E0B9F
:1030B0002C107F5F47417C7870606070787C41475E
:1030C0005FBA03100B0098020020C00300208804A0
:1030D00012280812480C12A00412E80812981410C2
:1030E0000608040020781812300852801C12902024
:1030F00052A8344350031852C024211C5270145259
:10310000B03061385298286118928844612C523846
:103110006C11EF1E205B031320700415D3132030B5
:10312000A843480214211C43B802244338049C12CB
:1031300060101220CC21D0218822A02C510421988B
:103140004388029861E85298EC2178614483000238
:1031500004215813B001D0110412A808125008120B
:10316000B81012680843D80120210843F001B001CB
:10317000120412D8A812A0041298C0021910280133
:10318000160412208012803C12083C022918404389
:1031900090003887E8004C1D2706000434205800B2
:1031A000403138610401258447A800005280FC07A3
:1031B00030B80000560800022DE03C257452187407
:1031C00056A04083E800180512AC29502988AAB8F7
:1031D000CC150492F0805EA81C0329C04FE8013092
:1031E00003011E40A548011A4005BE40051A082DDE
:1031F0007C035EA070036EC88403011D348F6802D7
:10320000A4036D50045E2840040E11A03004014E4A
:10321000042D40046DA8045EF0A4040221886C52C1
:1032200090CC69300132443D000555349EC01805EC
:0C3230000A15A0300D1ADC04000000009C
:04000005080000C12E
:00000001FF
