:020000040000FA
:1000000018060020910200009502000097020000EF
:1000100000000000000000000000000000000000E0
:100020000000000000000000000000009902000035
:1000300000000000000000009B0200009D02000084
:10004000C5020000C702000079140000C9020000C8
:10005000CB0200009F020000A1020000A3020000EA
:10006000A5020000CD020000CF020000AB0200009C
:10007000AD020000B5020000AF020000B1020000B6
:10008000B3020000B7020000D9020000A90200007C
:10009000A7020000D1020000D3020000D502000038
:1000A000D7020000DB020000DB020000BB02000000
:1000B000BD020000BF020000C1020000C302000038
:1000C00000F002F800F040F80CA030C808382418FE
:1000D0002D18A246671EAB4654465D46AC4201D180
:1000E00000F032F87E460F3E0FCCB6460126334272
:1000F00000D0FB1AA246AB46334318473C18000019
:100100005C180000103A02D378C878C1FAD85207B8
:1001100001D330C830C101D504680C6070470000BD
:100120000023002400250026103A01D378C1FBD813
:10013000520700D330C100D50B6070471FB5C046D1
:10014000C0461FBD10B510BD01F0B6FB1146FFF74C
:10015000F5FF00F059F801F0CEFB03B4FFF7F2FF12
:1001600003BC01F0D3FB000010B50121042000F016
:10017000C3F802203F4908600520486010203E492E
:10018000886020204860102008603A4801F0E8F8B4
:100190001F2000F0E7FC01F009F900BF0220012157
:1001A000814040098000354A8018016000BF01F09D
:1001B00004FA10BD10B5012000F029F900BF00F0CD
:1001C00042F90128FBD10321084600F0B4F90120CF
:1001D00000F0DDF900BF00F0E1F90128FBD10020BB
:1001E00000F0F4F9012000F0CBF9FF20013000F01D
:1001F00091F810BDE12040022149086000200871FB
:1002000048710820887170470020C0431D49C861AB
:10021000FFF7F0FF012211461B4801F06DF90020A5
:100220001A490860FFF7C6FFFFF79EFF00BFFEE711
:1002300070B504460D462946204601F0AAF9064647
:10024000002070BD0246002A01D0022070470C4BEE
:1002500009CB4B6008600020F8E710B50246002A81
:1002600001D0022010BD06484C680B6818C0002061
:10027000F8E70000000000208800002000E100E016
:10028000080000200000024094000020008001408F
:1002900015480047FEE7FEE7FEE7FEE7FEE7FEE75C
:1002A000FEE7FEE7FEE7FEE7FEE7FEE7FEE7FEE726
:1002B000FEE7FEE7FEE7FEE7FEE7FEE7FEE7FEE716
:1002C000FEE7FEE7FEE7FEE7FEE7FEE7FEE7FEE706
:1002D000FEE7FEE7FEE7FEE7FEE70000034804490D
:1002E000024A044B70470000C100000018020020C1
:1002F0001806002018020020002905D0F84AD2690B
:100300000243F74BDA6104E0F54AD2698243F44BC9
:10031000DA6170470146F24AD06803231B020246A5
:100320009A43104602460A431046ED4AD060704791
:1003300010B50146E0230B40202B02D1E84B1A6890
:1003400001E0E84BDA6BCC06E40E0123A340134234
:1003500001D0012000E0002010BD70B5002600BFD4
:100360001720FFF7E5FF0546761C03204002864272
:1003700001D2002DF4D01720FFF7DAFF002801D0BA
:10038000012400E00024204670BDD7494901212204
:10039000520689188865704700B50120FFF7F5FF00
:1003A000FFF7DBFF0020FFF7B5FFCD48C068002056
:1003B000CB49C8600846406800204860084680680D
:1003C00000208860084600690020086108464069EE
:1003D000002048610846806900208861C348C861E0
:1003E00000BD00B5FFF7D8FF0121C806FFF784FF65
:1003F000BC48C06B8121C9030843BA49C863084699
:10040000C06B8121C9030840B649C86300BDB44927
:10041000896889088900B24A9160012802D00228BF
:100420000ED106E0AE49896801221143AC4A9160C1
:1004300007E0AB49896803221143A94A916000E0B3
:1004400000BF00BF704770B5002600BF2220FFF735
:100450006FFF0546761C03204002864201D2002D24
:10046000F4D02220FFF764FF002801D0012400E02F
:100470000024204670BD9B49C96B89088900994AB0
:10048000D163012802D002280ED106E09549C96B3C
:1004900001221143934AD16307E09249C96B0322B9
:1004A0001143904AD16300E000BF00BF704770B5B0
:1004B000002600BF0D20FFF73BFF0546761C0320FA
:1004C0004002864201D2002DF4D00D20FFF730FF0C
:1004D000002801D0012400E00024204670BD014620
:1004E000804AD06B3F231B0602469A4310460A06F9
:1004F00010437C4AD06370477B4949012122520650
:100500008918C863704770B5002600BF1520FFF733
:100510000FFF0546761C03204002864201D2002DC3
:10052000F4D01520FFF704FF002801D0012400E0DB
:100530000024204670BD30B50246694BD86880085B
:100540008000034613431846654BD86058680F2453
:1005500024020346A34318460B021843604B58601D
:10056000634B5B01212464061B199B68002B06D09A
:1005700001245F4B5B0121256D065B19DC6030BDFA
:100580005749C96804221143554AD16070475449FC
:10059000496804221143524A5160704770B50026E1
:1005A00000BF2120FFF7C4FE0546761C0320400251
:1005B000864201D2002DF4D02120FFF7B9FE002899
:1005C00001D0012400E00024204670BD0146444AC9
:1005D000D068F02302469A43104602460A4310466A
:1005E0003F4AD060704730B502463D4B18698008DD
:1005F0008000034613431846394B18615868F024AD
:100600000346A34318460B011843354B5860384B3B
:100610005B01212464061B191B68002B06D00124F2
:10062000334B5B0121256D065B195C6030BD3049A1
:100630000C314901212252068918886070472C49E3
:1006400049012122520689180860704770B50026BA
:1006500000BF2020FFF76CFE0546761C03204002F9
:10066000864201D2002DF4D02020FFF761FE002841
:1006700001D0012400E00024204670BD1C490C314B
:1006800049012122520689180862704718490C3125
:100690004901212252068918086170470146104A13
:1006A0005069332302469A43104602460A431046D5
:1006B0000B4A506170470146094A50690F231B02DB
:1006C00002469A4310460A021043054A5061704799
:1006D00007491031490121225206891848637047A1
:1006E0000000024000800D403C800D00100000081A
:1006F000040002000146824A9069F02302469A43B0
:1007000010460A0110437E4A906170477D494901B5
:10071000212252068918486270470146784A90693A
:100720000009000102460A431046754A906170476D
:100730007449490121225206891808627047F0B5B0
:1007400089B004466F480C38400121214906401801
:100750004068002801D06C4D00E06B4D69480C38B2
:1007600040012121490640180068002800D06D088A
:100770002E4664480C384001212149064018806803
:10078000002807D05E4840680005000F401C00901C
:10079000009846435A48C0688005800F04D001285D
:1007A00005D002281ED119E0574820601DE05448AA
:1007B000C06800090821084201D108960BE05048A2
:1007C000C0684006400F401C01228240114630465E
:1007D00000F0C2FF08900898206006E00120C003E6
:1007E000206002E04948206000BF00BF454808384B
:1007F00040012121490640184068002801D0424F9D
:1008000000E0414F3F480838400121214906401887
:100810000068002800D07F0807973A480838400150
:100820002121490640188068002809D034484068D2
:100830000006000F401C009000990798484307905D
:10084000079806902F480838400121214906401892
:100850000069002802D0069840080690069860605B
:10086000274880690006000F411C274800F074FFEC
:1008700002900298E060224880690007000F411C46
:10088000214800F069FF0190019820611C484069EF
:100890008007800F04D0012804D0022806D103E08D
:1008A000059506E0059704E0059602E00798059097
:1008B00000BF00BF124840698006800F04D00128A5
:1008C00006D002280AD106E00120C003049008E007
:1008D0000E48049005E00598049002E00298049008
:1008E00000BF00BF064840690005000F411C049886
:1008F00000F032FF03900398A06009B0F0BD000043
:10090000000002401800020000127A00409C000023
:100910000146C04A1069921510430A681043042228
:100920001043BC4A10615068012210434A6812010A
:100930001043B84A506000BFB64A1268D207D20FBF
:10094000012AF9D1704700BFB34A116882B211433E
:10095000030C0A469A431146AF4A116000BF704724
:1009600010B50220FFF7EFFF002400E0641C7D209B
:10097000C0008442FAD301204004FFF7E4FF10BD19
:10098000A5480068704708B5A34841680807000FEC
:100990006A461070F020084000095070009808BDA9
:1009A0009E480068704700BF9C4A116882B211439C
:1009B000030C0A469A431146984A116000BF7047DB
:1009C00096484068704795494860704793488068EA
:1009D000704700BF914A916882B21143030C0A46E6
:1009E0009A4311468D4A916000BF70478B48C0689A
:1009F000704700BF894AD16882B21143030C0A468E
:100A00009A431146854AD16000BF70478348006908
:100A100070478249086170478048406970477F4944
:100A2000486170477D48C06970477C48006A7047DC
:100A300000BF7A4A116A82B21143030C0A469A43F4
:100A40001146764A116200BF70477448406A704789
:100A500000BF724A516A82B21143030C0A469A439C
:100A600011466E4A516200BF70476C48806A7047F9
:100A70006A48C06A70476948006B70476748406BB6
:100A800070476648806B70476448C06B7047634826
:100A900080300068704761488030C06870475F48A8
:100AA0008030006970475D498031086170475B485C
:100AB000C030006870475949C031086070475748D6
:100AC000C030006970475549C03108617047014620
:100AD00053480A018058704710B500BF0301504CBD
:100AE0001B191A688BB21A430C0C1346A3431A46FF
:100AF0004B4B04011A5100BF10BD014648480A0182
:100B0000801840687047014645480A01801880688F
:100B10007047014642480A018018C0687047404843
:100B200040300068704700BF3D4A4032116882B2D1
:100B30001143030C0A469A431146394A4032116068
:100B400000BF7047364840304068704734484030F6
:100B50008068704732494031886070473048403083
:100B6000C068704700BF2E4A4032D16882B211433C
:100B7000030C0A469A431146294A4032D16000BF0D
:100B80007047274840300069704725494031086167
:100B900070472348403080697047014620488030C4
:100BA000CA018058704701461D488030CA0180182C
:100BB000C068704701461A488030CA018018006931
:100BC0007047174A8032C301D2181161704701463D
:100BD00013488030CA018018006C7047104A803278
:100BE000C301D2181164704701460D488030CA0114
:100BF0008018006D70470A4A8032C301D21811650F
:100C00007047074A0301D15804225140044A0301A6
:100C1000D1507047000002408003014000000140B5
:100C200000010140F8B505460F4616462C206843E2
:100C3000F9494418002060600021A1602161E16051
:100C40006161E06120626062A6626070207020765F
:100C500039462846FFF740FF0020F8BD70B504462E
:100C60002C206043EC494518002028702876EB4979
:100C70002046FFF731FF002070BD70B504460D46D9
:100C80002C206043E44946180220054202D01F2070
:100C9000FFF760FF0020307629462046FFF71CFF53
:100CA00070BD70B505462C206843DB494418012609
:100CB000F604607E002802D1A07E002804D0012026
:100CC00020700220064301E00020207000206070A8
:100CD00031462846FFF7D1FF002070BDF8B5054624
:100CE0000C462C206843CC4946180027012C03D120
:100CF000002D01D10120F8BD012C02D0B07E0028CA
:100D000003D07470052030700A2739462846FFF753
:100D1000B4FF0020EFE7F8B506460F462C207043DD
:100D2000BD49441801213046FFF765FF002F04D06C
:100D3000012F03D0022F0AD104E008E03046FFF76C
:100D400060FF04E004213046FFF7C6FE00BF00BF8D
:100D5000E16820690918A068814203D2E16820692E
:100D6000081800E0A0680090E56805E06068415D53
:100D70003046FFF733FF6D1C00988542F6D3022101
:100D80003046FFF77AFFF8BDFFB581B005460E4645
:100D900017462C206843A0494418A07E002801D0A3
:100DA000022000E00120C0B200906660A760202110
:100DB00021610021E1600498E06102202070284652
:100DC0000099FFF7A8FF002005B0F0BDFFB581B086
:100DD00005460E4617462C2068438F494418666026
:100DE000A76000212161E160049820620120607603
:100DF0002846FFF756FF002005B0F0BDF8B50646BF
:100E00000F4615462C207043834944186761002122
:100E1000A1602161E1606562002D01D0012000E048
:100E20000020A0763046FFF73CFF0020F8BDF3B568
:100E300085B00020049000270598FFF75EFE039020
:100E40000598FFF760FE8007800F02900598FFF776
:100E50003EFE01902C21059848436F49441806989E
:100E6000C007C00F01D00120207600BF237800F01A
:100E700054FD0604072C81C6F32B002007B0F0BDFB
:100E80000221019808421FD1207E00281CD0029820
:100E9000022809D1607E002806D00320207000209F
:100EA0006076012004900FE00298002807D1A07E10
:100EB000002804D0042020700120049004E00127C1
:100EC00000210598FFF70AFFE8E002210198084297
:100ED0002FD1207E00282CD00298012829D1402132
:100EE0000398084225D0E16820690918E160E168AB
:100EF000A068814218D300202070E069002805D046
:100F0000E369A2686168059898470746002F06D1F3
:100F1000207800282DD10598FFF7C3FE29E0002195
:100F20000598FFF7DBFE24E001210598FFF7F3FEAB
:100F30001FE003980007000F1BD000202070A06A5C
:100F4000002806D0A66A019B029A03990598B0472B
:100F50000746002F09D1207800280AD102202070EE
:100F600000210598FFF7D7FE03E000210598FFF761
:100F7000B5FE93E00221019808423FD1207E00286F
:100F80003CD0002004900598FFF70DFE009000254E
:100F900008E00598FFF701FEC1B2E06840196268F9
:100FA00011546D1C00988542F3D301210598FFF779
:100FB00008FEE16800980918E160E168A0688142D4
:100FC00018D300202070206A002805D0236AE26828
:100FD0006168059898470746002F06D120780028B9
:100FE0000CD10598FFF75DFE08E000210598FFF79A
:100FF00075FE03E002210598FFF73FFE4EE0207EDC
:10100000002838D00598FFF7CEFD009000980828FA
:1010100028D100250BE00000F8000020010012009C
:101020000598FFF7BAFDC1B2606941556D1C009883
:101030008542F5D301210598FFF7C3FD626A616916
:10104000059890470746002F07D12078042812D131
:101050000598FFF726FE0EE010E000210598FFF747
:101060003DFE08E001210598FFF7ABFD01270021B7
:101070000598FFF733FE002004900FE0022101984D
:1010800008420AD16078012804D101210598FFF7B0
:1010900025FE02E00598FFF704FE00BF00BF04989C
:1010A000002800D0E2E63846E8E670B504460D4672
:1010B0001646F8494868FFF768FDF648406800287A
:1010C00001D0042000E00320F2490870002070BD28
:1010D00070B504460D461646022C06D1002D04D1EB
:1010E000F0B20121FFF7FAFD70BD0120FCE770B5F9
:1010F00004460D461646022C05D1002D03D1F0B250
:10110000FFF7CFFD70BD0120FCE7F3B585B00C46BD
:1011100000200290207860210840049020788021EF
:10112000084003900498002804D0202874D0402858
:1011300073D10BE1002000906788A688E0880190B9
:101140002078C506ED0E032D02DD0220029003E19A
:10115000637800F0E2FB0D0840D854D86A71787BC0
:101160008EA2B3C4D8000398802809D1C94800785A
:10117000042808D1012D03D0022D04D1042E02DB56
:101180000120029026E0002002900298002821D140
:10119000002D04D0012D07D0022D11D108E0BD484B
:1011A0004078BD4908700BE00020BB49087007E09B
:1011B0002C207043B94940184078B749087000BFE7
:1011C00000BF0020B4494870002302220598FFF7B1
:1011D000DBFD02909AE0AF480078042808D1012D89
:1011E00003D0022D04D1042E02DB0120029005E081
:1011F000324639462846FFF77AFF029086E0A54836
:10120000007804280AD1012D03D0022D06D1042E26
:1012100004DB0120029007E094E09AE03246394670
:101220002846FFF755FF029070E000200290994891
:1012300047609B48009069E031463846019A00F0CB
:10124000DFF9029062E0012002905FE091480078AF
:10125000042803D100209049087002E001208E4943
:101260000870002301228C490598FFF78DFD02903C
:101270004CE0002F03D10420864908700CE0012FB8
:1012800001D0012000E0002080B2029002980028E6
:1012900002D105207F49087038E07E480078042894
:1012A00002D10120029008E000207B490870002351
:1012B00001220598FFF768FD029027E07548007845
:1012C000042802D10120029008E0002E01D1002F55
:1012D00001D0012000E0002080B2029016E06D48AD
:1012E0000078042802D1012002900BE00120029036
:1012F0000298002806D10023022267490598FFF7CB
:1013000043FD029002E00220029000BF00BF02985D
:10131000002816D10198002813D120788021084098
:10132000802806D100221146009B0598FFF74EFD4C
:1013300005E000221146009B0598FFF725FD80B2CD
:10134000029009E000F0A4F9029005E0012002906B
:1013500002E00220029000BF00BF029807B0F0BD7B
:1013600070B505460C462846FFF7D2FAFFF7F8FAA3
:1013700001200004FFF7E7FA2068FFF7E4FAA2680B
:1013800061681143012211430846FFF7CCFB00229C
:1013900005211046FFF746FC424A43490020FFF76B
:1013A0002DFD00203B490870486070BD10B50C2031
:1013B000FFF7C9FA022037490870002010BD10B5A8
:1013C0000120C004FFF7BFFA00203249087010BDA9
:1013D00000203649086103202E490870002070471C
:1013E000002070470020704703460020704770B50A
:1013F00004460D46164600231A4619462046FFF7B6
:10140000E5FC70BD70B5002600BF022101208840B8
:101410002749022252099200885000BF25480068DF
:10142000002827D1012023490860FFF78FFB0446DD
:101430000420044202D0FFF7CBFF0646002504E05B
:10144000E8B22146FFF7F3FC6D1C042DF8D36008C9
:101450004000FFF77FFB00201649086000BF022014
:101460000121814040098000114A803A80180160C2
:1014700000BF00BF304670BD10B5FFF7C3FF10BD01
:1014800002460020704701460020704703460120B5
:10149000704700001C00002024000020F8000020FD
:1014A000AB1000000B1100001400002040010140AF
:1014B00080E100E010000020034601207047012079
:1014C00070470146012070470146002070470246E0
:1014D000002070470246012070470120704701201C
:1014E000704710B50446012010BD00000246914827
:1014F000026041600020704730B504460D46134637
:1015000029462046FFF7F2FF00208A490881002B78
:1015100000D001E00120400286494881002030BD12
:10152000F8B507460C46154629462046FEF780FECC
:101530000646002E03D0012040027E4948817D48A6
:101540004089002807D17B4842687B4B0168032013
:10155000FFF73CFCF8BD0020FCE710B50020754902
:10156000488108464268744B01680320FFF72EFC4F
:1015700010BD10B5012040026E49488100210320B2
:10158000FFF7ACFB10BD10B503460020694C20816D
:1015900010BD70B504460E4666480589002D0AD177
:1015A0000120400263490881644B324621460120F4
:1015B000FFF7EAFB0546284670BD10B5FFF708FFA8
:1015C0000446002C1AD1002205210120FFF72AFB36
:1015D000002205210220FFF725FB00220121032024
:1015E000FFF720FB53484089002807D15148426843
:1015F000514B01680320FFF7E9FB0446204610BD6C
:10160000F8B5054616460020009000272806000E73
:1016100001D0012710E02812012802D0022808D1A9
:1016200003E047480090122405E046480090432418
:1016300001E0012700BF00BF002F09D1B44200D94B
:101640003446414B224600200099FFF79DFB074698
:101650003846F8BDF8B505460E4617463B48407873
:10166000202806D1394988883146FEF7F6FD044620
:1016700001E0022400BF00BF002C06D100231A465F
:1016800019462846FFF780FB00E0204680B2F8BDEF
:10169000F8B500252D4847888688C48840782028DA
:1016A00002D021281ED10BE0072C07D1284B22465F
:1016B00028490020FFF78AFB054600E0022513E0D9
:1016C000072C0DD123493046FEF7BCFD0546002D01
:1016D00007D11D4B22461F49FFF756FB054600E088
:1016E000022501E0012500BF00BF002D15D1002C0F
:1016F00013D11648007880210840802806D10023A5
:101700001A4619461846FFF761FB05E000231A4602
:1017100019461846FFF738FB85B22846F8BD024641
:1017200001207047012070470246012070470246A1
:1017300001207047A8010020211500008715000036
:10174000280000203A000020EF13000014000020C1
:101750005516000080000020002203098B422CD384
:10176000030A8B4211D300239C464EE003460B43F1
:101770003CD4002243088B4231D303098B421CD353
:10178000030A8B4201D394463FE0C3098B4201D345
:10179000CB01C01A524183098B4201D38B01C01A7D
:1017A000524143098B4201D34B01C01A52410309F4
:1017B0008B4201D30B01C01A5241C3088B4201D3A3
:1017C000CB00C01A524183088B4201D38B00C01A50
:1017D000524143088B4201D34B00C01A5241411A77
:1017E00000D201465241104670475DE0CA0F00D05A
:1017F0004942031000D34042534000229C46030953
:101800008B422DD3030A8B4212D3FC22890112BAD8
:10181000030A8B420CD3890192118B4208D38901B0
:1018200092118B4204D389013AD0921100E08909C8
:10183000C3098B4201D3CB01C01A524183098B42A9
:1018400001D38B01C01A524143098B4201D34B0192
:10185000C01A524103098B4201D30B01C01A5241F5
:10186000C3088B4201D3CB00C01A524183088B427C
:1018700001D38B00C01A5241D9D243088B4201D305
:101880004B00C01A5241411A00D2014663465241F0
:101890005B10104601D34042002B00D549427047EF
:1018A00063465B1000D3404201B50020C046C046ED
:1018B00002BD704770477047754600F023F8AE468A
:1018C000050069465346C008C000854618B020B5DB
:1018D000FEF704FD60BC00274908B6460026C0C5D7
:1018E000C0C5C0C5C0C5C0C5C0C5C0C5C0C5403DD8
:1018F00049008D4670470446C046C0462046FEF764
:101900002CFC000000487047B40100200149182059
:10191000ABBEFEE726000200704730B47446641E7A
:101920002578641CAB4204D3635D5B00E31830BCD4
:1019300018471D46F8E70000581900000000002075
:101940008800000004010000E01900008800002069
:1019500090050000200100000000000000000000D1
:101960000000000000000000000000000000000077
:101970000000000000000000000000000000000067
:101980001201100102000020830425F10000000074
:10199000000109024300020100C0320904000001F5
:1019A00002020100052400100105240100010424A5
:1019B000020605240600010705820320000209042F
:1019C0000100020A0000000705810220000007054F
:1019D00003022000000000000000000000000000E2
:04000005000000C136
:00000001FF
