:020000040800F2
:10000000180600207D020008810200088302000813
:1000100000000000000000000000000000000000E0
:100020000000000000000000000000008502000841
:10003000000000000000000087020008890200089C
:10004000B1020008B3020008E9130008B502000875
:10005000B70200088B0200088D0200088F0200081A
:1000600091020008B9020008BB02000897020008CC
:1000700099020008A10200089B0200089D020008E6
:100080009F020008A3020008C502000895020008AC
:1000900093020008BD020008BF020008C102000868
:1000A000C3020008C7020008C7020008A702000830
:1000B000A9020008AB020008AD020008AF02000868
:1000C00000F002F800F03AF80AA090E8000C824430
:1000D0008344AAF10107DA4501D100F02FF8AFF20D
:1000E000090EBAE80F0013F0010F18BFFB1A43F016
:1000F000010318474416000064160000103A24BF9C
:1001000078C878C1FAD8520724BF30C830C144BF7C
:1001100004680C60704700000023002400250026BE
:10012000103A28BF78C1FBD8520728BF30C148BF5A
:100130000B6070471FB51FBD10B510BD01F0C1FAAF
:100140001146FFF7F7FF00F059F801F0DFFA03B4AA
:10015000FFF7F2FF03BC01F0E7FA000010B5012140
:10016000042000F0BFF802203E49086005204860E6
:1001700010203D49886020204860102008603948E0
:1001800001F0AAF81F2000F0A3FC01F0CBF8022038
:10019000012181404209920002F1E022C2F80011DF
:1001A00000BF01F0BCF910BD10B5012000F019F935
:1001B00000BF00F032F90128FBD10321084600F00E
:1001C000A3F9012000F0BDF900BF00F0C1F901283A
:1001D000FBD1002000F0D6F9012000F0ABF94FF47C
:1001E000807000F08CF810BD4FF4E1301F490860BA
:1001F0000020087148710820887170474FF0FF3067
:100200001B49C861FFF7F0FF01221146194801F0B0
:1002100027F9002018490860FFF7C6FFFFF79EFF87
:1002200000BFFEE770B504460D462946204601F0A2
:1002300063F90646002070BD02460AB102207047ED
:100240000A4B09CBC1E900030020F8E710B50246CC
:100250000AB1022010BD0548D1E9003418C00020C1
:10026000F8E70000000000208800002008000020BF
:100270000000024094000020008001401548004723
:10028000FEE7FEE7FEE7FEE7FEE7FEE7FEE7FEE746
:10029000FEE7FEE7FEE7FEE7FEE7FEE7FEE7FEE736
:1002A000FEE7FEE7FEE7FEE7FEE7FEE7FEE7FEE726
:1002B000FEE7FEE7FEE7FEE7FEE7FEE7FEE7FEE716
:1002C000FEE7FEE7FEE7000003480449024A044B4C
:1002D00070470000C1000008180200201806002026
:1002E0001802002029B1FE4AD2690243FC4BDA61B0
:1002F00004E0FB4AD2698243F94BDA617047014658
:10030000F74AD06820F440700843D060704710B5B9
:10031000014601F0E003202B02D1F14B1A6801E005
:10032000F04BDA6B01F01F040123A34013400BB123
:10033000012000E0002010BD38B50020009000BF73
:100340001720FFF7E4FF05460098401C0090009836
:10035000B0F5C06F01D2002DF2D01720FFF7D7FF04
:1003600008B1012400E00024204638BDDE490860C1
:10037000704700B50120FFF7F9FFFFF7DDFF002010
:10038000FFF7BDFFD648C0680020D549C8600846C1
:100390004068002048600846806800208860084661
:1003A000006900200861084640690020486108464D
:1003B000806900208861CD48C86100BD00B5FFF7A5
:1003C000D8FF0121C806FFF78DFFC648C06B40F477
:1003D0008100C449C8630846C06B00F48100C8634B
:1003E00000BDBF49896821F00301BD4A9160012821
:1003F00002D002280ED106E0B949896841F0010116
:10040000B74A916007E0B649896841F00301B44AF0
:10041000916000E000BF00BF704738B50020009039
:1004200000BF2220FFF773FF05460098401C009094
:100430000098B0F5C06F01D2002DF2D02220FFF756
:1004400066FF08B1012400E00024204638BDA5491C
:10045000C96B21F00301A34AD163012802D002280D
:100460000ED106E09F49C96B41F001019D4AD1635D
:1004700007E09C49C96B41F003019A4AD16300E04F
:1004800000BF00BF704738B50020009000BF0D20AE
:10049000FFF73DFF05460098401C00900098B0F51E
:1004A000C06F01D2002DF2D00D20FFF730FF08B150
:1004B000012400E00024204638BD0146894AD06B63
:1004C00020F07C5040EA0160D063704786491C39B7
:1004D0000860704738B50020009000BF1520FFF776
:1004E00016FF05460098401C00900098B0F5C06FBC
:1004F00001D2002DF2D01520FFF709FF08B1012429
:1005000000E00024204638BD10B50246744BD86880
:1005100020F003001043D860586820F4706040EA6F
:1005200001205860724B1B681BB10123704C241DC5
:10053000236010BD6A49C96841F00401684AD1606E
:1005400070476749496841F00401654A5160704746
:1005500038B50020009000BF2120FFF7D8FE0546E7
:100560000098401C00900098B0F5C06F01D2002D9B
:10057000F2D02120FFF7CBFE08B1012400E00024D7
:10058000204638BD0146564AD06820F0F0000843A6
:10059000D060704710B50246514B186920F0030037
:1005A00010431861586820F0F00040EA01105860CC
:1005B0004F4B083B1B681BB101234D4C241F23608C
:1005C00010BD4C49086070474949083908607047B8
:1005D00038B50020009000BF2020FFF798FE0546A8
:1005E0000098401C00900098B0F5C06F01D2002D1B
:1005F000F2D02020FFF78BFE08B1012400E0002498
:10060000204638BD3B4918310860704739490831E8
:10061000086070470146324A506920F033000843B1
:100620005061704701462E4A506920F4706040EADC
:100630000120506170472F49AC3108607047014676
:10064000274A906920F0F00040EA0110906170475D
:100650002949086070470146214A906920F00F003F
:100660000843906170472449091F086070472DE9CD
:10067000F84FDFF87CB0ABF1880BDBF884B1BBF14D
:10068000000F01D01D4900E01C49DFF864B0ABF158
:10069000880BDBF880B1BBF1000F00D049080A4697
:1006A000DFF84CB0ABF1880BDBF888B1BBF1000F81
:1006B00009D0DFF82CB0DBF804B0CBF3032B0BF13F
:1006C000010902FB09F2DFF818B0DBF80CB0CBF33C
:1006D000012BBBF1000F17D0BBF1010F19D00FE0B8
:1006E0000000024000800D40D807B0431000000811
:1006F00088004042080240422403404200127A002F
:10070000BBF1020F27D121E0DFF878B1C0F800B0CB
:1007100026E0DFF874B1DBF80CB04FF0080E0EEAFB
:100720001B1BBBF1000F01D117460DE0DFF858B1DC
:10073000DBF80CB0CBF3021B0BF1010B4FF0010EF9
:100740000EFA0BFEB2FBFEF7076009E04FF4004B18
:10075000C0F800B004E049F6404BC0F800B000BF5C
:1007600000BFDFF828B1DBF804B2BBF1000F01D005
:10077000444B00E0434BDFF814B1DBF800B2BBF1AF
:10078000000F00D05B081E46DFF800B1DBF808B2AE
:10079000BBF1000F09D0DFF8F0B0DBF804B0CBF309
:1007A000031B0BF1010906FB09F6B446DFF8DCB0C8
:1007B000DBF810B2BBF1000F01D04FEA5C0CC0F8BF
:1007C00004C0DFF8C4B0DBF818B0CBF3031B0BF1A7
:1007D000010BDFF8B0E0BEFBFBF8C0F80C80DFF8DF
:1007E000A8B0DBF818B00BF00F0B0BF1010BBEFB40
:1007F000FBFBCDF800B0DDF800B0C0F810B0DFF8BA
:1008000088B0DBF814B00BF0030BBBF1000F06D07F
:10081000BBF1010F05D0BBF1020F06D103E00C467E
:1008200005E01C4603E0144601E0344600BF00BF6B
:10083000DFF854B0DBF814B0CBF3011BBBF1000FB1
:1008400006D0BBF1010F06D0BBF1020F08D105E0C5
:100850004FF4004506E049F6404503E0254601E037
:10086000454600BF00BFDFF820B0DBF814B0CBF383
:10087000032B0BF1010BB5FBFBFAC0F808A0BDE898
:10088000F88F000000127A00000002400000404291
:100890000146BC4A106940F480700A68104340F079
:1008A0000400B84A1061506840F001004A6840EA0C
:1008B0000210B44A506000BFB24A126802F001024E
:1008C000002AF9D0704700BFAF4A116882B21143C5
:1008D00021EA1041AD4AC2F8801300BF704700B54D
:1008E0000220FFF7F0FF002300E05B1CB3F57A7FE6
:1008F000FBD34FF40030FFF7E6FF00BDA2480068CD
:10090000704708B5A048001D016801F00F008DF880
:100910000000C1F303108DF80100BDF8002010465F
:1009200008BD9A480068704700BF984A116882B2B3
:10093000114321EA1041954A116000BF7047934866
:100940004068704791494860704790488068704798
:1009500000BF8E4A916882B2114321EA10418B4A4E
:10096000916000BF70478948C068704700BF874AE0
:10097000D16882B2114321EA1041844AD16000BF9C
:1009800070478248006970478049086170477F4816
:10099000406970477D49486170477C48C06970472D
:1009A0007A48006A704700BF784A116A82B21143E0
:1009B00021EA1041754A116200BF70477348406ACE
:1009C000704700BF714A516A82B2114321EA104157
:1009D0006E4A516200BF70476C48806A70476B482E
:1009E000C06A70476948006B70476848406B704741
:1009F0006648806B70476548C06B704763488030BD
:100A00000068704761488C30006870475F489030DC
:100A1000006870475D499031086070475B48C0309E
:100A2000006870475949C031086070475748D03056
:100A3000006870475549D0310860704701465448F6
:100A400000EB01100068704710B500BF4F4C04EB7D
:100A50000013D3F800218BB21A4322EA11424C4B07
:100A600003EB00131A6000BF10BD0146484800EBBD
:100A70000110406870470146454800EB011080684E
:100A800070470146424800EB0110C068704740487B
:100A900040300068704700BF3D4A4032116882B262
:100AA000114321EA1041394AC2F8401100BF704792
:100AB0003748443000687047354848300068704710
:100AC000334948310860704731484C3000687047FE
:100AD00000BF2F4A4C32116882B2114321EA104103
:100AE0002A4AC2F84C1100BF7047294850300068AC
:100AF00070472749503108607047254858300068D2
:100B0000704701462248803000EBC11000687047F2
:100B100001461F48803000EBC110C0687047014695
:100B20001B48803000EBC11000697047184A8032C2
:100B300002EBC0121161704701461548803000EB8E
:100B4000C110006C7047124A803202EBC01211646F
:100B5000704701460E48803000EBC110006D7047B1
:100B60000B4A803202EBC01211657047084A02EB53
:100B70000012116881F00401054A02EB00121160B5
:100B80007047000000000240800301400000014067
:100B9000000101402DE9F04105460F46164605EBE0
:100BA000450000EBC500F84901EB800400206060BF
:100BB0000021A1602161E1606161E0612062606209
:100BC000A66260702070207639462846FFF73CFF09
:100BD0000020BDE8F08170B5054605EB450000EB4F
:100BE000C500E94901EB8004002020702076E74928
:100BF0002846FFF729FF002070BD70B504460D465A
:100C000004EB440000EBC400DF4901EB800605F073
:100C1000020010B11F20FFF753FF00203076294655
:100C20002046FFF711FF70BD70B5064606EB460083
:100C300000EBC600D44901EB80044FF40025607E30
:100C400008B9A07E20B10120207045F0020501E026
:100C5000002020700020607029463046FFF7CDFF4D
:100C6000002070BD2DE9F04105460C4605EB45001E
:100C700000EBC500C44901EB80060027012C03D11D
:100C800015B90120BDE8F081012C01D0B07E18B16A
:100C90007470052030700A2739462846FFF7ADFFEB
:100CA0000020EFE72DE9F04106460F4606EB46002F
:100CB00000EBC600B44901EB800401213046FFF788
:100CC0004FFF27B1012F03D0022F0AD104E008E023
:100CD0003046FFF74BFF04E004213046FFF7B4FE37
:100CE00000BF00BFD4E903100144A068814203D2D1
:100CF000D4E90310084400E0A0688046E56805E0F8
:100D00006068415D3046FFF71EFF6D1C4545F7D317
:100D100002213046FFF771FFBDE8F0812DE9F04771
:100D200005460E461746984605EB450000EBC50004
:100D3000954901EB8004A07E08B1022000E001206B
:100D400081466660A760202121610021E160C4F82E
:100D50001C800220207049462846FFF7A3FF002090
:100D6000BDE8F0872DE9F04105460E461746984646
:100D700005EB450000EBC500834901EB800466608C
:100D8000A76000212161E160C4F820800120607625
:100D90002846FFF749FF0020BDE8F0812DE9F0412A
:100DA00006460F46154606EB460000EBC6007649A0
:100DB00001EB800467610021A1602161E16065624F
:100DC0000DB1012000E00020A0763046FFF72CFF97
:100DD0000020BDE8F0812DE9F34F81B0834600206B
:100DE000009000265846FFF740FE82465846FFF71F
:100DF00042FE00F003085846FFF720FE07460BEBC3
:100E00004B0000EBCB00604901EB8004029800F03E
:100E1000010008B10120207600BF2078062827D2E3
:100E2000DFE800F003062773B6EC0020BDE8FE8F74
:100E300007F00200E0B9207ED0B1B8F1020F08D16E
:100E4000607E30B103202070002060760120009089
:100E50000EE0B8F1000F06D1A07E20B10420207072
:100E60000120009004E0012600215846FFF7FAFE19
:100E7000D3E007F0020050BB207E40B3B8F1010F71
:100E800025D10AF0400010B3D4E903100144E16019
:100E9000D4E90201814215D300202070E06928B115
:100EA0005846E369D4E90112984706462EB92078DE
:100EB00028BB5846FFF7B8FE26E000215846FFF74A
:100EC000D1FE21E001215846FFF7ECFE1CE00AF0BC
:100ED0000F00A0B100202070A06A38B13B46424606
:100EE00051465846D4F828C0E047064646B920780F
:100EF00028B90220207000215846FFF7D3FE03E0F6
:100F000000215846FFF7AEFE87E007F0020080BBE5
:100F1000207E70B3002000905846FFF7F9FD81460F
:100F2000002508E05846FFF7ECFDC1B2E068284410
:100F3000626811546D1C4D45F4D301215846FFF7EA
:100F4000F5FDE06800EB0901E160D4E902018142AE
:100F500015D300202070206A28B15846236AE26821
:100F60006168984706462EB9207810B95846FFF7B1
:100F70005BFE08E000215846FFF774FE03E0022103
:100F80005846FFF73AFE48E0F80000200100120042
:100F9000207E08B35846FFF7BBFD8146B9F1080F24
:100FA00020D1002506E05846FFF7ABFDC1B26069CD
:100FB00041556D1C4D45F6D301215846FFF7B6FD4E
:100FC0005846626A61699047064636B92078042817
:100FD00011D15846FFF728FE0DE000215846FFF7D3
:100FE00041FE08E001215846FFF7A0FD012600213F
:100FF0005846FFF737FE002000900EE007F0020091
:1010000050B96078012804D101215846FFF72AFE23
:1010100002E05846FFF708FE00BF00BF0098002816
:101020007FF4FBAE304601E770B504460D46164628
:10103000F6494868FFF75DFDF448406808B10420B0
:1010400000E00320F1490870002070BD70B504462F
:101050000D461646022C05D125B9F0B20121FFF745
:1010600001FE70BD0120FCE770B504460D46164632
:10107000022C04D11DB9F0B2FFF7D6FD70BD0120DE
:10108000FCE72DE9F34F81B00C464FF000082078C3
:1010900000F0600A207800F080000090BAF1000FA4
:1010A00006D0BAF1200F78D0BAF1400F76D109E11D
:1010B0004FF0000B6788A688B4F80690207800F0FF
:1010C0001F05032D02DD4FF0020801E160780D28B5
:1010D00073D2DFE800F00741D555D56B737A7D9068
:1010E000A2B3C1000098802809D1C848007804281C
:1010F00008D1012D03D0022D04D1042E02DB4FF0C4
:10110000010828E04FF00008B8F1000F23D125B105
:10111000012D07D0022D14D108E0BC484078BC490D
:1011200008700EE00020BA4908700AE006EB46009D
:1011300000EBC600B74901EB80004078B449087065
:1011400000BF00BF0020B24948700023022201986E
:10115000FFF7E4FD804696E0AC480078042808D10B
:10116000012D03D0022D04D1042E02DB4FF0010823
:1011700005E0324639462846FFF776FF804682E092
:10118000A248007804280AD1012D03D0022D06D1EF
:10119000042E04DB4FF0010807E08FE095E03246B3
:1011A00039462846FFF752FF80466CE04FF00008B2
:1011B00096484760DFF860B265E061E04A46314634
:1011C000384600F0CDF980465DE04FF001085AE066
:1011D0008E480078042803D100208D49087002E071
:1011E00001208B4908700023012289490198FFF7EB
:1011F00095FD804647E01FB90420844908700BE044
:10120000012F01D0012000E000208046B8F1000F3E
:1012100002D105207D49087035E07C48007804281B
:1012200002D14FF0010808E000207949087000233E
:1012300001220198FFF772FD804624E07348007890
:10124000042802D14FF0010805E006B90FB10120D2
:1012500000E00020804616E06C480078042802D1A7
:101260004FF001080BE04FF00108B8F1000F06D174
:101270000023022266490198FFF750FD804602E0F4
:101280004FF0020800BF00BFB8F1000F15D1B9F14F
:10129000000F12D1207800F08000802806D15B4634
:1012A000002211460198FFF75DFD05E05B46002234
:1012B00011460198FFF732FD804609E000F099F9E8
:1012C000804605E04FF0010802E04FF0020800BF41
:1012D00000BF4046BDE8FE8F70B505460C46284667
:1012E000FFF7D6FAFFF7FBFA4FF48030FFF7EBFA7F
:1012F0002068FFF7E8FAD4E90112114341F0010038
:10130000FFF7C9FB002205211046FFF743FCAFF2AF
:101310008D2242490020FFF741FD00203B49087023
:10132000486070BD10B50C20FFF7CDFA0220374998
:101330000870002010BD10B54FF40020FFF7C3FA6D
:1013400000203249087010BD002035490860032094
:101350002E49087000207047002070470020704719
:1013600003460020704770B504460D46164600231C
:101370001A4619462046FFF7F5FC70BD70B50026E9
:10138000022001218140274A430942F8231000BF6F
:101390002548006830BB012023490860FFF78CFB1B
:1013A000044604F0040010B1FFF7CEFF0646002506
:1013B00004E0E8B22146FFF70EFD6D1C042DF8D3C2
:1013C00024F00100FFF77CFB002017490860022091
:1013D000012181404209920002F1E022C2F800118D
:1013E00000BF00BF304670BD10B5FFF7C7FF10BD8E
:1013F0000246002070470146002070470346012046
:1014000070470346012070470120704718000020F4
:1014100020000020F8000020291000081000002003
:101420005001014080E100E024000020014601203D
:101430007047014600207047024600207047024670
:1014400001207047012070470120704710B5044605
:10145000012010BD024690480260416000207047A4
:1014600030B504460D46134629462046FFF7F2FFE5
:1014700000208949088103B101E04FF400708649DA
:101480004881002030BD2DE9F04107460C46154645
:1014900029462046FEF7C6FE06461EB14FF40070F0
:1014A0007D4948817C48408940B97B4842687B4BF4
:1014B00001680320FFF756FCBDE8F0810020FBE740
:1014C00010B500207449488108464268734B016892
:1014D0000320FFF747FC10BD10B54FF400706E49B4
:1014E000488100210320FFF7BDFB10BD10B5034666
:1014F0000020694C208110BD70B504460D46664839
:10150000068956B94FF4007063490881644B2A4636
:1015100021460120FFF702FC0646304670BD10B59B
:10152000FFF712FF0446CCB9002205210120FFF786
:1015300031FB002205210220FFF72CFB00220121B4
:101540000320FFF727FB5448408938B952484268C6
:10155000524B01680320FFF705FC0446204610BDEE
:101560002DE9F0470546894616464FF0000800274A
:10157000E8B208B1012710E02812012802D00228A1
:1015800008D103E0DFF81C81122405E0DFF81881A0
:10159000432401E0012700BF00BF4FB9B44200D986
:1015A0003446424B224641460020FFF7B7FB074630
:1015B0003846BDE8F0872DE9F04105460E4617464E
:1015C0003B484078202806D1394988883146FEF7C3
:1015D0003DFE044601E0022400BF00BF3CB90023E9
:1015E0001A4619462846FFF799FBBDE8F0812046C8
:1015F000FBE72DE9F04100252D4847888688C488FF
:101600004078202802D021281ED10BE0072C07D1DA
:10161000284B224628490020FFF7A4FB054600E09E
:10162000022513E0072C0DD123493046FEF704FEB6
:10163000054645B91D4B22461F490020FFF76EFBAA
:10164000054600E0022501E0012500BF00BFA5B965
:101650009CB91748007800F08000802806D100234C
:101660001A4619461846FFF77DFB05E000231A4687
:1016700019461846FFF752FB05462846BDE8F0819B
:101680000246012070470120704702460120704742
:101690000246012070470000A801002087140008BE
:1016A000ED140008280000203A000020671300080D
:1016B00010000020B7150008800000207047704718
:1016C0007047754600F02CF8AE4605006946534653
:1016D00020F00700854618B020B5FEF7F5FDBDE8FF
:1016E00020404FF000064FF000074FF000084FF089
:1016F000000B21F00701AC46ACE8C009ACE8C0091A
:10170000ACE8C009ACE8C0098D46704710B5044686
:10171000AFF300802046BDE81040FEF718BD000082
:1017200000487047B401002001491820ABBEFEE715
:101730002600020070470000581700080000002033
:1017400088000000FC000008E01700088800002066
:1017500090050000180100080000000000000000D3
:101760000000000000000000000000000000000079
:101770000000000000000000000000000000000069
:101780001201100102000020830425F10000000076
:10179000000109024300020100C0320904000001F7
:1017A00002020100052400100105240100010424A7
:1017B0000206052406000107058203200002090431
:1017C0000100020A00000007058102200000070551
:1017D00003022000000000000000000000000000E4
:04000005080000C12E
:00000001FF
