:020000040800F2
:10000000501900209D010008C50B0008FD080008DC
:100010004B0B00085B020008F12D000800000000F7
:10002000000000000000000000000000C9140008EB
:10003000FB05000800000000F30D00083917000858
:10004000A5020008A7020008452B000800000000D8
:1000500000000000F9050008091E00080B1E00083A
:10006000551300080000000001090008F10D000808
:100070000D2E0008000000005D180008051E000895
:10008000071E000857020008000000008105000854
:10009000B113000800000000000000000000000094
:1000A00000000000000000000000000059020008ED
:1000B000C9060008CB060008CD060008CF060008D8
:1000C00000F002F800F05AF80AA090E8000C824410
:1000D0008344AAF10107DA4501D100F04FF8AFF2ED
:1000E000090EBAE80F0013F0010F18BFFB1A43F016
:1000F000010318472C3000004C3000000A444FF038
:10010000000C10F8013B13F0070408BF10F8014B76
:100110001D1108BF10F8015B641E05D010F8016BBB
:10012000641E01F8016BF9D113F0080F1EBF10F81F
:10013000014BAD1C0C1B09D16D1E58BF01F801CB42
:10014000FAD505E014F8016B01F8016B6D1EF9D5C5
:100150009142D6D3704700000023002400250026DA
:10016000103A28BF78C1FBD8520728BF30C148BF1A
:100170000B6070471FB51FBD10B510BD00F031F802
:100180001146FFF7F7FF02F0ABFE00F04FF803B4A3
:10019000FFF7F2FF03BC00F057F800000948804762
:1001A00009480047FEE7FEE7FEE7FEE7FEE7FEE759
:1001B000FEE7FEE7FEE7FEE704480549054A064B71
:1001C00070470000CD170008C10000085013002040
:1001D000501900205015002050150020704770471E
:1001E0007047754600F02CF8AE4605006946534648
:1001F00020F00700854618B020B5FFF7DDFFBDE809
:1002000020404FF000064FF000074FF000084FF07D
:10021000000B21F00701AC46ACE8C009ACE8C0090E
:10022000ACE8C009ACE8C0098D46704710B504467B
:10023000AFF300802046BDE81040FFF7A8BF0000E4
:1002400000487047F012002001491820ABBEFEE7BD
:100250002600020070477047704700BFFEE70000AD
:1002600010B560200B4908800020887008720120BA
:1002700088724872084800F0B3FC042005490880E1
:10028000064800F0ADFC0A2002490880044800F04E
:10029000A7FC10BD7411002000000B4000800B4033
:1002A00000800C407047704702460B4B186AB2F151
:1002B000804F05D140F0807020F0FF00084308E037
:1002C000064B9A4205D140F0007020F47F4040EA8E
:1002D0000120014B1862704700000240008000407E
:1002E0000A46016812B141F0010101E021F001016B
:1002F0000160704700220260426082600261C26158
:10030000C0F8C020C0F8C820002105E0002300F19B
:10031000400242F82130491C2029F7D370471AB116
:1003200003690B43036102E003698B430361704778
:1003300070B500220D780DB142F010024D780DB16C
:1003400042F008028D780DB142F00402CD780DB173
:1003500042F002020260D1E901563544CE683544CC
:100360000E6935440E8BAC194D692C438460002313
:100370000AE0002600F5A06505EBC3056E6000F5F8
:10038000A06545F833605B1C202BF2D38D7EC561E0
:1003900070BD10B5002302B1042343F0030300F144
:1003A000400444F8213010BD10B51346D0F8C020E9
:1003B0000BB10A4300E08A43C0F8C02010BD000022
:1003C00010B588B00021012000F036FD0024012185
:1003D000112000F04BFF00214FF08040FFF764FF39
:1003E0004FF08040FFF786FF01A800F04FF8012092
:1003F0008DF804008DF8050000208DF806008DF8BA
:1004000007004FF4803002900001039080000490B8
:10041000C0000590800006900120ADF81C0001A9E5
:100420008007FFF785FF01218807FFF759FF0020AC
:10043000012181404209920002F1E022C2F800113C
:1004400000BF002203214FF08040FFF768FF0D48F6
:100450000268012000FA02F102468007FFF7A4FFBC
:1004600009480268012000FA02F10246800700F004
:1004700050F80022034801684FF08040FFF789FFE1
:1004800008B010BDF81000202000002000210170ED
:1004900041708170C17041604FF4002181604FF064
:1004A000A071C1600021016141610183FF2181765A
:1004B000704730B5034654791CB9947904F520602F
:1004C00002E0947904F5D05003F5007404EB0114B4
:1004D000606003F5007404EB01141568256003F5F2
:1004E000007404EB01149568A56003F5007404EB37
:1004F0000114D568E560002014790CB140F01000BB
:1005000040F0200040F0010003F1400444F82100D5
:1005100030BD10B51346D0F8C8200BB10A4300E037
:100520008A43C0F8C82010BD0EB500208DF8030026
:100530008DF804008DF805008DF806008DF8070091
:1005400002208DF8080003208DF8090001208DF8A5
:100550000A0000208DF802008020ADF800006946F6
:10056000064800F03DFB01208DF802004020ADF868
:1005700000006946014800F033FB0EBD00800A40D0
:10058000704700001FB5FFF7CFFFFFF719FF1448B2
:1005900000E0401E0028FCDC01208DF8050004204E
:1005A0008DF8060000208DF804000E480090002110
:1005B00003910D4802906A460C4801684FF0804054
:1005C000FFF777FF01200A49087000BF082109489A
:1005D00000F0EAFB00B900E0F8E7002004B010BD2D
:1005E00040420F0055555515785634122000002012
:1005F0000F00002000800C407047704710B5044683
:10060000012C04D180212C4800F0E4FB04E04FF4DD
:100610008071294800F0DEFB0121284800F0CCFB66
:100620004FF48061244800F0C7FB052000F08FFAEA
:100630002348406840F03F00214948602148406815
:1006400040F00C001F4948603F2000F0A7FF052044
:1006500000F07DFA0221194800F0BCFB052000F0F3
:1006600076FA0221154800F0A7FB052000F06FFA8A
:100670000121124800F0A0FB4FF480610E4800F009
:100680009BFB0F4840684FF6C07108400C4948601A
:100690000C4840684FF6F37108400A494860012C45
:1006A00004D18021044800F087FB04E04FF48071FE
:1006B000014800F081FB10BD00000B4000800B40A2
:1006C00000800A4000800E407047704770477047B6
:1006D0001FB501207949087002F0C0FAE5E000BFBB
:1006E0000821774800F060FB00B9DFE0754800782A
:1006F0000128F5D102F0C2FA022000F065FA724832
:1007000000E0401E0028FCDC00BF08216C4800F01F
:100710004BFB00B9D0E004216C4800F045FB0028F9
:10072000F3D1664908706749087069480078401C31
:100730006749087001206749087000F05BFB00F012
:100740000BFE00BF0121644800F093FE0028F9D0A1
:100750005F480178604800F0A7FE5B4800E0401E5B
:100760000028FCDC00BF0821554800F01DFB00B943
:10077000A2E00421554800F017FB0028F3D15549A9
:1007800008705649087001205549087000205549E5
:10079000087002F0B3FA02F0D3FA00BF082148480B
:1007A00000F002FB00B987E040214F4801F058FB00
:1007B0000128F3D14C4801F0B3FB454908700120F2
:1007C0004849087000BF08213D4800F0EDFA00B923
:1007D00072E004213D4800F0E7FA0028F3D14049D7
:1007E00008704049087001204049087000203549D0
:1007F000087002F033FA36480078401C3C49087013
:1008000000BF08212E4800F0CFFA00B94EE02D4875
:1008100000780128F5D102F031FA022000F0D4F975
:1008200000BF0821264800F0BFFA00B944E00421C7
:10083000264800F0B9FA0028F3D12C490870214964
:100840000870FFF771FEFFF7BBFD1F4800E0401E78
:100850000028FCDC26480078401C1D4908701A4816
:1008600000E0401E0028FCDC01201C4908708DF8C7
:10087000050004208DF8060000208DF804001D48B6
:100880000090002103911248007802906A461A48AD
:1008900001684FF08040FFF70CFE00BF08210848B8
:1008A00000F082FA00B907E0F8E718E702F0E6F98D
:1008B000022000F089F91FBD00BFFCE714000020F2
:1008C00000800C401900002040420F0000800B40C7
:1008D0001C0000201700002000000A401500002026
:1008E000160000201B000020008003401A0000209A
:1008F0001D000020555555152000002000BFFEE7C3
:100900007047000001460A465000074B53F820008C
:10091000064BD861012000EB4200034B53F8200046
:10092000024B1862184670476006002060100020D5
:1009300070B50546002404E0E1B2284600F004F852
:10094000641C082CF8DB70BD2DE9F04106460F460B
:100950003946304600F044FE0021304600F0B6FD36
:1009600000250DE000BF304600F090FC044604F086
:1009700001000028F7D10021304602F049FA6D1C31
:10098000402DEFDBBDE8F08170B54FF400710D48EC
:1009900000F012FAC82000F0DAF84FF400710948AC
:1009A00000F018FA00BF012000F070FC00F0900584
:1009B000022000F06BFC00F090040DB1002CF2D18D
:1009C00070BD000000000B402DE9F05F81460C4631
:1009D00016462046E11704EB5171C9104D1CB24672
:1009E0002046E11704EB5171C910A4EBC1014FEA95
:1009F000C10B0AF0FF01E8B200F0F2FD0BF0FF01BD
:100A0000E8B200F063FD00270EE000BFE8B200F09E
:100A10003DFC804608F001000028F7D119F80710C6
:100A2000E8B202F0F5F97F1C082FEEDBBDE8F09F7D
:100A30002DE9F0410746884608F0FF01012000F04B
:100A4000CFFD0021012000F041FD002414E000252D
:100A50000FE000BF012000F019FC064606F001007F
:100A60000028F7D157F82400415D012002F0D0F9A9
:100A70006D1C082DEDDB641C082CE8DB08F0FF0181
:100A8000022000F0ADFD0021022000F01FFD002437
:100A900016E0002511E000BF022000F0F7FB06463B
:100AA00006F001000028F7D104F1080057F82000F3
:100AB000415D022002F0ACF96D1C082DEBDB641CDB
:100AC000082CE6DBBDE8F0812DE9F04192B0064646
:100AD000884617461D460020009001900F2D17DA1A
:100AE00000240EE028190F2803DA02A941F824D0C7
:100AF00006E060190F3856F8200002A941F82400DA
:100B0000641C102CEEDB414602A8FFF791FF18E0B1
:100B1000002410E0A5F10F002044B84203DB02A935
:100B200041F824D006E060190F3856F8200002A9D9
:100B300041F82400641C102CECDB414602A8FFF7AE
:100B400077FF012012B0BDE8F08100BFFEE700BFD3
:100B5000011EA0F10100FBD17047000010B500207C
:100B60001349C870087148718871C8713F200880A6
:100B70000020887008720120887248720D4800F0C9
:100B80002FF80C200A4908800B4800F029F84FF490
:100B9000F0600749088001208870084800F020F8BC
:100BA000032003490880064800F01AF810BD000031
:100BB0007411002000800A4000800E4000000B40AD
:100BC00000800B407047000000F01F02012191409F
:100BD000024A430942F823107047000080E100E018
:100BE0002DE9FE4F4768D0F808C0D0F80C80D0F847
:100BF0001090D0F814A0CDF808A0D0F818A0CDF827
:100C000004A0D0F81CA0CDF800A0002201230325E9
:100C10004FF001160C885FE004F0010ABAF1000FF2
:100C200055D027EA030A91F802B00BFA02FB4AEA10
:100C30000B0791F808A04FEA420B0AFA0BFA2CEACC
:100C4000050B4AEA0B0C28EA030A91F80AB00BFAE2
:100C500002FB4AEA0B0829EA060A91F803B002F1FE
:100C6000100E0BFA0EFB4AEA0B0A91F804B00BFACD
:100C700002FB4AEA0B09DDF808A02AEA060A91F805
:100C800005B00BFA0EFB4AEA0B0A91F806B00BFA14
:100C900002FB4AEA0B0ACDF808A091F809A04FEA36
:100CA000420B0AFA0BFADDF804B02BEA050B4AEA0C
:100CB0000B0ACDF804A0DDF800A02AEA030A91F897
:100CC00007B00BFA02FB4AEA0B0ACDF800A05B0062
:100CD000AD007600521C6408002C9DD1DFF8C4A042
:100CE000504502D14FF01F0A01E04FF0000A27EAF9
:100CF0000A0AC0F804A0DFF8ACA0504502D14FF0BA
:100D00001F0A01E04FF0000A2CEA0A0AC0F808A006
:100D1000DFF890A0504502D14FF01F0A01E04FF0DC
:100D2000000A28EA0A0AC0F80CA0DFF878A05045AB
:100D300002D14FF01F0A01E04FF0000A29EA0A0A27
:100D4000C0F810A0DFF85CA0504502D14FF01F0B97
:100D500001E04FF0000BDDF808A02AEA0B0AC0F80A
:100D600014A0DFF840A0504502D14FF01F0B01E066
:100D70004FF0000BDDF804A02AEA0B0AC0F818A017
:100D8000DFF820A0504502D14FF01F0B01E04FF0DB
:100D9000000BDDF800A02AEA0B0AC0F81CA0BDE891
:100DA000FE8F000000000B40024613680B400BB1A1
:100DB000012000E0002070470268054B984201D1F5
:100DC0001F2300E000230B439A430260704700009A
:100DD00000000B400268054B984201D11F2300E040
:100DE00000239A430A4302607047000000000B4052
:100DF0007047704710B504200A49088000208870A9
:100E00000220087201208872022048720648FFF70B
:100E1000E7FE012003498870682008800248FFF738
:100E2000DFFE10BD1C12002000000C4001490860CC
:100E3000704700008800404210B502460C4BD8684D
:100E400020F003001043D860586820F4706040EA36
:100E500001205860074B1B6843B10123054C241D3A
:100E600023600023034C883CC4F88C3010BD000084
:100E7000000002408800404238B50020009000BFCA
:100E8000212000F069F905460098401C0090009868
:100E9000B0F5C06F01D2002DF2D0212000F05CF936
:100EA00008B1012400E00024204638BD0149086053
:100EB00070470000880140420146044AD06820F093
:100EC000F00040EA0110D0607047000000000240CE
:100ED0000146034AD06820F440700843D060704750
:100EE000000002402DE9FC4F0146DFF864B2DBF858
:100EF0000CB00BF0020BBBF1000F01D0954B00E0E2
:100F0000944BDFF84CB2DBF80CB00BF0010BBBF1EB
:100F1000000F00D05B081C46DFF834B2DBF80CB0E1
:100F20000BF0040BBBF1000F0DD0DFF824B2DBF89F
:100F300004B0CBF3032B0BF1010BCDF800B0DDF8BF
:100F400000B004FB0BF4DFF808B2DBF80CB0CBF315
:100F5000012BBBF1000F06D0BBF1010F08D0BBF194
:100F6000020F28D122E0DFF8ECB1C1F800B027E091
:100F7000DFF8DCB1DBF80CB04FF0080E0EEA1B1BFB
:100F8000BBF1000F01D1A0460DE0DFF8C4B1DBF8E2
:100F90000CB0CBF3021B0BF1010B4FF0010E0EFA5C
:100FA0000BFEB4FBFEF8C1F8008009E04FF4004BE3
:100FB000C1F800B004E049F6404BC1F800B000BFF2
:100FC00000BFDFF88CB1DBF810B00BF0020BBBF107
:100FD000000F01D05F4D00E05E4DDFF874B1DBF82B
:100FE00010B00BF0010BBBF1000F00D06D082F46C5
:100FF000DFF85CB1DBF810B00BF0040BBBF1000FB5
:101000000DD0DFF84CB1DBF804B0CBF3031B0BF1D0
:10101000010BCDF800B0DDF800B007FB0BF7B946C7
:10102000DFF82CB1DBF810B00BF0100BBBF1000FA8
:1010300001D04FEA5909C1F80490DFF814B1DBF888
:1010400018B04FEA1B1000F0080BBBF1000F02D1E3
:10105000DFF800C10BE000F0070B0BF1010B4FF0C4
:10106000010E0EFA0BF0DFF8ECB0BBFBF0FCC1F8A0
:101070000CC0DFF8DCB0DBF8180000F0080BBBF1A7
:10108000000F04D1DFF8CCB0CDF804B00DE000F0D3
:10109000070B0BF1010B4FF0010E0EFA0BF0DFF80E
:1010A000B4B0BBFBF0FBCDF804B0DDF804B0C1F880
:1010B00010B0DFF89CB0DBF814B00BF0030BBBF101
:1010C000000F06D0BBF1010F05D0BBF1020F06D116
:1010D00003E01E4605E02E4603E0264601E03E46BC
:1010E00000BF00BFDFF868B0DBF814B0CBF3011B22
:1010F000BBF1000F06D0BBF1010F06D0BBF1020F10
:1011000008D105E04FF4004206E049F6404203E012
:10111000324601E0624600BF00BFDFF834B0DBF8C2
:1011200014B04FEA1B2000F0080BBBF1000F01D1F7
:10113000924609E000F0070B0BF1010B4FF0010E96
:101140000EFA0BF0B2FBF0FAC1F808A0BDE8FC8F74
:101150000000024000127A0010B5014601F0E003E1
:10116000202B02D1074B1A6801E0074BDA6B01F024
:101170001F040123A34013400BB1012000E0002015
:1011800010BD00000000024000800D400D4989683C
:1011900021F003010B4A9160012802D002280ED1F0
:1011A00006E00849896841F00101064A916007E0BC
:1011B0000449896841F00301024A916000E000BFE0
:1011C00000BF70470000024038B50020009000BF0B
:1011D0002220FFF7C1FF05460098401C00900098B0
:1011E000B0F5C06F01D2002DF2D02220FFF7B4FF7E
:1011F00008B1012400E00024204638BD0D49C96B28
:1012000021F003010B4AD163012802D002280ED13C
:1012100006E00849C96B41F00101064AD16307E0C5
:101220000449C96B41F00301024AD16300E000BFE9
:1012300000BF704700800D4038B50020009000BF0F
:101240000D20FFF789FF05460098401C009000988C
:10125000B0F5C06F01D2002DF2D00D20FFF77CFF5A
:1012600008B1012400E00024204638BD29B1064A17
:10127000D2690243044BDA6104E0034AD269824333
:10128000014BDA61704700000000024070B504466F
:101290002C4840684FF6C07108402A4948602A48E7
:1012A00040684FF6F371084027494860012C04D18B
:1012B00080212648FFF78EFD04E04FF4807123481B
:1012C000FFF788FD01212248FFF776FD4FF480618A
:1012D0001E48FFF77FFD0520FFF739FC02211C485F
:1012E000FFF778FD0520FFF732FC1648006800F094
:1012F0003F0015490968C02202EA011140EA0105D0
:101300000520FFF724FC02211148FFF755FD0520B9
:10131000FFF71DFC01210E48FFF74EFD4FF48061E1
:101320000A48FFF749FD012C04D180210748FFF747
:1013300043FD04E04FF480710448FFF73DFD28466B
:1013400070BD000000800A4000800E4000000B408D
:1013500000800B407047000010B5124800F080F884
:1013600001211148FFF782FF04210E4800F04EF8DA
:101370000E4800F09BF810200C490880022048809D
:10138000002088800F20C880002008814881888143
:101390000220C881034800F074F80121014800F0E0
:1013A00053F810BD00000A40100110000C1200207C
:1013B0007047000070B502240025FFF71BFDFFF702
:1013C000CBFF0E4800E0401E0028FCDC00BF0121DE
:1013D0000B4800F04EF80028F9D02146084800F0EC
:1013E00063F801200749087000BF08210648FFF78D
:1013F000DBFC00B900E0F8E770BD000040420F00E0
:1014000000000A400E00002000800C4002460B4BFA
:10141000D86A0B4B9A4205D140F0807020F0FF0053
:10142000084308E0074B9A4205D140F0007020F4D1
:101430007F4040EA0120014BD86270470000024023
:101440000000044000000A4021B1426842F002025C
:10145000426004E042684FF6FD731A4042607047F4
:10146000002101604160016141614162032101622B
:1014700070470246D3680B400BB1012000E000200A
:10148000704710B54B8803610B890C8803EB04236C
:101490004C8923448C892344CC881A190260CB8957
:1014A0008C881A19426010BD8160704700218180CC
:1014B0000721C18000214181018181810221418078
:1014C00000210180C18170477047000070B504465B
:1014D0000D46012C04D180212C48FFF77BFC04E051
:1014E0004FF480712948FFF775FC01212848FFF768
:1014F00063FC4FF480612548FFF75EFC0520FFF791
:1015000026FB2448406840F03F00224948602248BA
:10151000406840F00C002049486045F0400000F071
:101520003DF80520FFF713FB02211948FFF752FC95
:101530000520FFF70CFB02211548FFF73DFC0520B5
:10154000FFF705FB134840684FF6C071084011498A
:101550004860114840684FF6F37108400E494860F2
:1015600001210B48FFF728FC4FF480610748FFF783
:1015700023FC012C04D180210448FFF71DFC04E06A
:101580004FF480710148FFF717FC70BD00000B405D
:1015900000800B4000800A4000800E400E49096820
:1015A0004FF6C07211400C4A11601146096800F0F4
:1015B0003F021143084A1160084909684FF6F37267
:1015C0001140064A1160114609680C2202EA2012F5
:1015D0001143024A1160704700800A4000800E40AB
:1015E00070B504460D46012C04D180212C48FFF72C
:1015F000F1FB04E04FF480712948FFF7EBFB012178
:101600002848FFF7D9FB4FF480612548FFF7D4FB4A
:101610000520FFF79CFA2448406840F03F0022492B
:1016200048602248406840F00C002049486045F07E
:10163000B800FFF7B3FF0520FFF789FA0221194828
:10164000FFF7C8FB0520FFF782FA02211548FFF7D4
:10165000B3FB0520FFF77BFA134840684FF6C071D3
:10166000084011494860114840684FF6F37108403E
:101670000E49486001210B48FFF79EFB4FF4806143
:101680000748FFF799FB012C04D180210448FFF79C
:1016900093FB04E04FF480710148FFF78DFB70BDB0
:1016A00000000B4000800B4000800A4000800E408C
:1016B00010B509210220FFF7BFFB0120FFF7B6FBA1
:1016C000FFF7DAFB012801D000BFFEE70020FFF79B
:1016D000F3FB0120FFF7EAFB4FF48070FFF7F8FB04
:1016E00010BD000010B501210420FFF7BFFD03204D
:1016F0000F4908600B20486010200E4988602020A8
:101700004860102008600A4800F012FE1F2001F017
:101710008FFA00F039FE0220012181404209920037
:1017200002F1E022C2F8001100BF00F051FD10BD2F
:10173000E0100020801100207047000030B5204CE0
:10174000E46804F00204022C01D11E4800E01D48A8
:101750001B4CE46804F0010404B140080146184C35
:10176000E46804F00404042C05D1154C6468C4F347
:101770000324631C5943124CE468C4F3012424B1CC
:10178000012C06D0022C13D10DE00E4C0E4D2C6016
:1017900013E00B4CE468C4F30314641CB1FBF4F2D3
:1017A000094C226009E04FF40044074D2C6004E02E
:1017B00049F64044044D2C6000BF00BF30BD00001E
:1017C0000000024000127A000011002000B50D4810
:1017D0000D49C8610846C0680020C86008464068D6
:1017E000002048600846806800208860084600693C
:1017F000002008610846406900204861FFF79EFF0D
:1018000000BD0000100000080000024010B50121DA
:101810008803FFF72BFD4FF0E0600E49486200207F
:101820000D49C86008603F2048604AF6FF70886034
:101830000020086248628862C8620863486388635F
:10184000C8634865022088650846C06840F001000A
:10185000C86010BD000002400000074070B50020C5
:10186000FD494865FD48006800283ED10120FB493C
:10187000086000221146FA48FFF7A6F8002201216D
:10188000F848FFF7A1F800220221F748FFF79CF87B
:1018900000220321F548FFF797F800220421F448BD
:1018A000FFF792F800220521F248FFF78DF8002299
:1018B0000A21F148FFF788F800220B21EF48FFF7D3
:1018C00083F800220C21EE48FFF77EF800220D215C
:1018D000EC48FFF779F800220E21EB48FFF774F887
:1018E00000220F21E948FFF76FF801220021E848A4
:1018F000FFF76AF801221146E548FFF765F8012273
:101900000221E348FFF760F801220321E048FFF7D6
:101910005BF801220421DE48FFF756F80122052179
:10192000DB48FFF751F801220621D948FFF74CF8B0
:1019300001220721D648FFF747F801220821D448A1
:10194000FFF742F801220921D148FFF73DF80122B3
:101950000A21D048FFF738F801220B21CE48FFF7C3
:1019600033F801220C21CD48FFF72EF801220D217A
:10197000CB48FFF729F801220E21CA48FFF724F8C7
:1019800001220F21C848FFF71FF800BFC7483222C5
:1019900007210368C648FFF797F80028F6D0C34828
:1019A0000068401CC149086008460068372801D11A
:1019B00000200860BF480078012815D10321BE48E7
:1019C000FFF736F80421BD48FFF732F8BC4800782D
:1019D000012804D10521BB48FFF72AF809E20521B7
:1019E000B648FFF725F804E2B7480078012815D17A
:1019F0000321B648FFF71CF80421B048FFF718F898
:101A0000B3480078012804D10521AE48FFF710F84B
:101A1000EFE10521A948FFF70BF8EAE1AD480078AE
:101A200001280CD10321A548FFF702F80421AA4898
:101A3000FEF7FEFF0521A148FEF7FAFFD9E1A7480E
:101A40000078012815D10321A548FEF7F1FF0421F4
:101A50009A48FEF7EDFFA3480078012804D105213C
:101A60009848FEF7E5FFC4E105219448FEF7E0FF42
:101A7000BFE19D480078012873D19C480078012877
:101A800020D19B48007860B903219348FEF7D0FF2E
:101A900004218A48FEF7CCFF05218848FEF7C8FFDD
:101AA000A7E103218C48FEF7C3FF04219148FEF70C
:101AB000BFFF91480078FEF725FF05460521FEF798
:101AC000B7FF96E18D480078012810D103217F48A7
:101AD000FEF7AEFF04217B48FEF7AAFF8648007898
:101AE000FEF710FF05460521FEF7A2FF81E18448BD
:101AF0000078012810D103216F48FEF799FF0421D7
:101B00007048FEF795FF7C480078FEF7FBFE05461F
:101B10000521FEF78DFF6CE17A480078012821D17C
:101B20007948007860B903216D48FEF781FF0421F0
:101B30007648FEF77DFF05216048FEF779FF58E102
:101B400003216748FEF774FF04216A48FEF770FF1F
:101B500069480078FEF7D6FE05460521FEF768FFC6
:101B600047E124E06A480078012899D1604800786C
:101B700060B903215848FEF75BFF04214F48FEF788
:101B800057FF05214D48FEF753FF32E1032152482C
:101B9000FEF74EFF04214B48FEF74AFF5D480078F0
:101BA000FEF7B0FE05460521FEF742FF21E15A4847
:101BB0000068C8BB00240CE058490968102202FBE9
:101BC0000141574A52F8210003222146FEF7FCFE4C
:101BD000641C102CF0DB00240DE050490968491CFE
:101BE000102202FB01414E4A52F8210004222146F4
:101BF000FEF7EAFE641C102CEFDB00240DE04749E1
:101C00000968891C102202FB0141454A52F8210053
:101C100005222146FEF7D8FE641C102CEFDB0322C0
:101C20000F214048FEF7D0FE3B48006801287BD1D9
:101C300000240DE039490968491E102202FB0141C8
:101C4000374A52F8210003222146FEF7BDFE641CEC
:101C5000102CEFDB002475E000000740000000209E
:101C6000DC0200201C030020E40300207403002099
:101C7000640300208C0300205C020020B4020020DA
:101C800054000020340400205C0000203C000020B0
:101C900024040020A401002044010020D4010020DD
:101CA000DC01002064010020CC010020540400204D
:101CB0005804002012000020E00E00202010002018
:101CC0000F000020600F00200D000020200F0020DA
:101CD0000E00002011000020600E00200C000020EB
:101CE000A00E00201000002013000020140000208F
:101CF00019000020A00F00201C0000201700002069
:101D000015000020160000201B000020A01000205D
:101D10001A0000201D000020080000200400002000
:101D2000200500204C04002025E0324909681022DB
:101D300002FB0141304A52F8210004222146FEF7FD
:101D400043FE641C102CF0DB00240DE029490968D7
:101D5000491C102202FB0141274A52F821000522AA
:101D60002146FEF731FE641C102CEFDB04220F210C
:101D70002248FEF729FE22480068022839D10024B3
:101D80000DE01C490968891E102202FB01411A4A14
:101D900052F8210003222146FEF716FE641C102C87
:101DA000EFDB00240DE013490968491E102202FBF5
:101DB0000141114A52F8210004222146FEF704FE97
:101DC000641C102CEFDB00240CE00A490968102287
:101DD00002FB0141084A52F8210005222146FEF784
:101DE000F3FD641C102CF0DB05220F210348FEF7E5
:101DF000EBFD70BD04000020200500204C040020F5
:101E000008000020704770477047704702460B4B30
:101E1000986A0B4B9A4205D140F0807020F0FF0089
:101E2000084308E0074B9A4205D140F0007020F4C7
:101E30007F4040EA0120014B986270470000024059
:101E4000000003400080034021B1026B42F0010218
:101E5000026304E0026B4FF6FE731A4002637047A0
:101E6000024693690B400BB1012000E0002070474F
:101E70002DE9F04F87B004460D4601A8FFF732F870
:101E8000019F2448866A2448844206D106F007014F
:101E900001208840B7FBF0F708E02048844205D1D4
:101EA000C6F3022101208840B7FBF0F728688008BC
:101EB000B7FBF0F94FEA991809F03F0AB8000AEBAE
:101EC0008811B0FBF1FB2868ABEB0000C00129686A
:101ED000B0FBF1F006900698022803D9002007B065
:101EE000BDE8F08FC4F82480C4F828A0E66AA8886A
:101EF000E988084329890843698908430643E6625B
:101F0000266B4FF680708643A8890643266301201E
:101F1000E5E70000000002400000034000800340AD
:101F20000146086880B27047CAB20260704700007C
:101F300010B500F093FE07E000BF08210648FEF749
:101F400033FF00B901E0F8E7F6E700F097FE022062
:101F5000FEF73AFE10BD000000800C4001460D4A1D
:101F6000106940F480700A68104340F00400094A88
:101F70001061506840F001004A6840EA0210054ACA
:101F8000506000BF034A126802F00102002AF9D033
:101F900070470000000002402DE9F0410025224872
:101FA00047888688C4884078202802D021281ED1FE
:101FB0000BE0072C07D11D4B22461D49002000F0E5
:101FC00017FD054600E0022513E0072C0DD1184946
:101FD000304600F083F8054645B9164B22461449B1
:101FE000002000F0DFFC054600E0022501E00125AD
:101FF00000BF00BFA5B99CB90B48007800F0800075
:10200000802806D100231A461946184600F0F0FC35
:1020100005E000231A461946184600F0C3FC0546A1
:102020002846BDE8F0810000641100203920000836
:102030005C110020192300082DE9F04105460E46E9
:1020400017460C484078202806D10A49888831462E
:1020500000F0FCF8044601E0022400BF00BF3CB9D8
:1020600000231A461946284600F09CFCBDE8F08182
:102070002046FBE7641100202DE9F047054689461C
:1020800016464FF000080027E8B208B1012710E01B
:102090002812012802D0022808D103E0DFF830809E
:1020A000122405E0DFF82C80432401E0012700BF63
:1020B00000BF4FB9B44200D93446074B22464146CF
:1020C000002000F06FFC07463846BDE8F0870000AE
:1020D00004110020161100201923000802460AB13D
:1020E00002207047024B09CBC1E900030020F8E74A
:1020F000EC10002030B504460D4613462946204614
:1021000000F0B2F800200549088103B101E04FF466
:10211000007002494881002030BD000028120020D4
:102120002DE9F04107460C4615462946204600F0A9
:1021300021F806461EB14FF400700849488107484F
:10214000408940B905484268054B0168032000F00A
:102150004FFCBDE8F0810020FBE7000028120020C2
:102160002121000810B503460020014C208110BD3C
:102170002812002070B504460E4610480078012849
:1021800015D10F48007830B920780E490870012029
:102190000D49087010E00D48007820703146204647
:1021A00000F03CF8054601200749087004E031467C
:1021B000204600F033F80546002070BD13000020D3
:1021C0001A0000201C000020190000201D00002023
:1021D00010B500F0E5F80446CCB900220521012035
:1021E00000F05CFA00220521022000F057FA0022DC
:1021F0000121032000F052FA0648408938B9054809
:102200004268054B0168032000F0F2FB04462046BB
:1022100010BD0000281200202121000870B50446DE
:102220000D460848068956B94FF4007005490881E3
:10223000054B2A462146012000F0B4FB06463046F5
:1022400070BD0000281200206521000810B502466C
:102250000AB1022010BD0348D1E9003418C00020A3
:10226000F8E70000EC1000200246024802604160DE
:10227000002070472812002070B504460D4616460F
:10228000022C04D11DB9F0B200F0E8F970BD0120B4
:10229000FCE7000070B500260220012181401B4AA6
:1022A000430942F8231000BF1948006860BB0120B1
:1022B0001749086000F040FC044604F0040040B1F7
:1022C00000F06EF80646002012498860886800F029
:1022D0006BFC002504E0E8B2214600F03BFA6D1CDF
:1022E000042DF8D324F0010000F0B2FC00200849CE
:1022F00008600220012181404209920002F1E0229F
:10230000C2F8001100BF00BF304670BD80E100E0A0
:1023100070110020E412002070B504460D461646E8
:1023200000231A461946204600F062FB70BD0000EB
:1023300070B505460C462846FFF710FE00F006FC77
:102340004FF4803000F020FC206800F01DFCD4E940
:102350000112114341F0010000F02CFC0022052184
:10236000104600F09BF9054A0549002000F09CFB4F
:10237000002004490870886070BD0000CD2300086B
:1023800064110020E412002010B50C2000F0FCFBCA
:10239000022002490870002010BD0000E412002055
:1023A000032002490870002070470000E41200205A
:1023B00070B504460D461646022C05D125B9F0B27B
:1023C000012100F0A5F970BD0120FCE72DE9F34FD4
:1023D00081B00C464FF00008207800F0600A2078A9
:1023E00000F080000090BAF1000F06D0BAF1200F83
:1023F00077D0BAF1400F75D108E14FF0000B678834
:10240000A688B4F80690207800F01F05032D02DDA1
:102410004FF0020800E160780D2872D2DFE800F08A
:102420000740D454D46A72797C8FA1B2C00000985E
:10243000802809D17A480078042808D1012D03D0DA
:10244000022D04D1042E02DB4FF0010827E04FF0EB
:102450000008B8F1000F22D125B1012D06D0022DC0
:1024600013D107E000206F4908700EE000206D498D
:1024700008700AE006EB460000EBC6006A4901EB73
:10248000800040786749087000BF00BF00206549A0
:102490004870664B0222019800F084FA804696E06C
:1024A0005F480078042808D1012D03D0022D04D103
:1024B000042E02DB4FF0010805E03246394628467B
:1024C000FFF7DAFE804682E05548007804280AD1FA
:1024D000012D03D0022D06D1042E04DB4FF001089C
:1024E00007E08FE095E0324639462846FFF760FF67
:1024F00080466CE04FF0000849488760DFF830B153
:1025000065E061E04A4631463846FFF7B5FD804652
:102510005DE04FF001085AE041480078042803D1FB
:1025200000204049087002E001203E4908703F4BFE
:1025300001223C49019800F035FA804647E01FB976
:102540000420374908700BE0012F01D0012000E082
:1025500000208046B8F1000F02D1052030490870F4
:1025600035E02F480078042802D14FF0010808E038
:1025700000202C4908702D4B0122019800F012FA1E
:10258000804624E026480078042802D14FF0010854
:1025900005E006B90FB1012000E00020804616E0FA
:1025A0001F480078042802D14FF001080BE04FF0DB
:1025B0000108B8F1000F06D11C4B022219490198FD
:1025C00000F0F0F9804602E04FF0020800BF00BFC3
:1025D000B8F1000F15D1B9F1000F12D1207800F039
:1025E0008000802806D15B4600221146019800F049
:1025F000FFF905E05B4600221146019800F0D2F990
:10260000804609E0FFF7C8FC804605E04FF001086E
:1026100002E04FF0020800BF00BF4046BDE8FE8F59
:10262000E41200206C11002034120020192300084D
:102630003526000870B504460D46164606498868DA
:1026400000F0B2FA0448806808B1042000E00320DA
:1026500001490870002070BDE412002070B50646E4
:1026600006EB460000EBC6000B4901EB80044FF47B
:102670000025607E08B9A07E20B10120207045F0C1
:10268000020501E0002020700020607029463046DD
:1026900000F028F8002070BD341200202DE9F04130
:1026A00005460F46164605EB450000EBC5000C49F4
:1026B00001EB8004002060600021A1602161E160E5
:1026C0006161E06120626062A662607020702076C5
:1026D0003946284600F07EFA0020BDE8F08100006F
:1026E0003412002070B504460D4604EB440000EBA4
:1026F000C400064901EB80061F2000F0A9FA002063
:1027000030762946204600F065FA70BD341200206C
:102710002DE9F04105460C4605EB450000EBC500F0
:102720000B4901EB80060027012C03D115B90120CC
:10273000BDE8F081012C01D0B07E18B17470052085
:1027400030700A2739462846FFF7CCFF0020EFE714
:10275000341200202DE9F34F81B083460020009011
:102760000026584600F0D8F98246584600F0DCF9B9
:1027700000F00308584600F0B7F907460BEB4B0092
:1027800000EBCB00864901EB8004029800F00100C9
:1027900008B10120207600BF2078062827D2DFE884
:1027A00000F003062773B2E80020BDE8FE8F07F0B3
:1027B0000200E0B9207ED0B1B8F1020F08D1607EEE
:1027C00030B10320207000206076012000900EE0E0
:1027D000B8F1000F06D1A07E20B1042020700120A6
:1027E000009004E0012600215846FFF791FFCFE05A
:1027F00007F0020050BB207E40B3B8F1010F25D195
:102800000AF0400010B3D4E903100144E160D4E9B8
:102810000201814215D300202070E06928B158469A
:10282000E369D4E90112984706462EB9207828BBFF
:102830005846FFF713FF26E000215846FFF768FFD0
:1028400021E00121584600F0F1F81CE00AF00F00E9
:10285000A0B100202070A06A38B13B4642465146E4
:102860005846D4F828C0E047064646B9207828B92B
:10287000022020700021584600F0D8F803E0002123
:102880005846FFF745FF83E007F0020080BB207E3B
:1028900070B300200090584600F036F981460025BC
:1028A00008E0584600F028F9C1B2E06828446268A0
:1028B00011546D1C4D45F4D30121584600F0A0F988
:1028C000E06800EB0901E160D4E90201814215D31F
:1028D00000202070206A28B15846236AE2686168A7
:1028E000984706462EB9207810B95846FFF7B6FE2D
:1028F00008E000215846FFF70BFF03E0022158468D
:10290000FFF7F0FE44E0207E08B3584600F0FCF8E4
:102910008146B9F1080F20D1002506E0584600F0A5
:10292000EBF8C1B2606941556D1C4D45F6D30121EC
:10293000584600F065F95846626A61699047064654
:1029400036B92078042811D15846FFF787FE0DE0EC
:1029500000215846FFF7DCFE08E00121584600F050
:102960004FF9012600215846FFF7D2FE00200090C3
:102970000EE007F0020050B96078012804D101216F
:102980005846FFF7C5FE02E05846FFF767FE00BF56
:1029900000BF009800287FF4FFAE304605E7000036
:1029A000341200202DE9F04705460E46174698469A
:1029B00005EB450000EBC5000C4901EB8004A07E4F
:1029C00008B1022000E0012081466660A760202156
:1029D00021610021E160C4F81C804946284600F0CE
:1029E00025F8022020700020BDE8F0873412002076
:1029F0002DE9F04105460E461746984605EB450081
:102A000000EBC500084901EB80046660A760002167
:102A10002161E160C4F82080012060762846FFF73C
:102A20001DFE0020BDE8F081341200202DE9F041A8
:102A300006460F4606EB460000EBC600194901EBBF
:102A400080040121304600F0EBF827B1012F03D0BC
:102A5000022F0AD104E008E0304600F087F804E0D5
:102A60000421304600F0B6F800BF00BFD4E90310DF
:102A70000144A068814203D2D4E90310084400E075
:102A8000A0688046E56805E06068415D304600F07A
:102A9000BFF86D1C4545F7D302213046FFF722FEF3
:102AA000BDE8F081341200202DE9F04106460F46C2
:102AB000154606EB460000EBC6000A4901EB800410
:102AC00067610021A1602161E16065620DB10120B3
:102AD00000E00020A0763046FFF7C0FD0020BDE8F2
:102AE000F0810000341200200146024800EB011082
:102AF00000687047000101400146024800EBC11028
:102B000000687047800101400146024800EBC11097
:102B1000C0687047800101400146024800EB011087
:102B200040687047000101400146024800EB011077
:102B3000806870470001014001480068704700004C
:102B40004801014010B5FFF7A5FB10BD00B50220FC
:102B500000F01AF8002300E05B1CB3F57A7FFBD38A
:102B60004FF4003000F010F800BD0000054A02EB01
:102B70000012116881F00401024A02EB0012116098
:102B8000704700000001014000BF054A116882B291
:102B9000114321EA1041034AC2F8801300BF704775
:102BA00080030140000001400149086070470000B7
:102BB0005001014000BF054A116882B2114321EA69
:102BC0001041034AC2F8401100BF70474001014064
:102BD0000000014010B500BF074C04EB0013D3F810
:102BE00000218BB21A4322EA1142044B03EB00137B
:102BF0001A6000BF10BD000000000140000101404C
:102C0000024A02EBC01211617047000080010140CE
:102C1000024A02EBC01211647047000080010140BB
:102C2000024A02EBC01211657047000080010140AA
:102C300000BF054A116882B2114321EA1041034ADC
:102C4000C2F84C1100BF70474C0101400000014028
:102C500001490860704700004801014010B500F0CC
:102C6000C9F8012211460448FFF744FAFEF720FD97
:102C7000FEF738FD002010BD8C11002010B501209A
:102C8000FEF7BCFA00BFFEF7D7FA0128FBD1FEF72A
:102C90007DFA00BFFEF798FA0128FBD1002103203E
:102CA000FEF7CAF80120FEF7C1F8FEF7E5F80128A3
:102CB00001D000BFFEE70020FEF7FEF80120FEF77E
:102CC000F5F84FF48070FEF703F901214805FEF78F
:102CD000CDFA01218805FEF7C9FA0121C805FEF7E2
:102CE000C5FA01210806FEF7C1FA01214806FEF7E0
:102CF000BDFA01214807FEF7B9FA10BD10B5002052
:102D00000D49C870087148718871C8710320087234
:102D100048720120887200208870012008800748CE
:102D2000FDF75EFF012004498870022008800348F7
:102D3000FDF756FF10BD0000F011002000800E408E
:102D400010B500210120FEF777F801218020FEF761
:102D50008DFA00210B48FFF759F84FF416500A4935
:102D60000860602088800020C880088148814FF476
:102D7000407088810348FFF77BF801210148FFF785
:102D800063F810BD00800340FC11002010B56D24D5
:102D9000FFF7B4FFFFF7D4FF114800E0401E002802
:102DA000FCDC00BF08210F48FDF7FEFF00B914E06E
:102DB00080210D48FFF754F80128F3D121460A4835
:102DC000FFF7B2F801200949087000BF0821054843
:102DD000FDF7EAFF00B900E0F8E7002010BD0000B1
:102DE00040420F0000800C40008003401000002093
:102DF00000BFFEE74FF41650034908600020087139
:102E00004871082088717047EC100020704700005E
:102E100070B504460D46012C04D180212C48FDF7E5
:102E2000D9FF04E04FF480712948FDF7D3FF012159
:102E30002848FDF7CFFF4FF480612548FDF7BCFF20
:102E40000520FDF784FE2448406840F03F002249F9
:102E500048602248406840F00C00204948602846FD
:102E6000FEF79CFB0520FDF772FE02211948FDF7D5
:102E7000B1FF0520FDF76BFE02211648FDF79CFF10
:102E80000520FDF764FE144840684FF6C071084005
:102E900011494860114840684FF6F37108400F49E6
:102EA000486001210B48FDF787FF4FF48061084817
:102EB000FDF782FF012C04D180210548FDF77CFF3E
:102EC00004E04FF480710248FDF776FF70BD00000A
:102ED00000000B4000800B4000800A4000800E4044
:102EE0000120FEF78BF900BFFEF7A6F90128FBD100
:102EF000FEF74CF900BFFEF767F90128FBD100216E
:102F0000FDF79AFF0120FDF791FFFDF7B5FF0128BE
:102F100001D000BFFEE70020FDF7CEFF0120FDF746
:102F2000C5FF4FF48070FDF7D3FF01214805FEF780
:102F30009DF901218805FEF799F90121C805FEF7E1
:102F400095F901210806FEF791F901214806FEF7DF
:102F50008DF901214807FEF789F9FDF7FFFDFDF71F
:102F60007FF9FDF711FD00BF0120FEF78FF9044640
:102F700004F001000028F7D10120FDF73FFB00BF5E
:102F80000220FEF783F9044604F001000028F7D17F
:102F90000220FDF733FB0120FDF7CAFC0220FDF7FC
:102FA000C7FC4D484D4908604FF00060091F08609C
:102FB00040134B490860FEF729FC8CE00421494886
:102FC000FDF7F2FE00284BD100BF04214548FDF774
:102FD000EBFE0028F9D04448006848B90120434975
:102FE0000870FDF7CFFA002040490870404908708A
:102FF0003D480068012808D13E490870FEF7DAF91B
:1030000000203C4908703C49087037480068022895
:1030100007D1012039490870FEF78AFF002037499F
:10302000087031480068032809D10120344908702C
:10303000FFF7ACFE002032490870324908702A4878
:103040000068042847D101202F490870FDF740FB94
:1030500000202D4908702D4908702D4908703AE06C
:1030600020212C48FDF7A0FEB8B900BF2021294837
:10307000FDF79AFE0028F9D01B48006820B11A48D5
:103080000068401E184908602348006818B32248A9
:103090000068401E204908601DE002211F48FDF71E
:1030A00083FEC0B900BF02211C48FDF77DFE002849
:1030B000F9D00D480068042804D00B480068401C73
:1030C0000949086014480068022804D012480068C2
:1030D000401C1149086071E70005FA050CED00E09D
:1030E00000E100E000800B400400002012000020FE
:1030F0000F0000200D0000200E0000201100002015
:103100000C000020100000201300002015000020FB
:103110001900002000000B400800002000800C4037
:10312000403100080000002074110000FC0000087D
:10313000D039000874110020DC0700005801000895
:103140000120320110083E7F71594D7F3E274042D9
:103150007F7F404027627359496F66272263494940
:103160007F361008181C16537F7F50272767454568
:103170007D39273C7E4B49793027030371790F074E
:103180004B367F2827064F49693F1E277C7E131345
:103190007E7C4B417F1928081C3E6341416322100D
:1031A0003D41633E1C183C5D4163083C1D0103200A
:1031B00014517372377F7F08087F7F2929312808CF
:1031C000307040417F3F010F3C081C77301D41406B
:1031D0006070281C0E1C0E291E7F7F060C18082903
:1031E00040695814090F063F1E3F21717F5E471545
:1031F00009197F661F266F4D597332B0294122038A
:10320000273F7F60607F3F271F3F60603F1F1E7F1B
:103210007F30183048100863673C183C67631E070E
:103220004F78784FD81008476371594D6773180865
:10323000207454543C784050163F484878301F382A
:103240007C44446C28A01F7848493F7F4010255497
:10325000545C1827487E7F49030238084C5E52525E
:103260007C3E02B824047C784D447D7D40D03C40B7
:103270007D3D983D10386C440929181E7C7C183817
:103280001C283C7C7C042F29601B7C383717787CF9
:1032900054141C081008081C1454787C401008446E
:1032A0007C784C041C1837485C545474241D043E2C
:1032B0007F44081D3C7C404004112F1C3C60603C56
:1032C0001C10167038707C3C3C446C38681D4C5C9B
:1032D00050500F111F4C64745C4C64703E7E13138D
:1032E0007E7C7F4D49497933082B7F360815410193
:1032F00003033808787E3733377E78181C5D4163C6
:1033000078167D5454456C2763147F7F14631E63C5
:103310006349496B3028087F7F30180C7F7F082A6B
:103320001B0829F0141C77631D607F1F034B1918BD
:103330003C0E1C0E201B0808071118081C3E634198
:10334000633E1C101A032049803C090F06181441E3
:1033500063222A03811A036017673C180C07034F86
:103360001E527F7F521E10143C676310083F3F209F
:10337000203F3F6018080F1F18587F7F40481A6091
:1033800002127F1A3F161A20181808017F7F48483A
:103390007830181907112978390F113A36B0123ED2
:1033A0003B7F0881112D667F1909A01008207454F5
:1033B000543C784027307C4A4A7A313F447C7C54E4
:1033C00054280824440C08276038343438601A38EC
:1033D000171B5C18081D7D54545D082744287C7C0D
:1033E00028441E2E4454547C302F7C7C20107C7C3E
:1033F000082B21110819401510386C44100840782A
:103400000C047C7C401808787C0810087C78203AF2
:1034100010282F387C44447C38301A042019303F5F
:10342000787C54141C08181A6C502A088119801FC3
:103430004C5C50507C3C101A549919103C446C3828
:10344000581E3C3C203C3C982C1C10505F111B7CAF
:1034500040023119172A201827443C505070201A76
:10346000400812203A7C081909111A28B01977115E
:10347000199E1B4444092D4028141480A11A603E53
:10348000411A0801211F327B49497B32081D7A48C5
:10349000487A081E081C3E7F1C0141136C02142050
:1034A000BC031B20A4041AAC041A94041A2C042A8A
:1034B0001C0412041B202404291C29105A24206AED
:1034C000B410191C5A9C14290C1A7408A94C290C04
:1034D00029181A7C641A640C2920291C29302938DF
:1034E000690C1AD4045A44346984291C1A8C045A6D
:1034F000FC1C2948291C29482908298429185A8490
:1035000024292009120422841B2074041ADC0409D3
:103510001624091A044B0401040A35EC405A1440DD
:103520000A397C4029C01AFC041A0C0C0926381AE6
:103530009C30293C1ACC082904291429401A940CDF
:103540002990F94C292459045A2C085A34085A3C19
:10355000085A44085A4C085A54085A5C085A6408D5
:103560005A6C0829B8290839FC19045A84085A8C5D
:1035700008298C290829AC6974290869042980293B
:1035800008298029082980290829802908298029D3
:1035900008298029082980290829802908298029C3
:1035A00008298029082980290829802908298029B3
:1035B00008298069EC697429086904298029082987
:1035C0008029082980290829802908298029082993
:1035D0008029082980290829802908298029082983
:1035E0008029082980290829802908298029642917
:1035F0008069EC69742908690429802908298029CF
:103600000829802908298029082980290829802952
:103610000829802908298029082980290829802942
:1036200008298029082980295C298029082980699E
:10363000EC69742908690429802908298029082946
:103640008029082980290829802908298029082912
:103650008029082980290829802908298029082902
:103660008029542980290829802908298069EC6942
:1036700074290869042980290829802908298029B2
:1036800008298029082980290829802908298029D2
:103690000829802908298029082980294C2980297E
:1036A000082980290829802908298069EC6974295A
:1036B00008690429802908298029082980290829DE
:1036C0008029082980290829802908298029082992
:1036D0008029082980294429802908298029082946
:1036E00080290829802908298069EC6974290869DA
:1036F0000429802908298029082980290829802966
:103700000829802908298029082980290829802951
:103710003C2980290829802908298029082980290D
:103720000829802908298069EC6974290869042915
:103730008029082980290829802908298029082921
:1037400080290829802908298029342980290829E5
:103750008029082980290829802908298029082901
:10376000802908298069EC6974290869042980295D
:1037700008298029082980290829802908298029E1
:10378000082980292C2980290829802908298029AD
:1037900008298029082980290829802908298029C1
:1037A00008298069EC697429086904298029082995
:1037B0008029082980290829802908298029242985
:1037C0008029082980290829802908298029082991
:1037D0008029082980290829802908298029082981
:1037E0008069EC69742908690429802908298029DD
:1037F00008298029082980291C298029082980294D
:103800000829802908298029082980290829802950
:103810000829802908298029082980290829806900
:10382000EC69742908690429802908298029082954
:103830008029142980290829802908298029082914
:103840008029082980290829802908298029082910
:103850008029082980290829802908298069EC699C
:103860007429086904298029082980290C298029BC
:1038700008298029082980290829802908298029E0
:1038800008298029082980290829802908298029D0
:10389000082980290829802908298069EC69742968
:1038A00008690429802904298029082980290829F0
:1038B00080290829802908298029082980290829A0
:1038C0008029082980290829802908298029082990
:1038D0008029082980290829802908A9F4797CCA27
:1038E00004041BAC02701A030819041AB404291446
:1038F0001314011B2004042950E93009223C2990AB
:103900001AFC041A0C0C091A4009164429C029444F
:103910000A1DDC8009164029BC29040A11EC401A52
:1039200034301A1C285A8C041AFC042940291C5AC9
:103930009C0C5AA4081A3C04692C29280922401A14
:1039400094041A7C041ABC045ADC1CA940A9045A29
:1039500084BC693C297829405AE4382948091AFC72
:103960000972041A8CB41A54981A64041A3C045A42
:103970001CE0291069CCA91869FC5ACC1C01211340
:10398000127A2612011001025620830425F1150136
:103990000902431302011D803209040E1A020B139F
:1039A000052416100105240110090104240206054E
:1039B00024061701070582032015020904013302BA
:1039C0000A1D07058102702C07050307011B000073
:040000050800019D51
:00000001FF
