:020000040800F2
:10000000900A0020C907000871100008731000084A
:100010007510000877100008791000080000000033
:100020000000000000000000000000007B1000083D
:100030007D100008000000007F10000881100008FB
:1000400083100008851000088710000800000000D9
:1000500000000000891000088B1000088D100008B7
:100060008F10000800000000911000089310000895
:100070009510000800000000971000087113000898
:1000800073130008751300080000000077130008C0
:1000900079130008000000000000000000000000CC
:1000A0000000000000000000000000007B130008BA
:1000B0007D1300087F1300088113000883130008D4
:1000C000DFF80CD001F068FD004800474305000848
:1000D000900A002001B402E00098401E00900098B1
:1000E0000028F9D101B070470146FE4800F05CBD20
:1000F0000146FC4800F066BD2DE9F04105460E467C
:1001000017460024002D0ED93846FFF7EDFF304684
:10011000FFF7E0FF3846FFF7EBFF3046FFF7DAFF67
:10012000641CAC42F0D3BDE8F08170B5EE4C002009
:10013000E07020716071A071E07103212172617221
:100140000125A572A0702580E84E2146304600F0BA
:1001500057FCA5700221218021463046BDE8704041
:1001600000F04EBC70B5E04C0020E0702071607172
:10017000A071E07102212172032161720125A57233
:10018000A07080202080DA4E2146304600F038FCF6
:10019000A5704021218021463046BDE8704000F026
:1001A0002FBC70B5D04C0020E07020716071A07140
:1001B000E0713F212180A07020720125A572657237
:1001C0002146CB4800F01CFC0C2020802146C7486B
:1001D00000F016FC4FF4F0602080A5702146C54861
:1001E00000F00EFC032020802146BDE87040BD4891
:1001F00000F006BCBC48032101800121817000226F
:100200000272817241720146B64800F0F9BB10B526
:10021000B54C602020800020A07020720120A072C8
:1002200060722146B34800F0EBFB04202080214699
:10023000AC4800F0E5FB0A2020802146BDE81040D4
:10024000AD4800F0DDBB10B50021012000F0CCFD71
:100250000121802000F0E6FCA84C0021204600F09F
:10026000A6FBA7494FF41650086060208880002242
:10027000CA800A814A81C0008881204600F0C7FAFE
:100280002046BDE81040012100F01ABB10B504461D
:100290000321022000F0A8FD002000F0D7FD01207E
:1002A00000F0BAFD00F0BBFD30B9012000F0B1FD57
:1002B00000F0B5FD0028F8D04FF4807000F0BEFCCF
:1002C0000121084600F0AEFC8E494FF080700862B4
:1002D0008101012C01D18C488860022C01D18B480E
:1002E0008860002008648A4A1060121D1060032292
:1002F0004A64C1F81002C1F81402C1F81802C1F82A
:100300001C02844A1060121D10600120086010BD9C
:1003100010B50121880300F085FC7A494FF0E060B8
:1003200048627D480021C16001603F2242604FF673
:10033000FF728260016241628162C1620163416356
:100340008163C163416502218165C16841F001019A
:10035000C16010BD70B56D24FFF7E7FEFFF773FFB6
:10036000654E664D0821304600F015FCB8B180217D
:10037000284600F015FB0128F4D121462C462046E2
:1003800000F0D9FA4021204600F00AFB0128F9D1FB
:10039000204600F0D4FAC1B2204600F0CCFA00208A
:1003A00070BDFFF7DFFE0120FFF770FF41F6082464
:1003B000DFF868C121250022E0060326D0F81812D4
:1003C000D0F81C324264C0F81022C0F81422C0F8E1
:1003D0001822C0F81C22C0F800C2C0F80442C0F8BD
:1003E0000812C0F80C320564016C11F0200FFBD12B
:1003F00002644664E2E72DE9F047FFF7B3FE02200E
:10040000FFF744FF3C4E454F002541F608284FF0CA
:100410002109F4034FF0030A0821304600F0BBFB2A
:1004200018B3D4F8140210F0080FF5D0D4F818025D
:10043000D4F81C126564C4F81052C4F81452C4F8FD
:100440001852C4F81C52C4F80072C4F80482C4F8EC
:100450000802C4F80C12C4F84090206C10F0200F71
:10046000FBD12564C4F844A0D6E7012000F018FCB5
:1004700000F0FFFB002000F0E1FB2248C168C560EE
:100480004168456081688560BDE8F0872DE9F05FCF
:10049000DFF88C90234C244FDFF848A0DFF858B0E9
:1004A0004FF000084FF480454FF0E02684F80080BC
:1004B0000020401C4845FCDBC6F88051012239462B
:1004C0000520FFF719FE022239460520FFF714FE2A
:1004D00001202070C6F800510421504600F05BFB5B
:1004E000002823E000800B407006002000800E40B2
:1004F00000800A4000000B4000800C400080034058
:100500007C060020000002400400210F0100510A77
:100510000005004008050040000007406700AA15DC
:1005200040420F0004000020A0860100BED0082138
:10053000584600F030FB0028CED184F80080BDE89A
:10054000F09F012000F004FC00F015FC0128FBD115
:1005500000F0D4FB00F0E5FB0128FBD101214005B0
:1005600000F060FB0121880500F05CFB0121C8055B
:1005700000F058FB0121080600F054FB0121480659
:1005800000F050FB0121480700F04CFB01218807D7
:1005900000F048FBFFF705FEFFF739FE01F0D6F942
:1005A000012000F040FF10F0010FF9D1012000F010
:1005B00095FF022000F037FF10F0010FF9D1022063
:1005C00000F08CFF012001F0F6F9022001F0F3F9B0
:1005D000494948480860091F4FF0006008604749D2
:1005E00040130860FFF794FEDFF814910026454C95
:1005F000454FDFF81881DFF818A10125042148468E
:1006000000F0C9FA18B32021404600F0C4FA0028CF
:100610003DD00221384600F0BEFA00284CD0082117
:10062000384600F0B8FA002857D04021404600F084
:10063000B2FA0028E2D14021404600F0ACFA00288E
:10064000F9D0012251460520FFF756FDD6E70421D7
:10065000484600F0A0FA0028F9D0A06818B9257122
:10066000FFF714FF2671A068012803D16570FFF71A
:1006700071FE6670A068022806D00328BED1E5701E
:10068000FFF7B9FEE670B9E7A570FFF78AFE2021F3
:10069000404600F080FA0028F9D0A06808B1401E5A
:1006A000A060E06810B1401EE060A7E7012251465B
:1006B0000520FFF721FDA1E70221384600F06BFA83
:1006C0000028F9D0A068032801D0401CA060E06891
:1006D000022893D0401CE06090E70821384600F0E3
:1006E0005AFA0028F9D0022251460520FFF704FDEE
:1006F00084E700000005FA050CED00E000E100E0F1
:1007000000800B400400002000800C4000000B40E3
:10071000A0860100264BD868DFF898C010F0020FC1
:1007200001D0604600E06046D96811F0010F00D0AA
:100730002148D96811F0040F04D05968C1F303119E
:10074000491C484359681D4AC1F3012139B10129A7
:1007500008D002290ED049F6404010607047C2F818
:1007600000C07047D968C1F30311491CB0FBF1F018
:10077000106070474FF40040106070470C481049FB
:10078000C1611049CA6B42F48102CA63CA6B02F4A8
:100790008102CA63C1680021C16042684160826809
:1007A0008160026901614269416182698161B1E7E9
:1007B0000000024000127A0000093D0014000020F1
:1007C0001000000800800D4006488047064800479A
:1007D000FEE7FEE7FEE7FEE7FEE7FEE7FEE7FEE7F1
:1007E000FEE7FEE77D070008C10000080021016365
:1007F000C162416090228261016241628162022293
:100800004263816381644FF440710163704730B586
:1008100085B004460D46684600F07EFB009872499C
:10082000896A0122A4F18043B3F5403305D0A4F1D5
:100830008043B3F5603307D00CE001F0070102FA02
:1008400001F1B0FBF1F005E0C1F3022102FA01F180
:10085000B0FBF1F02A689108B0FBF1F3990903F0BD
:100860003F03800003EB811CB0FBFCF0801AC00149
:10087000B0FBF2F0022802D905B0002030BD616261
:10088000A362E06AA988EA886B8911432A891A431E
:1008900011430843E062206B6FF3CF10A98908432E
:1008A000206305B0012030BD4FF4165101600021D6
:1008B0008180C180018141814FF440718181704705
:1008C000002904D0016B41F0010101637047016B05
:1008D0004FF6FE72114001637047002A03D0826B0D
:1008E000114381637047826B22EA01018163704783
:1008F000C06B31EA000001D0002070470120704732
:10090000006C084201D00120704700207047426C03
:1009100011434164704742EAC10141637047002AB4
:1009200003D0826C114381647047826CC94389B2E1
:10093000114081647047C1F308010160704700688D
:1009400080B27047002904D0C16A41F00101C16240
:100950007047C16A4FF6FE721143C162704730B5ED
:1009600085B004460D46042D08D1684600F0D4FA3F
:1009700000984FF4E111B0FBF1F02062206B2843A6
:10098000206305B030BD002904D0016B41F00201A5
:1009900001637047016B4FF6FD72114301637047AD
:1009A0008069084201D001207047002070470E4B3B
:1009B0009A6AA0F1804CBCF5403C05D0A0F1804C77
:1009C000BCF5603C07D00CE042F0807020F0FF00E6
:1009D00040EA010205E042F0007020F47F4040EA66
:1009E00001229A6270470000000002400021C160AD
:1009F000016141600160816041618161C161704755
:100A00002DE9F04F83B046688768D0F80C80D0F8A5
:100A100010B0D0F8149082690192C269009200224D
:100A2000012303244FF00115B1F800C0BCF1000F01
:100A30005DD01CF0010F51D091F802A09E430AFA3C
:100A400002FA46EA0A0691F808E04FEA420ACDF8AF
:100A500008A00EFA0AFAA7434AEA070791F80AA083
:100A600028EA03080AFA02FA48EA0A0891F803E0B9
:100A700002F1100A2BEA050B0EFA0AFE4BEA0E0BE6
:100A800091F804E00EFA02FE4BEA0E0B91F805E035
:100A900029EA05090EFA0AFA49EA0A0991F806A0B4
:100AA0000AFA02FA49EA0A0991F809E0DDF808A011
:100AB0000EFA0AFEDDF804A02AEA040A4EEA0A0A3F
:100AC000CDF804A0DDF800A091F807E02AEA030AB7
:100AD0000EFA02FE4AEA0E0ACDF800A05B00A4005E
:100AE0006D00521C4FEA5C0CBCF1000FA1D14C49C7
:100AF000884202D14FF01F0101E04FF0000126EAC9
:100B00000101416002D14FF01F0101E04FF00001EF
:100B100027EA0101816002D14FF01F0101E04FF08F
:100B2000000128EA0101C16002D14FF01F0101E07C
:100B30004FF000012BEA0101016102D14FF01F01CA
:100B400001E04FF0000129EA0101416102D14FF0BB
:100B50001F0101E04FF00001019A22EA01018161C9
:100B600002D14FF01F0101E04FF00001009A22EA8C
:100B70000101C16103B0BDE8F08F4FF6FF71018044
:100B800000218170C170017141718171C171017267
:100B90004172817270470068084201D0012070479D
:100BA00000207047006870470368A0F18042B2F5EA
:100BB000302205D0002223EA02021143016070476F
:100BC0001F22F8E70368A0F18042B2F5302205D079
:100BD0000022114323EA0101016070471F22F8E758
:100BE000D0F800C0A0F18043B3F5302306D0002335
:100BF0002CEA030322B11943016070471F23F7E772
:100C000023EA010101607047A0F18042B2F5302271
:100C100003D000229143016070471F22FAE70000D1
:100C200000000B40FC4A002903D0D1690843D06181
:100C30007047D16921EA0000D0617047F64AD16857
:100C400021F440710843D060704700F0E001202992
:100C50000AD0F249C96B00F01F00012202FA00F02D
:100C6000084204D001207047EB490968F3E70020EF
:100C7000704708B5002000901720FFF7E6FF0099A5
:100C8000491C00910099B1F5C06F01D20028F3D042
:100C90001720FFF7DAFF08B1012008BD002008BDCA
:100CA000DF490860704700B50120FFF7F9FFFFF743
:100CB000E0FF0020FFF7C2FFD748C1680021C160F4
:100CC00042684160826881600269016142694161F4
:100CD00082698161D349C16100BD00B5FFF7E3FFBF
:100CE0000121C806FFF79EFFCC48C16B41F481018A
:100CF000C163C16B01F48101C16300BDC6498A684B
:100D000022F003028A60012806D0022803D18868F5
:100D100040F0030088607047886840F001008860F8
:100D2000704708B5002000902220FFF78EFF009941
:100D3000491C00910099B1F5C06F01D20028F3D091
:100D40002220FFF782FF08B1012008BD002008BD66
:100D5000B249CA6B22F00302CA63012806D00228F6
:100D600003D1C86B40F00300C8637047C86B40F004
:100D70000100C863704708B5002000900D20FFF700
:100D800064FF0099491C00910099B1F5C06F01D230
:100D90000028F3D00D20FFF758FF08B1012008BD4F
:100DA000002008BD9D4AD16B21F07C5141EA0060D2
:100DB000D06370479C490860704708B500200090D8
:100DC0001520FFF742FF0099491C00910099B1F5E9
:100DD000C06F01D20028F3D01520FFF736FF08B10D
:100DE000012008BD002008BD8B4AD36823F003030F
:100DF0001843D060506820F4706040EA01205060D1
:100E00008A48D0F88810002902D00121C0F88C103F
:100E1000704787490860704786490860704708B581
:100E2000002000902120FFF710FF0099491C00913D
:100E30000099B1F5C06F01D20028F3D02120FFF74F
:100E400004FF08B1012008BD002008BD724AD16826
:100E500021F0F0010843D06070476F4A136923F016
:100E6000030318431061506820F0F00040EA0110BD
:100E700050606E48D0F88010002902D00121C0F8DF
:100E8000841070476C49086070476C49086070476F
:100E900008B5002000902020FFF7D7FE0099491CDC
:100EA00000910099B1F5C06F01D20028F3D0202045
:100EB000FFF7CBFE08B1012008BD002008BD604946
:100EC000086070475F4908607047534A516921F0D4
:100ED00033010843506170474F4A516921F47061F2
:100EE00041EA0020506170475749086070474A4AFC
:100EF000916921F0F00141EA001090617047534977
:100F000008607047444A916921F00F0108439061DD
:100F100070474F4908607047F0B4444DD5F88411CC
:100F20004C4F002901D03B4600E03B46D5F88011EC
:100F3000DFF824C101B163461946D5F88821364E41
:100F400022B17268C2F30322521C5143F268C2F309
:100F500001225AB1012A0BD0022A1AD049F6404286
:100F60000260D5F80422C2B13A4617E00760F8E7FC
:100F7000F26812F0800F0AD0F268C2F30212521C1B
:100F8000012404FA02F2B1FBF2F20260E9E70A4638
:100F9000FBE74FF400420260E3E73A46D5F800422F
:100FA00004B162469446D5F808422CB17468C4F383
:100FB0000314641C0CFB04FC6446D5F8105205B104
:100FC00064084460B469C4F30314641CB7FBF4F50B
:100FD000C560B46904F00F04641CB7FBF4F4046149
:100FE000746914F0030439D0012C39D0022C00D0DC
:100FF00061467269C2F301126AB1012A35D0022A30
:1010000000D029467269C2F30322521CB1FBF2F1EF
:101010008160F0BC704725E00000024000800D4078
:10102000D807B04310000008BC07B043000040429E
:10103000880140428800404208024042800040420D
:101040002002404210024042B40240422403404287
:101050002003404200127A0000093D001946C8E70B
:101060001146C6E74FF40041CCE749F64041C9E7D5
:101070007047FEE7FEE7FEE7FEE770477047704700
:1010800070477047704770477047704770477047A8
:10109000704770477047F8B5BA4800254565BA49AA
:1010A000086800282BD1012008600022009001234D
:1010B0001146B64800F02DFD00220821B44800F08A
:1010C00085FC00220921B34800F080FC00220A219F
:1010D000B14800F07BFC00220B21B04800F076FC08
:1010E00000220C21AE4800F071FC00220D21AD4819
:1010F00000F06CFC00220E21AB4800F067FCAB4C0A
:1011000051220721AA48236800F0C3FC0028F7D029
:101110002068401C2060612800D12560A548007827
:10112000012812D0A448007801282BD0A3480078C9
:10113000012844D0A248007801285DD0A14FA24DDB
:10114000A24E386800287DD0ADE00321A04800F011
:1011500060FC03220F219F4800F038FC04219E48C8
:1011600000F057FC04220F219A4800F02FFC0521C3
:10117000974800F04EFCBDE8F84005220F21954845
:1011800000F024BC0321924800F043FC03220F210D
:10119000904800F01BFC0421904800F03AFC042227
:1011A0000F218C4800F012FC0521894800F031FC29
:1011B000BDE8F84005220F21864800F007BC032156
:1011C000834800F026FC03220F21824800F0FEFB3A
:1011D0000421824800F01DFC04220F217D4800F00C
:1011E000F5FB05217A4800F014FCBDE8F840052223
:1011F0000F21784800F0EABB0321794800F009FC90
:101200000421734800F005FC04220F21714800F00E
:10121000DDFB7448007801280AD005216C4800F0F5
:10122000F8FBBDE8F84005220F216A4800F0CEBB6C
:1012300005216D4800F0EDFBBDE8F84005220F21C7
:10124000644800E001E000F0C1BB002428680322EC
:1012500004EB0010214656F8200000F0B7FB641C98
:10126000102CF3DB002428680422401C04EB00103F
:10127000214656F8200000F0A9FB641C102CF2DB7C
:10128000002428680522801C04EB0010214656F833
:10129000200000F09BFB641C102CF2DB03220F21CA
:1012A000524800F093FB386801282DD100242868AB
:1012B0000322401E04EB0010214656F8200000F0E7
:1012C00085FB641C102CF2DB00242868042204EB4C
:1012D0000010214656F8200000F078FB641C102C0A
:1012E000F3DB002428680522401C04EB0010214693
:1012F00056F8200000F06AFB641C102CF2DB04227C
:101300000F213A4800F062FB386802282FD10024F0
:1013100028680322801E04EB0010214656F82000A6
:1013200000F054FB641C102CF2DB0024286804221B
:10133000401E04EB0010214656F8200000F046FB4A
:10134000641C102CF2DB00242868052204EB00103A
:10135000214656F8200000F039FB641C102CF3DB0A
:10136000BDE8F84005220F21204800F02FBBF8BD52
:1013700070477047704770477047704770477047B5
:1013800070477047000007400000002094010020D3
:101390004C010020640100206C0100205401002059
:1013A000740100205C0100207C0100204801002025
:1013B000B4010020050000200600002007000020E6
:1013C00008000020100000200C000020F80200207F
:1013D0007805002084010020B8040020F8040020D3
:1013E0003805002004000020B80500208C010020F2
:1013F000FE490A684FF6C0731A400A600A6800F096
:101400003F031A430A60FA490A684FF6F3731A4019
:101410000A600A680C2303EA101010430860704742
:10142000401EFDD270472DE9F0410446EF4D68683B
:101430004FF6C07108406860ED4E70684FF6F3716A
:1014400008407060EB4F012C3ED0A9153846FFF7DD
:10145000ABFBDFF8A48301214046FFF7B3FB4FF459
:1014600080613846FFF7A0FB0520FFF7D9FF022176
:101470004046FFF799FB0520FFF7D2FF2868316847
:1014800000F03F00C02202EA011140EA01050520F8
:10149000FFF7C6FF02214046FFF794FB0520FFF748
:1014A000BFFF01214046FFF78DFB4FF480613846B6
:1014B000FFF788FB012C0CD04FF480713846FFF702
:1014C00081FB2846BDE8F08180213846FFF76CFBA0
:1014D000BFE780213846FFF775FBF2E72DE9F041C1
:1014E0000446C44F012C49D0B9153846FFF75CFBC0
:1014F000DFF8048301214046FFF764FB4FF480616D
:101500003846FFF75FFB0520FFF78AFFB74D686895
:1015100040F03F006860B64E706840F00C007060AC
:101520003F20FFF765FF0520FFF77AFF02214046C5
:10153000FFF73AFB0520FFF773FF02214046FFF754
:1015400041FB0520FFF76CFF01214046FFF73AFB06
:1015500029153846FFF736FB68684FF6C07108401A
:10156000686070684FF6F37108407060012C0AD013
:10157000A9153846BDE8F041FFF724BB8021384665
:10158000FFF712FBB4E73846BDE8F0418021FFF7D2
:1015900019BB2DE9F0410446964F012C49D0B915ED
:1015A0003846FFF701FBDFF8508201214046FFF784
:1015B00009FB4FF480613846FFF704FB0520FFF775
:1015C0002FFF8A4D686840F03F006860884E706861
:1015D00040F00C0070603E20FFF70AFF0520FFF787
:1015E0001FFF02214046FFF7DFFA0520FFF718FF33
:1015F00002214046FFF7E6FA0520FFF711FF01211F
:101600004046FFF7DFFA29153846FFF7DBFA68682E
:101610004FF6C0710840686070684FF6F37108407B
:101620007060012C0AD0A9153846BDE8F041FFF7DB
:10163000C9BA80213846FFF7B7FAB4E73846BDE8A3
:10164000F0418021FFF7BEBA2DE9F04704460F466E
:10165000DFF8A081012C4BD04FF480714046FFF79A
:10166000A3FADFF8949101214846FFF7ABFA4FF453
:1016700080614046FFF7A6FA0520FFF7D1FE5B4DDB
:10168000686840F03F006860594E706840F00C0098
:10169000706047F0B800FFF7ABFE0520FFF7C0FE13
:1016A00002214846FFF780FA0520FFF7B9FE022124
:1016B0004846FFF787FA0520FFF7B2FE68684FF645
:1016C000C0710840686070684FF6F3710840706040
:1016D00001214846FFF776FA29154046FFF772FACE
:1016E000012C0AD0A9154046BDE8F047FFF76ABAB9
:1016F00080214046FFF758FAB3E74046BDE8F0477F
:101700008021FFF75FBA2DE9F04704460F46DFF866
:10171000E480012C4BD04FF480714046FFF744FA2F
:10172000DFF8D49001214846FFF74CFA4FF480616E
:101730004046FFF747FA0520FFF772FE2B4D686819
:1017400040F03F0068602A4E706840F00C00706006
:1017500047F04000FFF74CFE0520FFF761FE022135
:101760004846FFF721FA0520FFF75AFE02214846B6
:10177000FFF728FA0520FFF753FE68684FF6C0719F
:101780000840686070684FF6F3710840706001218E
:101790004846FFF717FA29154046FFF713FA012CC0
:1017A0000AD0A9154046BDE8F047FFF70BBA8021E3
:1017B0004046FFF7F9F9B3E74046BDE8F04780211E
:1017C000FFF700BA2DE9F04704468946094F012C7E
:1017D00052D0B9153846FFF7E7F9DFF81C80012130
:1017E0004046FFF7E1F94FF4806107E000800A40CE
:1017F00000800E4000000B4000800B403846FFF791
:10180000E1F90520FFF70CFEDF4D686840F03F006E
:101810006860DE4E706840F00C0070604846FFF76C
:10182000E7FD0520FFF7FCFD02214046FFF7BCF96C
:101830000520FFF7F5FD02214046FFF7C3F905201B
:10184000FFF7EEFD68684FF6C07108406860706889
:101850004FF6F3710840706001214046FFF7B2F97E
:1018600029153846FFF7AEF9012C0AD0A9153846DC
:10187000BDE8F047FFF7A6B980213846FFF794F995
:10188000ABE73846BDE8F0478021FFF79BB92DE96B
:10189000F0420446BE4F012C4ED0B9153846FFF732
:1018A00083F9DFF8F09201214846FFF77DF94FF404
:1018B00080613846FFF778F90520FFF7B1FDB24E99
:1018C00070684FF6C07108407060B04D68684FF6A0
:1018D000F371084068604046FFF78AFD0520FFF776
:1018E0009FFD02214846FFF75FF90520FFF798FDAD
:1018F0003068296800F03F00C02202EA011140EA86
:1019000001050520FFF78CFD02214846FFF75AF933
:101910000520FFF785FD01214846FFF753F93115F2
:101920003846FFF74FF9012C0BD0B1153846FFF7B9
:1019300049F92846BDE8F08280213846FFF734F99E
:10194000AFE780213846FFF73DF9F2E710B5904C3C
:101950004FF400712046FFF735F9C820FFF760FD0E
:1019600061152046FFF720F90120FFF75CFD00F02C
:1019700090040220FFF757FD00F09000002C01D0EA
:101980000028F1D110BD70B505462846FFF75CFE72
:1019900000212846FFF7B7FE00242846FFF743FD45
:1019A00010F0010FF9D100212846FFF70BFF641C4E
:1019B000402CF2DB70BD70B505460024E1B228462C
:1019C000FFF7E1FF641C082CF8DB70BD70B506461C
:1019D000C81701EB5070012303EBE00420F007006F
:1019E000081AC500D1B2E0B2FFF72EFEE9B2E0B2AC
:1019F000FFF789FE0025E0B2FFF715FD10F0010F9B
:101A0000F9D1715DE0B2FFF7DDFE6D1C082DF2DB50
:101A100070BD2DE9F04105460F46F9B20120FFF7F0
:101A200013FE00210120FFF76EFE00260024012096
:101A3000FFF7F9FC10F0010FF9D155F82600015D10
:101A40000120FFF7BFFE641C082CF0DB761C082E7B
:101A5000ECDBF9B20220FFF7F7FD00210220FFF7CF
:101A600052FE0026002406F108070220FFF7DBFCE7
:101A700010F0010FF9D155F82700015D0220FFF7A2
:101A8000A1FE641C082CF0DB761C082EEADBBDE806
:101A9000F08170B592B04FF0000CCDF800C0CDF8D9
:101AA00004C06D4602AC0F2B17DA002203EB020CC8
:101AB000BCF10F0F02DA44F8225007E002EB030CEE
:101AC000ACF10F0C50F82CC044F822C0521C102A64
:101AD000ECDB02A8FFF79DFF18E04FF0000C03EBD2
:101AE0000C060F3E964202DB44F82C5006E00CEB4D
:101AF00003060F3E50F8266044F82C600CF1010CF0
:101B0000BCF1100FEBDB02A8FFF783FF12B001203E
:101B100070BD2DE9FF5F8146DDF838A088469B4601
:101B20000027D8452DDC029E564526DCF01706EB33
:101B30005070012101EBE00520F00700301AC400CD
:101B400008F0FF01E8B2FFF77FFDE1B2E8B2FFF76E
:101B5000DAFD0024E8B2FFF766FC10F0010FF9D1BE
:101B6000381919F80010E8B2FFF72CFE641C082C95
:101B7000F0DB0837761C5645D8DD08F10108D8455A
:101B8000D1DD04B0BDE8F09F00800A4000800E4027
:101B900000000B4000800B40064C074D06E0E0685B
:101BA00040F0010394E8070098471034AC42F6D3A4
:101BB000FEF78AFA381C0008581C000870B58D180A
:101BC00010F8014B14F0030201D110F8012B23117E
:101BD00006D110F8013B03E010F8016B01F8016B2E
:101BE000521EF9D1ABB110F8012B04F00C048A1A83
:101BF0000C2C03D0A2EB84129B1C08E010F8014BC4
:101C0000A2EB0422F8E712F8014B01F8014B5B1E2E
:101C1000F9D5A942D4D3002070BD02E008C8121F34
:101C200008C1002AFAD170477047002001E001C1C5
:101C3000121F002AFBD17047581C0008000000202A
:101C400070060000BC1B0008601F00087006002022
:101C5000200400002A1C0008021200012053127AFE
:101C6000003E7F71594D7F3E0040427F7F404000E3
:101C700000627359496F660000276745457D39004A
:101C8000003C7E4B4979300000367F49497F360061
:101C900000064F49693F1E00007C7E13137E7C00C6
:101CA000001C3E634141632200417F7F41633E1C33
:101CB000083005495D416308300C1D0103007F7F3A
:101CC00008087F7F002010044060701010040E1C74
:101CD0000E1110067F7F060C180821405138200F86
:101CE00009197F6600266F4D5973320000033110C9
:101CF0001A0300003F7F60607F3F0000207454544F
:101D00003C784000307848493F7FA91004447D7DED
:101D1000063159210810087C7C18381C7C7808137F
:101D2000040407101000447C784C041C18000004C4
:101D30003E7F4424C810047C4040041108700670A3
:101D400038707C3CC021B021D9216F70040103039D
:101D5000C01006636349496B1810067F7F30180C6A
:101D6000B011A03405081C77633761C46194200763
:101D700060383434386084100420107C54100640DD
:101D8000780C047C6C30047C7C1010740844787CE3
:101D900054141C08771006081C3E7F1C0122FE010B
:101DA00030077E1E06061E7E0B101E7F5F47417C9D
:101DB0007870606070787C41475F7FF80500205044
:101DC0000600206C0100205404125C081238101226
:101DD000581412741012600C12200C12841843282C
:101DE000061C123020524034431806185250242149
:101DF0001C52642C527C4C61382150925018217432
:101E00006144612C52106C16208F12480415861301
:101E1000203804221880420114211C430806246241
:101E20006878118C12105021D021402200A4420168
:101E3000042198434C019861E85274EC218C614470
:101E400092080421581AE01312D00412D80812C0C4
:101E50000812E81012C80852F078210852006001F8
:101E600012042280A0110415B700041820A800282D
:101E700001160412B83C12503C12A0800229B04056
:101E80005258388790004C162848033430004021BF
:101E9000385218040126C4477000005250FC063125
:101EA000780052A0C8022D883C566830567880567B
:101EB000A00C06196848295029889A48CC25089210
:101EC00098805A40C829344BF80048011E40A54864
:101ED00001164001123C9A38A46D50035E54400331
:101EE0000E11383003014E045E2008046170521058
:101EF000FC01122C6D60052C057F7F030388056DA6
:101F000058051806447C7C5454791238071A5C3DF5
:101F10003C057C7C2111AC041DB5041C0A386C44C2
:101F200000787C08100850051C06387C44447CE589
:101F3000033D58051DDC0421101A6CB11208411E26
:101F400044D3042C041C1050EB041C0800403C50EB
:101F500050200011061F0060530303000000000022
:04000005080000C12E
:00000001FF
