:020000040800F2
:10000000201800209D010008410B00087908000815
:10001000C70A00085B020008791E00080000000003
:10002000000000000000000000000000451400086F
:100030007B06000800000000570D00082D16000880
:10004000A502000821030008B70100080000000015
:100050000000000079060008411C0008431C00084D
:10006000B9120008000000007D080008550D0008C6
:100070007D1E000800000000511700083D1C00080C
:100080003F1C00085702000800000000510600084D
:100090001513000800000000000000000000000030
:1000A00000000000000000000000000059020008ED
:1000B000490700084B0700084D0700084F070008D4
:1000C00000F002F800F05AF80AA090E8000C824410
:1000D0008344AAF10107DA4501D100F04FF8AFF2ED
:1000E000090EBAE80F0013F0010F18BFFB1A43F016
:1000F00001031847A8200000C82000000A444FF060
:10010000000C10F8013B13F0070408BF10F8014B76
:100110001D1108BF10F8015B641E05D010F8016BBB
:10012000641E01F8016BF9D113F0080F1EBF10F81F
:10013000014BAD1C0C1B09D16D1E58BF01F801CB42
:10014000FAD505E014F8016B01F8016B6D1EF9D5C5
:100150009142D6D3704700000023002400250026DA
:10016000103A28BF78C1FBD8520728BF30C148BF1A
:100170000B6070471FB51FBD10B510BD00F031F802
:100180001146FFF7F7FF01F0E3FE00F04FF803B46C
:10019000FFF7F2FF03BC00F057F800000948804762
:1001A00009480047FEE7FEE7FEE7FEE7FEE7FEE759
:1001B000FEE7FEE7FEE7FEE704480549054A064B71
:1001C00070470000C1160008C1000008201200207E
:1001D00020180020201400202014002070477047B1
:1001E0007047754600F02CF8AE4605006946534648
:1001F00020F00700854618B020B5FFF7DDFFBDE809
:1002000020404FF000064FF000074FF000084FF07D
:10021000000B21F00701AC46ACE8C009ACE8C0090E
:10022000ACE8C009ACE8C0098D46704710B504467B
:10023000AFF300802046BDE81040FFF7A8BF0000E4
:1002400000487047C011002001491820ABBEFEE7EE
:100250002600020070477047704700BFFEE70000AD
:1002600010B560200B4908800020887008720120BA
:1002700088724872084800F065FC0420054908802F
:10028000064800F05FFC0A2002490880044800F09C
:1002900059FC10BD6C11002000000B4000800B4089
:1002A00000800C401FB56A46164801684FF0804038
:1002B00000F073F814480078B8B9144900988842DF
:1002C0000FD19DF8050001280BD19DF806000428E8
:1002D00007D10F490298884203D101200D490870C7
:1002E00009E002200B49087005E00B4902980870EC
:1002F00001200A490870012202480168900700F0B5
:100300008CF81FBD60110020531100205555551564
:1003100078563412511100205C1100205511002034
:100320007047000002460B4B186AB2F1804F05D1AE
:1003300040F0807020F0FF00084308E0064B9A422E
:1003400005D140F0007020F47F4040EA0120014BCD
:100350001862704700000240008000400A460168B1
:1003600012B141F0010101E021F00101016070478B
:1003700000220260426082600261C261C0F8C02057
:10038000C0F8C820002105E0002300F1400242F837
:100390002130491C2029F7D370472DE9F04105464B
:1003A0000E46144605F5007101EB0611081D00F01C
:1003B00081F8074607F00F00A0710020607107F474
:1003C000805008B1012060710020207105F14001CA
:1003D00001EB860000F06EF8074607F0040008B154
:1003E0000120207105F5007101EB061000F062F8A4
:1003F000206005F5007101EB061101F1080000F025
:1004000059F8A06005F5007101EB061101F10C002F
:1004100000F050F8E060BDE8F08110B500F1400454
:1004200054F82130012A02D123F0400303E0022ACC
:1004300001D143F0200300F1400444F8213010BD05
:100440001AB103690B43036102E003698B43036143
:10045000704770B500220D780DB142F010024D7852
:100460000DB142F008028D780DB142F00402CD7852
:100470000DB142F002020260D1E901563544CE6866
:1004800035440E6935440E8BAC194D692C4384609C
:1004900000230AE0002600F5A06505EBC3056E60A9
:1004A00000F5A06545F833605B1C202BF2D38D7EF0
:1004B000C56170BD014672B6086800B9086862B6C9
:1004C000704710B5002302B1042343F0030300F189
:1004D000400444F8213010BD10B51346D0F8C020B8
:1004E0000BB10A4300E08A43C0F8C02010BD0000F1
:1004F00010B588B00021012000F050FC002401213B
:10050000112000F065FE00214FF08040FFF70AFF48
:100510004FF08040FFF72CFF01A800F04FF80120BA
:100520008DF804008DF8050000208DF806008DF888
:1005300007004FF480300290000103908000049087
:10054000C0000590800006900120ADF81C0001A9B4
:100550008007FFF77EFF01218807FFF7FFFE0020DD
:10056000012181404209920002F1E022C2F800110B
:1005700000BF012203219007FFF762FF0D480268C8
:10058000012000FA02F102468007FFF7A5FF0A48A2
:100590000268012000FA02F10246800700F021F80B
:1005A0000022044801684FF08040FFF78AFF08B03E
:1005B00010BD0000601100206411002000210170B6
:1005C00041708170C17041604FF4002181604FF033
:1005D000A071C1600021016141610183FF21817629
:1005E000704710B51346D0F8C8200BB10A4300E09D
:1005F0008A43C0F8C82010BD0EB500208DF8030056
:100600008DF804008DF805008DF806008DF80700C0
:1006100002208DF8080003208DF8090001208DF8D4
:100620000A0000208DF802008020ADF80000694625
:10063000064800F087FA01208DF802004020ADF84E
:1006400000006946014800F07DFA0EBD00800A40B6
:100650007047000010B5FFF7CFFFFFF749FF00BF5D
:100660000821044800F052FB00B900E0F8E7002040
:1006700010BD000000800C407047704710B5044664
:10068000012C04D180212C4800F056FB04E04FF4EB
:100690008071294800F050FB0121284800F03EFB02
:1006A0004FF48061244800F039FB052000F00DFA7A
:1006B0002348406840F03F00214948602148406895
:1006C00040F00C001F4948603F2000F025FF052046
:1006D00000F0FBF90221194800F02EFB052000F084
:1006E000F4F90221154800F019FB052000F0EDF99E
:1006F0000121124800F012FB4FF480610E4800F017
:100700000DFB0F4840684FF6C07108400C49486027
:100710000C4840684FF6F37108400A494860012CC4
:1007200004D18021044800F0F9FA04E04FF480710C
:10073000014800F0F3FA10BD00000B4000800B40B0
:1007400000800A4000800E40704770477047704735
:1007500010B579E001203D49087000203C4908703F
:1007600000F0FAFA00F0AAFD00BF0821394800F0B5
:10077000CDFA00B969E00421374800F036FE0028C0
:10078000F3D0354800F04CFE3449087000BF01201A
:100790002F49087000BF08212E4800F0B7FA00B9B1
:1007A00053E004212E4800F0B1FA0028F3D1274984
:1007B00008702749087001202A49087001F0E2FA00
:1007C00001F002FB00BF0821224800F09FFA00B9A7
:1007D0003BE08021244801F05FFA0128F3D11F4853
:1007E0000078401C1D490870084601781E4801F039
:1007F000B7FA1E4800E0401E0028FCDC00BF0821BC
:10080000144800F083FA00B91FE00421144800F0F6
:100810007DFA0028F3D113490870012014490870AB
:10082000002014490870FFF7E7FEFFF761FE0F484C
:1008300000E0401E0028FCDC00BF0821054800F055
:1008400065FA00B901E0F8E784E710BD5711002010
:100850005811002000800C4000000A405C1100206C
:1008600000800B40561100200080034040420F00E2
:10087000541100205511002000BFFEE77047000012
:1008800001460A465000074B53F82000064BD8613A
:10089000012000EB4200034B53F82000024B18628A
:1008A000184670473C060020FC10002070B5054635
:1008B000002404E0E1B2284600F004F8641C082C8F
:1008C000F8DB70BD2DE9F04106460F46394630464B
:1008D00000F044FE0021304600F0B6FD00250DE09A
:1008E00000BF304600F084FC044604F001000028FC
:1008F000F7D10021304601F0C3FA6D1C402DEFDB2B
:10090000BDE8F08170B54FF400710D4800F006FAB3
:10091000C82000F0DAF84FF40071094800F00CFA32
:1009200000BF012000F064FC00F09005022000F000
:100930005FFC00F090040DB1002CF2D170BD0000FE
:1009400000000B402DE9F05F81460C46164620461C
:10095000E11704EB5171C9104D1CB2462046E11756
:1009600004EB5171C910A4EBC1014FEAC10B0AF0AD
:10097000FF01E8B200F0F2FD0BF0FF01E8B200F079
:1009800063FD00270EE000BFE8B200F031FC8046B6
:1009900008F001000028F7D119F80710E8B201F0BB
:1009A0006FFA7F1C082FEEDBBDE8F09F2DE9F041C8
:1009B0000746884608F0FF01012000F0CFFD002126
:1009C000012000F041FD002414E000250FE000BFED
:1009D000012000F00DFC064606F001000028F7D1CA
:1009E00057F82400415D012001F04AFA6D1C082DE2
:1009F000EDDB641C082CE8DB08F0FF01022000F0AE
:100A0000ADFD0021022000F01FFD002416E00025AE
:100A100011E000BF022000F0EBFB064606F00100EB
:100A20000028F7D104F1080057F82000415D0220AA
:100A300001F026FA6D1C082DEBDB641C082CE6DBAC
:100A4000BDE8F0812DE9F04192B006468846174690
:100A50001D460020009001900F2D17DA00240EE0B3
:100A600028190F2803DA02A941F824D006E06019FA
:100A70000F3856F8200002A941F82400641C102CFD
:100A8000EEDB414602A8FFF791FF18E0002410E0DA
:100A9000A5F10F002044B84203DB02A941F824D09D
:100AA00006E060190F3856F8200002A941F824002A
:100AB000641C102CECDB414602A8FFF777FF0120F5
:100AC00012B0BDE8F08100BFFEE700BF011EA0F13B
:100AD0000100FBD17047000010B500201349C87019
:100AE000087148718871C8713F20088000208870A3
:100AF00008720120887248720D4800F023F80C201B
:100B00000A4908800B4800F01DF84FF4F0600749CF
:100B1000088001208870084800F014F80320034979
:100B20000880064800F00EF810BD00006C1100208F
:100B300000800A4000800E4000000B4000800B4007
:100B4000704700002DE9FE4F4768D0F808C0D0F884
:100B50000C80D0F81090D0F814A0CDF808A0D0F8F0
:100B600018A0CDF804A0D0F81CA0CDF800A0002259
:100B7000012303254FF001160C885FE004F0010A01
:100B8000BAF1000F55D027EA030A91F802B00BFA28
:100B900002FB4AEA0B0791F808A04FEA420B0AFA57
:100BA0000BFA2CEA050B4AEA0B0C28EA030A91F827
:100BB0000AB00BFA02FB4AEA0B0829EA060A91F886
:100BC00003B002F1100E0BFA0EFB4AEA0B0A91F881
:100BD00004B00BFA02FB4AEA0B09DDF808A02AEA86
:100BE000060A91F805B00BFA0EFB4AEA0B0A91F8D7
:100BF00006B00BFA02FB4AEA0B0ACDF808A091F8FE
:100C000009A04FEA420B0AFA0BFADDF804B02BEA0E
:100C1000050B4AEA0B0ACDF804A0DDF800A02AEA89
:100C2000030A91F807B00BFA02FB4AEA0B0ACDF867
:100C300000A05B00AD007600521C6408002C9DD122
:100C4000DFF8C4A0504502D14FF01F0A01E04FF079
:100C5000000A27EA0A0AC0F804A0DFF8ACA0504551
:100C600002D14FF01F0A01E04FF0000A2CEA0A0AF5
:100C7000C0F808A0DFF890A0504502D14FF01F0A3D
:100C800001E04FF0000A28EA0A0AC0F80CA0DFF8D9
:100C900078A0504502D14FF01F0A01E04FF0000A42
:100CA00029EA0A0AC0F810A0DFF85CA0504502D17A
:100CB0004FF01F0B01E04FF0000BDDF808A02AEA0F
:100CC0000B0AC0F814A0DFF840A0504502D14FF045
:100CD0001F0B01E04FF0000BDDF804A02AEA0B0A1D
:100CE000C0F818A0DFF820A0504502D14FF01F0B2C
:100CF00001E04FF0000BDDF800A02AEA0B0AC0F873
:100D00001CA0BDE8FE8F000000000B4002461368E7
:100D10000B400BB1012000E0002070470268054B3A
:100D2000984201D11F2300E000230B439A43026045
:100D30007047000000000B400268054B984201D14B
:100D40001F2300E000239A430A430260704700001B
:100D500000000B407047704710B52C200A490880EE
:100D600000208870022008720120887202204872D8
:100D70000648FFF7E7FE01200349887040200880FD
:100D80000248FFF7DFFE10BDB411002000000C4048
:100D900001490860704700008800404210B50246D3
:100DA0000C4BD86820F003001043D860586820F43A
:100DB000706040EA01205860074B1B6843B1012373
:100DC000054C241D23600023034C883CC4F88C3060
:100DD00010BD0000000002408800404238B50020ED
:100DE000009000BF212000F069F905460098401CE2
:100DF00000900098B0F5C06F01D2002DF2D02120F4
:100E000000F05CF908B1012400E00024204638BD60
:100E10000149086070470000880140420146044AC9
:100E2000D06820F0F00040EA0110D0607047000068
:100E3000000002400146034AD06820F44070084395
:100E4000D0607047000002402DE9FC4F0146DFF8FA
:100E500064B2DBF80CB00BF0020BBBF1000F01D059
:100E6000954B00E0944BDFF84CB2DBF80CB00BF084
:100E7000010BBBF1000F00D05B081C46DFF834B259
:100E8000DBF80CB00BF0040BBBF1000F0DD0DFF85A
:100E900024B2DBF804B0CBF3032B0BF1010BCDF83C
:100EA00000B0DDF800B004FB0BF4DFF808B2DBF8AB
:100EB0000CB0CBF3012BBBF1000F06D0BBF1010F3F
:100EC00008D0BBF1020F28D122E0DFF8ECB1C1F865
:100ED00000B027E0DFF8DCB1DBF80CB04FF0080E13
:100EE0000EEA1B1BBBF1000F01D1A0460DE0DFF89D
:100EF000C4B1DBF80CB0CBF3021B0BF1010B4FF0CC
:100F0000010E0EFA0BFEB4FBFEF8C1F8008009E0FA
:100F10004FF4004BC1F800B004E049F6404BC1F873
:100F200000B000BF00BFDFF88CB1DBF810B00BF0F1
:100F3000020BBBF1000F01D05F4D00E05E4DDFF80A
:100F400074B1DBF810B00BF0010BBBF1000F00D057
:100F50006D082F46DFF85CB1DBF810B00BF0040B26
:100F6000BBF1000F0DD0DFF84CB1DBF804B0CBF3D0
:100F7000031B0BF1010BCDF800B0DDF800B007FB4F
:100F80000BF7B946DFF82CB1DBF810B00BF0100B03
:100F9000BBF1000F01D04FEA5909C1F80490DFF806
:100FA00014B1DBF818B04FEA1B1000F0080BBBF1CE
:100FB000000F02D1DFF800C10BE000F0070B0BF1CE
:100FC000010B4FF0010E0EFA0BF0DFF8ECB0BBFB9B
:100FD000F0FCC1F80CC0DFF8DCB0DBF8180000F062
:100FE000080BBBF1000F04D1DFF8CCB0CDF804B092
:100FF0000DE000F0070B0BF1010B4FF0010E0EFAA4
:101000000BF0DFF8B4B0BBFBF0FBCDF804B0DDF8BB
:1010100004B0C1F810B0DFF89CB0DBF814B00BF0EE
:10102000030BBBF1000F06D0BBF1010F05D0BBF1E4
:10103000020F06D103E01E4605E02E4603E02646D9
:1010400001E03E4600BF00BFDFF868B0DBF814B037
:10105000CBF3011BBBF1000F06D0BBF1010F06D093
:10106000BBF1020F08D105E04FF4004206E049F65B
:10107000404203E0324601E0624600BF00BFDFF8B5
:1010800034B0DBF814B04FEA1B2000F0080BBBF1C2
:10109000000F01D1924609E000F0070B0BF1010BA4
:1010A0004FF0010E0EFA0BF0B2FBF0FAC1F808A0F7
:1010B000BDE8FC8F0000024000127A0010B5014626
:1010C00001F0E003202B02D1074B1A6801E0074B27
:1010D000DA6B01F01F040123A34013400BB1012080
:1010E00000E0002010BD00000000024000800D4024
:1010F0000D49896821F003010B4A9160012802D053
:1011000002280ED106E00849896841F00101064A2B
:10111000916007E00449896841F00301024A916047
:1011200000E000BF00BF70470000024038B500205B
:10113000009000BF2220FFF7C1FF05460098401C29
:1011400000900098B0F5C06F01D2002DF2D022209F
:10115000FFF7B4FF08B1012400E00024204638BDA9
:101160000D49C96B21F003010B4AD163012802D05C
:1011700002280ED106E00849C96B41F00101064A78
:10118000D16307E00449C96B41F00301024AD1630E
:1011900000E000BF00BF704700800D4038B5002060
:1011A000009000BF0D20FFF789FF05460098401C06
:1011B00000900098B0F5C06F01D2002DF2D00D2044
:1011C000FFF77CFF08B1012400E00024204638BD71
:1011D00029B1064AD2690243044BDA6104E0034AAA
:1011E000D2698243014BDA6170470000000002407F
:1011F00070B504462C4840684FF6C07108402A4933
:1012000048602A4840684FF6F37108402749486013
:10121000012C04D180212648FFF78EFD04E04FF415
:1012200080712348FFF788FD01212248FFF776FDF2
:101230004FF480611E48FFF77FFD0520FFF745FC56
:1012400002211C48FFF778FD0520FFF73EFC1648F9
:10125000006800F03F0015490968C02202EA011148
:1012600040EA01050520FFF730FC02211148FFF795
:1012700055FD0520FFF729FC01210E48FFF74EFD23
:101280004FF480610A48FFF749FD012C04D1802109
:101290000748FFF743FD04E04FF480710448FFF76F
:1012A0003DFD284670BD000000800A4000800E40D1
:1012B00000000B4000800B407047000010B5124842
:1012C00000F08AF801211148FFF782FF04210E483F
:1012D00000F058F80E4800F0A7F810200C490880DC
:1012E0000C204880042088800F20C88000200881BE
:1012F000488188810220C881034800F07EF80121DE
:10130000014800F05DF810BD00000A401001100017
:10131000A41100207047000070B502240025FFF7DB
:101320001BFDFFF7CBFF00BF08211248FFF7EEFCC3
:1013300000B91AE00421104800F057F80028F3D053
:101340000D4800F06DF80546A54203D101200B4978
:10135000087002E002200949087000BF0821054812
:10136000FFF7D4FC00B900E0F8E74FF480400449EF
:10137000086070BD00800C4000000A404E11002043
:1013800000E100E002460B4BD86A0B4B9A4205D1B4
:1013900040F0807020F0FF00084308E0074B9A42BD
:1013A00005D140F0007020F47F4040EA0120014B5D
:1013B000D8627047000002400000044000000A406C
:1013C00021B1426842F00202426004E042684FF6F6
:1013D000FD731A4042607047002101604160016165
:1013E000416141620321016270470246D3680B40AC
:1013F0000BB1012000E00020704710B54B8803615D
:101400000B890C8803EB04234C8923448C892344E7
:10141000CC881A190260CB898C881A19426010BDD9
:101420000146886880B27047002181800721C18011
:1014300000214181018181810221418000210180BF
:10144000C18170477047000070B504460D46012CFD
:1014500004D180212C48FFF76FFC04E04FF4807129
:101460002948FFF769FC01212848FFF757FC4FF492
:1014700080612548FFF752FC0520FFF726FB244832
:10148000406840F03F00224948602248406840F0F0
:101490000C002049486045F0400000F03DF8052070
:1014A000FFF713FB02211948FFF746FC0520FFF761
:1014B0000CFB02211548FFF731FC0520FFF705FB67
:1014C000134840684FF6C071084011494860114800
:1014D00040684FF6F37108400E49486001210B48FF
:1014E000FFF71CFC4FF480610748FFF717FC012C45
:1014F00004D180210448FFF711FC04E04FF480710F
:101500000148FFF70BFC70BD00000B4000800B4052
:1015100000800A4000800E400E4909684FF6C072F4
:1015200011400C4A11601146096800F03F02114356
:10153000084A1160084909684FF6F3721140064ADB
:101540001160114609680C2202EA20121143024A76
:101550001160704700800A4000800E4070B504465C
:101560000D46012C04D180212C48FFF7E5FB04E057
:101570004FF480712948FFF7DFFB01212848FFF76E
:10158000CDFB4FF480612548FFF7C8FB0520FFF72E
:101590009CFA2448406840F03F00224948602248B5
:1015A000406840F00C002049486045F0B800FFF763
:1015B000B3FF0520FFF789FA02211948FFF7BCFBAA
:1015C0000520FFF782FA02211548FFF7A7FB052047
:1015D000FFF77BFA134840684FF6C0710840114985
:1015E0004860114840684FF6F37108400E49486062
:1015F00001210B48FFF792FB4FF480610748FFF78A
:101600008DFB012C04D180210448FFF787FB04E007
:101610004FF480710148FFF781FB70BD00000B4063
:1016200000800B4000800A4000800E4070470000A0
:1016300030B5204CE46804F00204022C01D11E48AD
:1016400000E01D481B4CE46804F0010404B14008AC
:101650000146184CE46804F00404042C05D1154C30
:101660006468C4F30324631C5943124CE468C4F354
:10167000012424B1012C06D0022C13D10DE00E4C14
:101680000E4D2C6013E00B4CE468C4F30314641C8F
:10169000B1FBF4F2094C226009E04FF40044074D1D
:1016A0002C6004E049F64044044D2C6000BF00BFAC
:1016B00030BD00000000024000127A0068110020D6
:1016C00000B50D480D49C8610846C0680020C860D3
:1016D000084640680020486008468068002088600E
:1016E00008460069002008610846406900204861FA
:1016F000FFF79EFF00BD0000100000080000024040
:1017000010B501218803FFF763FD4FF0E0600E493B
:10171000486200200D49C86008603F2048604AF6D2
:10172000FF7088600020086248628862C8620863AF
:1017300048638863C8634865022088650846C068B6
:1017400040F00100C86010BD0000024000000740EA
:1017500070B50020F9494865F948006800283ED175
:101760000120F749086000221146F648FFF7EAF821
:1017700000220121F448FFF7E5F800220221F34896
:10178000FFF7E0F800220321F148FFF7DBF8002221
:101790000421F048FFF7D6F800220521EE48FFF7B4
:1017A000D1F800220A21ED48FFF7CCF800220B21E6
:1017B000EB48FFF7C7F800220C21EA48FFF7C2F810
:1017C00000220D21E848FFF7BDF800220E21E7486E
:1017D000FFF7B8F800220F21E548FFF7B3F8012220
:1017E0000B21E448FFF7AEF801220C21E248FFF795
:1017F000A9F801220D21E148FFF7A4F801220E21EA
:10180000DF48FFF79FF801220F21DE48FFF79AF823
:1018100000BFDD48322207210368DC48FFF712F9D8
:101820000028F6D0D8480068401CD7490860084610
:101830000068372801D100200860D54800780128C9
:1018400021D10321D348FFF7B1F80421D248FFF793
:10185000ADF8D2480078012804D10521D048FFF71F
:10186000A5F8E3E1CD48007820B90521CD48FFF780
:101870009DF8DBE1C94800780228F2D10521CA4869
:10188000FFF794F8D2E1C9480078012821D103215B
:10189000C748FFF78BF80421BF48FFF787F8C54812
:1018A0000078012804D10521BD48FFF77FF8BDE18C
:1018B000C048007820B90521BA48FFF777F8B5E1AC
:1018C000BC4800780228CCD10521B748FFF76EF854
:1018D000ACE1B948007801280CD10321B748FFF7E3
:1018E00065F80421B648FFF761F80521B548FFF710
:1018F0005DF89BE1B4480078012815D10321B34875
:10190000FFF754F80421A448FFF750F8B0480078D6
:10191000012804D10521A248FFF748F886E10521F6
:10192000A048FFF743F881E1AA48007801285ED17A
:10193000A9480078012820D1A848007860B903217F
:101940009448FFF733F804219648FFF72FF8052154
:101950009148FFF72BF869E103218E48FFF726F83D
:1019600004218F48FFF722F89D480078FEF788FF92
:1019700005460521FFF71AF858E19A480078012832
:1019800020D19948007860B903218948FFF70EF803
:1019900004218448FFF70AF805217F48FFF706F87D
:1019A00044E103218248FFF701F804217C48FEF757
:1019B000FDFF8B480078FEF763FF05460521FEF723
:1019C000F5FF33E189480078012892D103217F484F
:1019D000FEF7ECFF04218648FEF7E8FF8048007818
:1019E000FEF74EFF05460521FEF7E0FF1EE18148A8
:1019F0000068C8BB00240CE07F490968102202FB84
:101A000001417E4A52F8210003222146FEF79AFF47
:101A1000641C102CF0DB00240DE077490968491C98
:101A2000102202FB0141754A52F82100042221468E
:101A3000FEF788FF641C102CEFDB00240DE06E49DC
:101A40000968891C102202FB01416C4A52F82100EE
:101A500005222146FEF776FF641C102CEFDB0322E3
:101A60000F216748FEF76EFF62480068012839D1F0
:101A700000240DE060490968491E102202FB014163
:101A80005E4A52F8210003222146FEF75BFF641CE8
:101A9000102CEFDB00240CE057490968102202FBF0
:101AA0000141564A52F8210004222146FEF74AFF1E
:101AB000641C102CF0DB00240DE04F490968491C20
:101AC000102202FB01414D4A52F821000522214615
:101AD000FEF738FF641C102CEFDB04220F2148486E
:101AE000FEF730FF43480068022825D100240DE0AE
:101AF00041490968891E102202FB01413F4A52F800
:101B0000210003222146FEF71DFF641C102CEFDB91
:101B100000240DE038490968491E102202FB0141EA
:101B2000364A52F8210004222146FEF70BFF641CBE
:101B3000102CEFDB002472E078E00000000007408A
:101B40003C110020B8020020F8020020C003002051
:101B500050030020400300206803002038020020CA
:101B600090020020300000201004002038000020E7
:101B700018000020B0010020780100202001002082
:101B8000C80100204001002030040020340400205F
:101B9000521100207C100020BC10002051110020A8
:101BA000BC0F0020FC0F00203C1000204D11002035
:101BB0003C0F00204E1100204F1100203C0E002051
:101BC0007C0E0020BC0E002049110020FC0E0020DD
:101BD00050110020531100205411002055110020F5
:101BE0005C110020571100205811002056110020D0
:101BF0007C0F00204411002040110020FC04002034
:101C0000280400200A490968102202FB0141094A00
:101C100052F8210005222146FEF794FE641C102C88
:101C2000F0DB05220F210448FEF78CFE70BD00009A
:101C300040110020FC040020280400207047704759
:101C40007047704702460B4B986A0B4B9A4205D17E
:101C500040F0807020F0FF00084308E0074B9A42F4
:101C600005D140F0007020F47F4040EA0120014B94
:101C7000986270470000024000000340008003406B
:101C800021B1026B42F00102026304E0026B4FF6E5
:101C9000FE731A4002637047024693690B400BB112
:101CA000012000E0002070472DE9F04F87B0044686
:101CB0000D4601A8FFF7C8F8019F2448866A24480A
:101CC000844206D106F0070101208840B7FBF0F7F7
:101CD00008E02048844205D1C6F302210120884053
:101CE000B7FBF0F728688008B7FBF0F94FEA9918BE
:101CF00009F03F0AB8000AEB8811B0FBF1FB286835
:101D0000ABEB0000C0012968B0FBF1F0069006982B
:101D1000022803D9002007B0BDE8F08FC4F8248062
:101D2000C4F828A0E66AA888E988084329890843F6
:101D3000698908430643E662266B4FF68070864346
:101D4000A889064326630120E5E700000000024061
:101D500000000340008003400146086880B27047DD
:101D6000CAB202607047000010B507E000BF08214A
:101D70000348FEF7CBFF00B901E0F8E7F6E710BD36
:101D800000800C4010B500200D49C87008714871E2
:101D90008871C8710320087248720120887200207F
:101DA0008870012008800748FEF7CCFE0120044916
:101DB0008870022008800348FEF7C4FE10BD0000B2
:101DC0008811002000800E4010B500210120FEF790
:101DD000E5FF01218020FFF7FBF900210B48FFF709
:101DE00031FF4FF416500A490860602088800020B7
:101DF000C880088148814FF4407088810348FFF70C
:101E000053FF01210148FFF73BFF10BD0080034055
:101E10009411002010B540211448FFF73DFF012820
:101E200002D11248FFF798FFFFF7ACFFFFF7CCFF96
:101E300000BF08210E48FEF769FF00B914E04021F9
:101E40000A48FFF729FF0128F3D10848FFF784FF6C
:101E5000C4B201200749087000BF08210448FEF7FA
:101E600055FF00B900E0F8E7002010BD00800340F6
:101E700000800C405011002000BFFEE770470000BA
:101E800070B504460D46012C04D180212C48FEF784
:101E900053FF04E04FF480712948FEF74DFF012104
:101EA0002848FEF749FF4FF480612548FEF736FFCA
:101EB0000520FEF70AFE2448406840F03F00224912
:101EC00048602248406840F00C002049486028469D
:101ED000FFF722FB0520FEF7F8FD02211948FEF767
:101EE0002BFF0520FEF7F1FD02211648FEF716FF35
:101EF0000520FEF7EAFD144840684FF6C07108401F
:101F000011494860114840684FF6F37108400F4985
:101F1000486001210B48FEF701FF4FF4806108483B
:101F2000FEF7FCFE012C04D180210548FEF7F6FEE9
:101F300004E04FF480710248FEF7F0FE70BD00002F
:101F400000000B4000800B4000800A4000800E40E3
:101F50000120FFF705F900BFFFF720F90128FBD1A9
:101F6000FFF7C6F800BFFFF7E1F80128FBD1002119
:101F7000FEF714FF0120FEF70BFFFEF72FFF0128ED
:101F800001D000BFFEE70020FEF748FF0120FEF76A
:101F90003FFF4FF48070FEF74DFF01214805FFF72A
:101FA00017F901218805FFF713F90121C805FFF78B
:101FB0000FF901210806FFF70BF901214806FFF789
:101FC00007F901214807FFF703F9FEF785FDFEF742
:101FD00047F9FEF797FC00BF0120FFF709F9044617
:101FE00004F001000028F7D10120FEF747FB00BFF5
:101FF0000220FFF7FDF8044604F001000028F7D1A5
:102000000220FEF73BFB0120FEF750FC0220FEF70A
:102010004DFC5048504908604FF00060091F0860AF
:1020200040134E490860FFF76BFB92E004214C48D7
:10203000FEF76CFE002851D100BF04214848FEF78E
:1020400065FE0028F9D04748006860B9002046497D
:102050000870012045490870FEF7FCFA002043494A
:102060000870414908703F480068012808D140497C
:102070000870FFF751F900203D4908703D4908708C
:1020800038480068022807D101203B490870FFF753
:102090006BFE0020384908703248006803280CD1D4
:1020A000002036490870012035490870FFF7B2FE5C
:1020B000002033490870314908702A480068042814
:1020C00047D101202F490870FEF742FB00202D491F
:1020D00008702D4908702D4908703AE020212C48DD
:1020E000FEF714FEB8B900BF20212948FEF70EFE06
:1020F0000028F9D01B48006820B11A480068401E2B
:10210000184908602348006818B322480068401E38
:10211000204908601DE002211F48FEF7F7FDC0B905
:1021200000BF02211C48FEF7F1FD0028F9D00D4840
:102130000068042804D00B480068401C0949086066
:1021400014480068022804D012480068401C114955
:1021500008606BE70005FA050CED00E000E100E027
:1021600000800B404011002051110020521100202E
:102170004D1100204E1100204F1100205011002061
:102180004911002053110020541100205A11002041
:1021900000000B404411002000800C40BC210008CE
:1021A000000000206C110000FC000008302A00082C
:1021B0006C110020B40600005801000810083E7F92
:1021C00071594D7F3E2740427F7F404027627359BF
:1021D000496F6627226349497F361008181C165339
:1021E0007F7F5027276745457D39273C7E4B4979BE
:1021F0003027030371790F074B367F2827064F4995
:10220000693F1E277C7E13137E7C4B417F19280873
:102210001C3E6341416322103D41633E1C183C5DFE
:102220004163083C1D01032014517372377F7F08FE
:10223000087F7F2929312808307040417F3F010FF6
:102240003C081C77301D41406070281C0E1C0E2974
:102250001E7F7F060C18082940695814090F063F95
:102260001E3F21717F5E471509197F661F266F4D3E
:10227000597332B029412203273F7F60607F3F2797
:102280001F3F60603F1F1E7F7F301830481008637B
:10229000673C183C67631E074F78784FD810084793
:1022A0006371594D67731808207454543C7840503A
:1022B000163F484878301F387C44446C28A01F786B
:1022C00048493F7F40102554545C1827487E7F4979
:1022D000030238084C5E52527C3E02B824047C78DB
:1022E0004D447D7D40D03C407D3D983D10386C4450
:1022F0000929181E7C7C18381C283C7C7C042F295A
:10230000601B7C383717787C54141C081008081C94
:102310001454787C401008447C784C041C183748CE
:102320005C545474241D043E7F44081D3C7C404092
:1023300004112F1C3C60603C1C10167038707C3CF3
:102340003C446C38681D4C5C50500F111F4C647439
:102350005C4C64703E7E13137E7C7F4D494979331B
:10236000082B7F360815410103033808787E373380
:10237000377E78181C5D416378167D5454456C2770
:1023800063147F7F14631E636349496B3028087FA1
:102390007F30180C7F7F082A1B0829F0141C7763F4
:1023A0001D607F1F034B19183C0E1C0E201B0808D4
:1023B000071118081C3E6341633E1C101A03204994
:1023C000803C090F0618144163222A03811A036016
:1023D00017673C180C07034F1E527F7F521E1014C4
:1023E0003C676310083F3F20203F3F6018080F1FE5
:1023F00018587F7F40481A6002127F1A3F161A2031
:10240000181808017F7F4848783018190711297873
:10241000390F113A36B0123E3B7F0881112D667F8D
:102420001909A01008207454543C784027307C4A85
:102430004A7A313F447C7C5454280824440C0827B1
:102440006038343438601A38171B5C18081D7D5406
:10245000545D082744287C7C28441E2E4454547C18
:10246000302F7C7C20107C7C082B21110819401512
:1024700010386C44100840780C047C7C40180878B4
:102480007C0810087C78203A10282F387C44447C43
:1024900038301A042019303F787C54141C08181A5C
:1024A0006C502A088119801F4C5C50507C3C101ADB
:1024B000549919103C446C38581E3C3C203C3C98C4
:1024C0002C1C10505F111B7C40023119172A201858
:1024D00027443C505070201A400812203A7C0819BA
:1024E00009111A28B0197711199E1B4444092D406F
:1024F00028141480A11A603E411A0801211F327B62
:1025000049497B32081D7A48487A081E081C3E7FDC
:102510001C0141134802142098031B2080041A88D0
:10252000041A70041A08041AF8181AF808114A0450
:102530001C29101159206A9010191C5A7814290C62
:102540001A5008A94C290C29181A582C1A400C2981
:1025500020291C29302938690C1AB0045A20346902
:1025600084291C1A68045AD81C2948291C2948297E
:1025700008298429185A6024292009120422601B82
:102580002050041AB804091624091A041AE038293C
:10259000040A35C8405AF0400A39584029C01AD8B0
:1025A000040A29E8441A782C293C5AA80429142939
:1025B000405A7090F94C291059045A08085A1008CA
:1025C0005A1808190539085A28085A30085A38087C
:1025D0005A40085A480829B8290839FC19045A6091
:1025E000085A6808298C290829AC697429086904E3
:1025F0002980290829802908298029082980290873
:102600002980290829802908298029082980290862
:102610002980290829802908298029082980290852
:1026200029802908298069EC6974290869042980AE
:102630002908298029082980290829802908298032
:102640002908298029082980290829802908298022
:102650002908298029082980290829802908298012
:102660002964298069EC697429086904298029088A
:1026700029802908298029082980290829802908F2
:1026800029802908298029082980290829802908E2
:1026900029802908298029082980295C298029087E
:1026A000298069EC6974290869042980290829802E
:1026B00029082980290829802908298029082980B2
:1026C00029082980290829802908298029082980A2
:1026D0002908298029542980290829802908298046
:1026E00069EC697429086904298029082980290866
:1026F0002980290829802908298029082980290872
:102700002980290829802908298029082980294C1D
:10271000298029082980290829802908298069EC2D
:1027200069742908690429802908298029082980D1
:102730002908298029082980290829802908298031
:1027400029082980290829802944298029082980E5
:1027500029082980290829802908298069EC6974B9
:10276000290869042980290829802908298029083D
:1027700029802908298029082980290829802908F1
:102780002980293C298029082980290829802908AD
:102790002980290829802908298069EC6974290879
:1027A0006904298029082980290829802908298085
:1027B0002908298029082980290829802934298085
:1027C00029082980290829802908298029082980A1
:1027D000290829802908298069EC69742908690475
:1027E0002980290829802908298029082980290881
:1027F000298029082980292C29802908298029084D
:102800002980290829802908298029082980290860
:1028100029802908298069EC6974290869042980BC
:102820002908298029082980290829802908298040
:102830002924298029082980290829802908298014
:102840002908298029082980290829802908298020
:102850002908298069EC69742908690429802908F4
:1028600029802908298029082980291C29802908EC
:1028700029802908298029082980290829802908F0
:1028800029802908298029082980290829802908E0
:10289000298069EC6974290869042980290829803C
:1028A00029082980291429802908298029082980B4
:1028B00029082980290829802908298029082980B0
:1028C00029082980290829802908298029082980A0
:1028D00069EC697429086904298029082980290C70
:1028E0002980290829802908298029082980290880
:1028F0002980290829802908298029082980290870
:10290000298029082980290829802908298069EC3B
:1029100069742908690429802904298029082980E3
:10292000290829802908298029082980290829803F
:10293000290829802908298029082980290829802F
:102940002908298029082980290829802908A9F42B
:10295000797CCA04041B8802701A030819041A90AF
:102960000429141AF0285AE050E93029041A78286A
:102970001A80041A70045A08081A18045A40442984
:102980004C5AF84C2A680C19640912445A581C29EC
:1029900034298429181B80010C19041AB0041AB8B0
:1029A000041A40041AA8040912880916BC1A500413
:1029B0001AD8040A15E8C0091E4429FC29040A1182
:1029C000C8401A103029B429D829049AD8BC29D46F
:1029D000290C5A80085A18E069280922401A700404
:1029E0001A58041A98045AB81CA9401A683C1A309C
:1029F0000CDA406029106948A918693C0A21A880AE
:102A0000297C5AC04C11598C2984A980E9041A8860
:102A10004C29401A88045A902422601B2050041A22
:102A2000B804091234097B040127420113127A0009
:040000050800019D51
:00000001FF
