:020000040800F2
:10000000C8080020FD070008A5100008A710000878
:10001000A9100008AB100008AD1000080000000097
:10002000000000000000000000000000AF10000809
:10003000B110000800000000B3100008B51000085F
:10004000B7100008B9100008BB100008000000003D
:1000500000000000BD100008BF100008C11000081B
:10006000C310000800000000C5100008C7100008F9
:10007000C910000800000000CB1000080914000897
:100080000B1400080D140008000000000F140008F5
:100090001114000800000000000000000000000033
:1000A0000000000000000000000000001314000821
:1000B0001514000817140008191400081B14000870
:1000C000DFF80CD001F0C8FD0048004771050008BA
:1000D000C808002001B402E00098401E009000987B
:1000E0000028F9D101B070470146F74800F076BD0D
:1000F0000146F54800F080BD2DE9F04105460E4669
:1001000017460024002D0ED93846FFF7EDFF304684
:10011000FFF7E0FF3846FFF7EBFF3046FFF7DAFF67
:10012000641CAC42F0D3BDE8F08170B5E74C002010
:10013000E07020716071A071E07103212172617221
:100140000125A572A0702580E14E2146304600F0C1
:1001500071FCA5700221218021463046BDE8704027
:1001600000F068BC70B5D94C0020E070207160715F
:10017000A071E07102212172032161720125A57233
:10018000A07080202080D34E2146304600F052FCE3
:10019000A5704021218021463046BDE8704000F026
:1001A00049BC70B5C94C0020E07020716071A0712D
:1001B000E0713F212180A07020720125A572657237
:1001C0002146C44800F036FC0C2020802146C0485F
:1001D00000F030FC4FF4F0602080A5702146BE484E
:1001E00000F028FC032020802146BDE87040B6487E
:1001F00000F020BCB548032101800121817000225C
:100200000272817241720146AF4800F013BC10B512
:10021000AE4C602020800020A07020720120A072CF
:1002200060722146AC4800F005FC04202080214685
:10023000A54800F0FFFB0A2020802146BDE81040C1
:10024000A64800F0F7BB10B50021012000F0E6FD44
:100250000121802000F000FDA14C0021204600F08B
:10026000C0FBA04942F6E060086060208880002260
:10027000CA800A814A81C0008881204600F0E1FAE4
:100280002046BDE81040012100F034BB10B5044603
:100290000321022000F0C2FD002000F0F1FD01204A
:1002A00000F0D4FD00F0D5FD30B9012000F0CBFD09
:1002B00000F0CFFD0028F8D04FF4807000F0D8FC9B
:1002C0000121084600F0C8FC87494FF080700862A1
:1002D0008101012C01D185488860022C01D184481C
:1002E000886000200864834A1060121D1060032299
:1002F0004A64C1F81002C1F81402C1F81802C1F82A
:100300001C027D4A1060121D10600120086010BDA3
:1003100010B50121880300F09FFC73494FF0E060A5
:10032000486276480021C16001603F2242604FF67A
:10033000FF728260016241628162C1620163416356
:100340008163C163416502218165C16841F001019A
:10035000C16010BD70B5FFF7E8FEFFF774FF5F4E98
:100360005F4D0821304600F030FCA0B14021284606
:1003700000F030FB0128F4D1284600F0FAFAC4B2AC
:100380008021284600F026FB0128F9D12146284685
:1003900000F0EBFAE5E7002070BD2DE9F047FFF72C
:1003A000E1FE0120FFF772FF4C4E554F002541F64C
:1003B00008284FF02109F4034FF0030A08213046C2
:1003C00000F003FC18B3D4F8140210F0080FF5D0B5
:1003D000D4F81802D4F81C126564C4F81052C4F89A
:1003E0001452C4F81852C4F81C52C4F80072C4F86D
:1003F0000482C4F80802C4F80C12C4F84090206CBF
:1004000010F0200FFBD12564C4F844A0D6E70120EA
:1004100000F060FC00F047FC002000F029FC3248AE
:10042000C168C5604168456081688560BDE8F08746
:100430002DE9F047FFF796FE0220FFF727FF274E32
:100440002F4F002541F608284FF02109F4034FF003
:10045000030A0821304600F0B8FB18B3D4F81402A0
:1004600010F0080FF5D0D4F81802D4F81C12656407
:10047000C4F81052C4F81452C4F81852C4F81C52EC
:10048000C4F80072C4F80482C4F80802C4F80C125C
:10049000C4F84090206C10F0200FFBD12564C4F804
:1004A00044A0D6E7012000F015FC00F0FCFB002082
:1004B00000F0DEFB0C48C168C5604168456081689A
:1004C0008560BDE8F087000000800B40AC04002090
:1004D00000800E4000800A4000000B4000800C406D
:1004E00000800340B8040020000002400400210FF7
:1004F0000100510A000500400805004000000740C7
:100500006700AA152DE9F05FDFF81892864C874F37
:10051000DFF81CA2DFF81CB24FF000084FF4804552
:100520004FF0E02684F800800020401C4845FCDBAA
:10053000C6F88051012239460520FFF7DDFD022271
:1005400039460520FFF7D8FD01202070C6F800517C
:100550000421504600F039FB0028E3D0082158461A
:1005600000F033FB0028F3D184F80080BDE8F09F51
:10057000012000F007FC00F018FC0128FBD100F07E
:10058000D7FB00F0E8FB0128FBD10121400500F07A
:1005900063FB0121880500F05FFB0121C80500F025
:1005A0005BFB0121080600F057FB0121480600F023
:1005B00053FB0121480700F04FFB0121880700F0A1
:1005C0004BFBFFF7EEFDFFF722FE01F01FFA0120C3
:1005D00000F089FF10F0010FF9D1012000F0DEFFDB
:1005E000022000F080FF10F0010FF9D1022000F08E
:1005F000D5FF012001F03FFA022001F03CFA4F49FB
:100600004D480860091F4FF0006008604C494013D6
:100610000860FFF77DFEDFF818910024424E454F39
:10062000DFF82081DFF804A101250421484600F00D
:10063000CCFA18B32021404600F0C7FA00283FD07A
:100640000221384600F0C1FA00284ED00821384671
:1006500000F0BBFA002859D04021404600F0B5FA1E
:100660000028E2D14021404600F0AFFA0028F9D03E
:10067000012251460520FFF73FFDD6E704214846F9
:1006800000F0A3FA0028F9D0B06818B93571FFF767
:1006900039FF3471B068012803D17570FFF75AFE35
:1006A0007470B068022803D1B570FFF776FEB4709D
:1006B000B0680328B9D1F570FFF7BAFEF470B4E75B
:1006C0002021404600F081FA0028F9D0B06808B136
:1006D000401EB060F06810B1401EF060A5E7012236
:1006E00051460520FFF708FD9FE70221384600F03C
:1006F0006CFA0028F9D0B068032801D0401CB06023
:10070000F068022891D0401CF0608EE7082138463E
:1007100000F05BFA0028F9D0022251460520FFF7CD
:10072000EBFC82E740420F0004000020A08601009D
:1007300000800B4000800C400005FA050CED00E045
:1007400000E100E000000B40264BD868DFF898C0BD
:1007500010F0020F01D0604600E06046D96811F049
:10076000010F00D02148D96811F0040F04D0596856
:10077000C1F30311491C484359681D4AC1F30121C3
:1007800039B1012908D002290ED049F64040106045
:100790007047C2F800C07047D968C1F30311491C03
:1007A000B0FBF1F0106070474FF4004010607047EC
:1007B0000C481049C1611049CA6B42F48102CA63F6
:1007C000CA6B02F48102CA63C1680021C160426839
:1007D00041608268816002690161426941618269A8
:1007E0008161B1E70000024000127A0000093D007B
:1007F000140000201000000800800D4006488047CB
:1008000006480047FEE7FEE7FEE7FEE7FEE7FEE7F5
:10081000FEE7FEE7FEE7FEE7B1070008C1000008BB
:1008200000210163C16241609022826101624162E4
:10083000816202224263816381644FF440710163EB
:10084000704730B585B004460D46684600F07EFB23
:1008500000987249896A0122A4F18043B3F54033BC
:1008600005D0A4F18043B3F5603307D00CE001F06C
:10087000070102FA01F1B0FBF1F005E0C1F302213A
:1008800002FA01F1B0FBF1F02A689108B0FBF1F334
:10089000990903F03F03800003EB811CB0FBFCF0DF
:1008A000801AC001B0FBF2F0022802D905B0002086
:1008B00030BD6162A362E06AA988EA886B8911434E
:1008C0002A891A4311430843E062206B6FF3CF106B
:1008D000A9890843206305B0012030BD4FF41651AB
:1008E000016000218180C180018141814FF440710C
:1008F00081817047002904D0016B41F0010101633F
:100900007047016B4FF6FE72114001637047002A79
:1009100003D0826B114381637047826B22EA01012D
:1009200081637047C06B31EA000001D0002070473E
:1009300001207047006C084201D001207047002060
:100940007047426C11434164704742EAC101416300
:100950007047002A03D0826C114381647047826C17
:10096000C94389B2114081647047C1F30801016035
:100970007047006880B27047002904D0C16A41F016
:100980000101C1627047C16A4FF6FE721143C16234
:10099000704730B585B004460D46042D08D1684631
:1009A00000F0D4FA00984FF4E111B0FBF1F02062AE
:1009B000206B2843206305B030BD002904D0016BB3
:1009C00041F0020101637047016B4FF6FD72114364
:1009D000016370478069084201D001207047002000
:1009E00070470E4B9A6AA0F1804CBCF5403C05D094
:1009F000A0F1804CBCF5603C07D00CE042F0807068
:100A000020F0FF0040EA010205E042F0007020F40F
:100A10007F4040EA01229A627047000000000240D5
:100A20000021C160016141600160816041618161BB
:100A3000C16170472DE9F04F83B046688768D0F8F0
:100A40000C80D0F810B0D0F8149082690192C2697D
:100A500000920022012303244FF00115B1F800C0D9
:100A6000BCF1000F5DD01CF0010F51D091F802A035
:100A70009E430AFA02FA46EA0A0691F808E04FEAAB
:100A8000420ACDF808A00EFA0AFAA7434AEA070775
:100A900091F80AA028EA03080AFA02FA48EA0A08C2
:100AA00091F803E002F1100A2BEA050B0EFA0AFE98
:100AB0004BEA0E0B91F804E00EFA02FE4BEA0E0B25
:100AC00091F805E029EA05090EFA0AFA49EA0A0945
:100AD00091F806A00AFA02FA49EA0A0991F809E02F
:100AE000DDF808A00EFA0AFEDDF804A02AEA040ADE
:100AF0004EEA0A0ACDF804A0DDF800A091F807E05C
:100B00002AEA030A0EFA02FE4AEA0E0ACDF800A00B
:100B10005B00A4006D00521C4FEA5C0CBCF1000F9E
:100B2000A1D14C49884202D14FF01F0101E04FF0A2
:100B3000000126EA0101416002D14FF01F0101E0EE
:100B40004FF0000127EA0101816002D14FF01F013F
:100B500001E04FF0000128EA0101C16002D14FF02D
:100B60001F0101E04FF000012BEA0101016102D1F8
:100B70004FF01F0101E04FF0000129EA010141613E
:100B800002D14FF01F0101E04FF00001019A22EA6B
:100B90000101816102D14FF01F0101E04FF000011E
:100BA000009A22EA0101C16103B0BDE8F08F4FF65F
:100BB000FF71018000218170C170017141718171EB
:100BC000C17101724172817270470068084201D0A0
:100BD0000120704700207047006870470368A0F14B
:100BE0008042B2F5302205D0002223EA02021143EE
:100BF000016070471F22F8E70368A0F18042B2F558
:100C0000302205D00022114323EA01010160704720
:100C10001F22F8E7D0F800C0A0F18043B3F53023DD
:100C200006D000232CEA030322B119430160704768
:100C30001F23F7E723EA010101607047A0F180421A
:100C4000B2F5302203D000229143016070471F2289
:100C5000FAE7000000000B40FC4A002903D0D169EC
:100C60000843D0617047D16921EA0000D061704724
:100C7000F64AD16821F440710843D060704700F013
:100C8000E00120290AD0F249C96B00F01F000122BF
:100C900002FA00F0084204D001207047EB490968CD
:100CA000F3E70020704708B5002000901720FFF7F9
:100CB000E6FF0099491C00910099B1F5C06F01D27F
:100CC0000028F3D01720FFF7DAFF08B1012008BD94
:100CD000002008BDDF490860704700B50120FFF71C
:100CE000F9FFFFF7E0FF0020FFF7C2FFD748C16818
:100CF0000021C160426841608268816002690161CF
:100D00004269416182698161D349C16100BD00B519
:100D1000FFF7E3FF0121C806FFF79EFFCC48C16B38
:100D200041F48101C163C16B01F48101C16300BD64
:100D3000C6498A6822F003028A60012806D0022888
:100D400003D1886840F0030088607047886840F0ED
:100D500001008860704708B5002000902220FFF74E
:100D60008EFF0099491C00910099B1F5C06F01D226
:100D70000028F3D02220FFF782FF08B1012008BD30
:100D8000002008BDB249CA6B22F00302CA630128E1
:100D900006D0022803D1C86B40F00300C863704737
:100DA000C86B40F00100C863704708B50020009090
:100DB0000D20FFF764FF0099491C00910099B1F5DF
:100DC000C06F01D20028F3D00D20FFF758FF08B103
:100DD000012008BD002008BD9D4AD16B21F07C5147
:100DE00041EA0060D06370479C490860704708B5CD
:100DF000002000901520FFF742FF0099491C009148
:100E00000099B1F5C06F01D20028F3D01520FFF78B
:100E100036FF08B1012008BD002008BD8B4AD36809
:100E200023F003031843D060506820F4706040EA58
:100E3000012050608A48D0F88810002902D0012192
:100E4000C0F88C1070478749086070478649086071
:100E5000704708B5002000902120FFF710FF00998F
:100E6000491C00910099B1F5C06F01D20028F3D060
:100E70002120FFF704FF08B1012008BD002008BDB4
:100E8000724AD16821F0F0010843D06070476F4A80
:100E9000136923F0030318431061506820F0F00039
:100EA00040EA011050606E48D0F88010002902D04E
:100EB0000121C0F8841070476C49086070476C4984
:100EC0000860704708B5002000902020FFF7D7FE8B
:100ED0000099491C00910099B1F5C06F01D200281A
:100EE000F3D02020FFF7CBFE08B1012008BD002081
:100EF00008BD6049086070475F4908607047534A01
:100F0000516921F033010843506170474F4A5169DC
:100F100021F4706141EA0020506170475749086030
:100F200070474A4A916921F0F00141EA001090614E
:100F30007047534908607047444A916921F00F0196
:100F40000843906170474F4908607047F0B4444DC2
:100F5000D5F884114C4F002901D03B4600E03B46B8
:100F6000D5F88011DFF824C101B163461946D5F8E0
:100F70008821364E22B17268C2F30322521C5143BB
:100F8000F268C2F301225AB1012A0BD0022A1AD008
:100F900049F640420260D5F80422C2B13A4617E051
:100FA0000760F8E7F26812F0800F0AD0F268C2F327
:100FB0000212521C012404FA02F2B1FBF2F20260A6
:100FC000E9E70A46FBE74FF400420260E3E73A46EE
:100FD000D5F8004204B162469446D5F808422CB1D7
:100FE0007468C4F30314641C0CFB04FC6446D5F859
:100FF000105205B164084460B469C4F30314641C5E
:10100000B7FBF4F5C560B46904F00F04641CB7FBCA
:10101000F4F40461746914F0030439D0012C39D05C
:10102000022C00D061467269C2F301126AB1012A32
:1010300035D0022A00D029467269C2F30322521C1D
:10104000B1FBF2F18160F0BC704725E00000024086
:1010500000800D40D807B04310000008BC07B04323
:10106000000040428801404288004042080240425D
:10107000800040422002404210024042B4024042FE
:10108000240340422003404200127A0000093D0040
:101090001946C8E71146C6E74FF40041CCE749F6C8
:1010A0004041C9E77047FEE7FEE7FEE7FEE770470D
:1010B0007047704770477047704770477047704778
:1010C000704770477047704770472DE9F041D3482B
:1010D00000254565D248016800293DD10121016004
:1010E00000221146CF4800F0D1FC00220121CE4859
:1010F00000F0CCFC00220221CC4800F0C7FC00220A
:101100000321CB4800F0C2FC00220421C94800F0B2
:10111000BDFC00220521C84800F0B8FC00220A21CD
:10112000C64800F0B3FC00220B21C54800F0AEFC1D
:1011300000220C21C34800F0A9FC00220D21C24866
:1011400000F0A4FC00220E21C04800F09FFC002209
:101150000F21BF4800F09AFC01220A21BD4800F08F
:1011600095FC01220B21BC4800F090FC01220C21CF
:10117000BA4800F08BFC01220D21B94800F086FC32
:1011800001220E21B74800F081FC01220F21B64850
:1011900000F07CFCB54C32220721B548236800F0F2
:1011A000D8FC0028F7D02068401C2060372800D1E8
:1011B0002560B0480078012812D0AF480078012897
:1011C0002BD0AE480078012844D0AD4800780128E3
:1011D0005DD0AC4FAC4DAD4E386800287DD0ADE051
:1011E0000321AB4800F075FC03220F21A94800F051
:1011F0004DFC0421A84800F06CFC04220F21A548F6
:1012000000F044FC0521A24800F063FCBDE8F04179
:1012100005220F219F4800F039BC03219C4800F0B3
:1012200058FC03220F219B4800F030FC04219B480E
:1012300000F04FFC04220F21964800F027FC052106
:10124000934800F046FCBDE8F04105220F2191488B
:1012500000F01CBC03218E4800F03BFC03220F2150
:101260008C4800F013FC04218C4800F032FC04226E
:101270000F21884800F00AFC0521854800F029FC70
:10128000BDE8F04105220F21824800F0FFBB032199
:10129000834800F01EFC04217D4800F01AFC042263
:1012A0000F217C4800F0F2FB7E48007801280AD02C
:1012B0000521774800F00DFCBDE8F04105220F2123
:1012C000744800F0E3BB0521774800F002FCBDE85C
:1012D000F04105220F216F4800E001E000F0D6BB8D
:1012E00000242868032204EB0010214656F8200051
:1012F00000F0CCFB641C102CF3DB002428680422D3
:10130000401C04EB0010214656F8200000F0BEFB04
:10131000641C102CF2DB002428680522801C04EBDE
:101320000010214656F8200000F0B0FB641C102C81
:10133000F2DB03220F215D4800F0A8FB386801288A
:101340002DD1002428680322401E04EB0010214602
:1013500056F8200000F09AFB641C102CF2DB0024ED
:101360002868042204EB0010214656F8200000F003
:101370008DFB641C102CF3DB002428680522401C24
:1013800004EB0010214656F8200000F07FFB641C9F
:10139000102CF2DB04220F21444800F077FB386860
:1013A00002282FD1002428680322801E04EB00109D
:1013B000214656F8200000F069FB641C102CF2DB7B
:1013C000002428680422401E04EB0010214656F831
:1013D000200000F05BFB641C102CF2DB002428686A
:1013E000052204EB0010214656F8200000F04EFBC9
:1013F000641C102CF3DBBDE8F04105220F212B48C3
:1014000000F044BBBDE8F0817047704770477047FB
:10141000704770477047704770477047000007403B
:1014200000000020740000207C0000209C000020B0
:101430008C00002084000020940000206400002024
:101440006C00002024000020AC0000202C000020B4
:101450001C00002044000020340000205400002024
:101460005C0000203C0000204C0000201800002000
:10147000BC0000200500002006000020070000201E
:1014800008000020100000200C0000208401002033
:1014900044030020A400002084020020C402002095
:1014A000040300200400002084030020B400002076
:1014B000FE490A684FF6C0731A400A600A6800F0D5
:1014C0003F031A430A60FA490A684FF6F3731A4059
:1014D0000A600A680C2303EA101010430860704782
:1014E000401EFDD270472DE9F0410446EF4D68687B
:1014F0004FF6C07108406860ED4E70684FF6F371AA
:1015000008407060EB4F012C3ED0A9153846FFF71C
:1015100065FBDFF8A48301214046FFF76DFB4FF424
:1015200080613846FFF75AFB0520FFF7D9FF0221FB
:101530004046FFF753FB0520FFF7D2FF28683168CC
:1015400000F03F00C02202EA011140EA0105052037
:10155000FFF7C6FF02214046FFF74EFB0520FFF7CD
:10156000BFFF01214046FFF747FB4FF4806138463B
:10157000FFF742FB012C0CD04FF480713846FFF787
:101580003BFB2846BDE8F08180213846FFF726FB6B
:10159000BFE780213846FFF72FFBF2E72DE9F04146
:1015A0000446C44F012C49D0B9153846FFF716FB45
:1015B000DFF8048301214046FFF71EFB4FF48061F2
:1015C0003846FFF719FB0520FFF78AFFB74D68681B
:1015D00040F03F006860B64E706840F00C007060EC
:1015E0003F20FFF765FF0520FFF77AFF0221404605
:1015F000FFF7F4FA0520FFF773FF02214046FFF7DB
:10160000FBFA0520FFF76CFF01214046FFF7F4FAD3
:1016100029153846FFF7F0FA68684FF6C0710840A0
:10162000686070684FF6F37108407060012C0AD052
:10163000A9153846BDE8F041FFF7DEBA80213846EB
:10164000FFF7CCFAB4E73846BDE8F0418021FFF758
:10165000D3BA2DE9F0410446964F012C49D0B91573
:101660003846FFF7BBFADFF8508201214046FFF70A
:10167000C3FA4FF480613846FFF7BEFA0520FFF742
:101680002FFF8A4D686840F03F006860884E7068A0
:1016900040F00C0070603E20FFF70AFF0520FFF7C6
:1016A0001FFF02214046FFF799FA0520FFF718FFB8
:1016B00002214046FFF7A0FA0520FFF711FF0121A4
:1016C0004046FFF799FA29153846FFF795FA6868FA
:1016D0004FF6C0710840686070684FF6F3710840BB
:1016E0007060012C0AD0A9153846BDE8F041FFF71B
:1016F00083BA80213846FFF771FAB4E73846BDE86F
:10170000F0418021FFF778BA2DE9F04704460F46F3
:10171000DFF8A081012C4BD04FF480714046FFF7D9
:101720005DFADFF8949101214846FFF765FA4FF41E
:1017300080614046FFF760FA0520FFF7D1FE5B4D60
:10174000686840F03F006860594E706840F00C00D7
:10175000706047F0B800FFF7ABFE0520FFF7C0FE52
:1017600002214846FFF73AFA0520FFF7B9FE0221A9
:101770004846FFF741FA0520FFF7B2FE68684FF6CA
:10178000C0710840686070684FF6F371084070607F
:1017900001214846FFF730FA29154046FFF72CFA99
:1017A000012C0AD0A9154046BDE8F047FFF724BA3E
:1017B00080214046FFF712FAB3E74046BDE8F04704
:1017C0008021FFF719BA2DE9F04704460F46DFF8EC
:1017D000E480012C4BD04FF480714046FFF7FEF9B6
:1017E000DFF8D49001214846FFF706FA4FF48061F4
:1017F0004046FFF701FA0520FFF772FE2B4D68689F
:1018000040F03F0068602A4E706840F00C00706045
:1018100047F04000FFF74CFE0520FFF761FE022174
:101820004846FFF7DBF90520FFF75AFE022148463C
:10183000FFF7E2F90520FFF753FE68684FF6C07125
:101840000840686070684FF6F371084070600121CD
:101850004846FFF7D1F929154046FFF7CDF9012C8D
:101860000AD0A9154046BDE8F047FFF7C5B9802169
:101870004046FFF7B3F9B3E74046BDE8F0478021A3
:10188000FFF7BAB92DE9F04704468946094F012C04
:1018900052D0B9153846FFF7A1F9DFF81C800121B5
:1018A0004046FFF79BF94FF4806107E000800A4053
:1018B00000800E4000000B4000800B403846FFF7D0
:1018C0009BF90520FFF70CFEDF4D686840F03F00F4
:1018D0006860DE4E706840F00C0070604846FFF7AC
:1018E000E7FD0520FFF7FCFD02214046FFF776F9F2
:1018F0000520FFF7F5FD02214046FFF77DF90520A1
:10190000FFF7EEFD68684FF6C071084068607068C8
:101910004FF6F3710840706001214046FFF76CF903
:1019200029153846FFF768F9012C0AD0A915384661
:10193000BDE8F047FFF760B980213846FFF74EF960
:10194000ABE73846BDE8F0478021FFF755B92DE9F0
:10195000F0420446BE4F012C4ED0B9153846FFF771
:101960003DF9DFF8F09201214846FFF737F94FF4CF
:1019700080613846FFF732F90520FFF7B1FDB24E1E
:1019800070684FF6C07108407060B04D68684FF6DF
:10199000F371084068604046FFF78AFD0520FFF7B5
:1019A0009FFD02214846FFF719F90520FFF798FD32
:1019B0003068296800F03F00C02202EA011140EAC5
:1019C00001050520FFF78CFD02214846FFF714F9B9
:1019D0000520FFF785FD01214846FFF70DF9311578
:1019E0003846FFF709F9012C0BD0B1153846FFF73F
:1019F00003F92846BDE8F08280213846FFF7EEF86B
:101A0000AFE780213846FFF7F7F8F2E710B5904CC2
:101A10004FF400712046FFF7EFF8C820FFF760FD94
:101A200061152046FFF7DAF80120FFF75CFD00F0B2
:101A300090040220FFF757FD00F09000002C01D029
:101A40000028F1D110BD70B505462846FFF75CFEB1
:101A500000212846FFF7B7FE00242846FFF743FD84
:101A600010F0010FF9D100212846FFF70BFF641C8D
:101A7000402CF2DB70BD70B505460024E1B228466B
:101A8000FFF7E1FF641C082CF8DB70BD70B506465B
:101A9000C81701EB5070012303EBE00420F00700AE
:101AA000081AC500D1B2E0B2FFF72EFEE9B2E0B2EB
:101AB000FFF789FE0025E0B2FFF715FD10F0010FDA
:101AC000F9D1715DE0B2FFF7DDFE6D1C082DF2DB90
:101AD00070BD2DE9F04105460F46F9B20120FFF730
:101AE00013FE00210120FFF76EFE002600240120D6
:101AF000FFF7F9FC10F0010FF9D155F82600015D50
:101B00000120FFF7BFFE641C082CF0DB761C082EBA
:101B1000ECDBF9B20220FFF7F7FD00210220FFF70E
:101B200052FE0026002406F108070220FFF7DBFC26
:101B300010F0010FF9D155F82700015D0220FFF7E1
:101B4000A1FE641C082CF0DB761C082EEADBBDE845
:101B5000F08170B592B04FF0000CCDF800C0CDF818
:101B600004C06D4602AC0F2B17DA002203EB020C07
:101B7000BCF10F0F02DA44F8225007E002EB030C2D
:101B8000ACF10F0C50F82CC044F822C0521C102AA3
:101B9000ECDB02A8FFF79DFF18E04FF0000C03EB11
:101BA0000C060F3E964202DB44F82C5006E00CEB8C
:101BB00003060F3E50F8266044F82C600CF1010C2F
:101BC000BCF1100FEBDB02A8FFF783FF12B001207E
:101BD00070BD2DE9FF5F8146DDF838A088469B4641
:101BE0000027D8452DDC029E564526DCF01706EB73
:101BF0005070012101EBE00520F00700301AC4000D
:101C000008F0FF01E8B2FFF77FFDE1B2E8B2FFF7AD
:101C1000DAFD0024E8B2FFF766FC10F0010FF9D1FD
:101C2000381919F80010E8B2FFF72CFE641C082CD4
:101C3000F0DB0837761C5645D8DD08F10108D84599
:101C4000D1DD04B0BDE8F09F00800A4000800E4066
:101C500000000B4000800B40064C074D06E0E0689A
:101C600040F0010394E8070098471034AC42F6D3E3
:101C7000FEF72AFAF81C0008181D000870B58D1828
:101C800010F8014B14F0030201D110F8012B2311BD
:101C900006D110F8013B03E010F8016B01F8016B6D
:101CA000521EF9D1ABB110F8012B04F00C048A1AC2
:101CB0000C2C03D0A2EB84129B1C08E010F8014B03
:101CC000A2EB0422F8E712F8014B01F8014B5B1E6E
:101CD000F9D5A942D4D3002070BD02E008C8121F74
:101CE00008C1002AFAD170477047002001E001C105
:101CF000121F002AFBD17047181D000800000020A9
:101D0000AC0400007C1C00083C1F0008AC04002050
:101D10001C040000EA1C00080212000133127A07BA
:101D2000103F226349497F3600003C7E4B497930A1
:101D30000000030371790F070000207454543C78AD
:101D40004000387C54545C1800007C7C18381C7CA3
:101D50007800447C784C041C1800485C545474246B
:101D6000481005043E7F440810107F7F30180C7F18
:101D70007F0063673C180C070310126002727F48F3
:101D800010087C7C20107C7C004010067C10386C95
:101D90004450321010137C4002B199120801110610
:101DA00010051C3E7F1C011006240400208C041228
:101DB0007408127C0812640422440C11A312A41C9F
:101DC00053A4001C1108523C20628420111C526C48
:101DD000142128C38C004C528C40222C34512052A8
:101DE0007444836C040C12947852543461842144FA
:101DF000129464529C1C2160527C48527C84213491
:101E0000435C04240314A400041006D4030020C47B
:101E1000040318E40324011A04430404040235F4FF
:101E2000405214400239CC4021C012FCC0031C0CAB
:101E300004B09634488784040016EC00C7DC03B075
:101E40002588875C00C8011A40A540011640011290
:101E50003C476400C49A4C0021309684E4697005C4
:101E6000321C051EC09A1CB069D8061564441C06B5
:101E70007C7E13137E40033C04417F7FB1031C082A
:101E80001C3E634141632278031C040E1C0E780340
:101E90001C067F7F060C18700321183004633E1C5B
:101EA000282004090F06081C0C09197F6600266FFC
:101EB0004D597332E0031119300B410300003F7F8D
:101EC00060607F3F50200541010303287005081C16
:101ED00077635061283C07307C4A4A7A31B8037CEA
:101EE0000D54542800006038343438600018041C45
:101EF00006787C08100818042C07387C44447C3889
:101F000028043F0404E8033007787C54141C0818A4
:101F1000126C381208411E44D8031C074C5C505008
:101F20007C3C700410053C203C3C48200D403C505B
:0C1F30005020007C0040281414380000F1
:04000005080000C12E
:00000001FF
