:020000040800F2
:10000000582100205D01000861010008630100081B
:1000100000000000000000000000000000000000E0
:100020000000000000000000000000006501000862
:1000300000000000000000006701000869010008DE
:100040006B0100086D010008EF070008710100084E
:10005000730100087501000877010008390C0008D9
:100060007B0100087D0100087F0100088101000874
:100070008301000885010008870100088901000844
:100080008B0100088D0100088F0100089101000814
:1000900093010008950100089701000899010008E4
:1000A0009B01000800000000000000009D01000806
:1000B0009F010008A1010008A3010008A501000894
:1000C00000F002F800F03AF80AA090E8000C824430
:1000D0008344AAF10107DA4501D100F02FF8AFF20D
:1000E000090EBAE80F0013F0010F18BFFB1A43F016
:1000F0000103184794120000B4120000103A24BF04
:1001000078C878C1FAD8520724BF30C830C144BF7C
:1001100004680C60704700000023002400250026BE
:10012000103A28BF78C1FBD8520728BF30C148BF5A
:100130000B6070471FB51FBD10B510BD01F0D0F8A2
:100140001146FFF7F7FF00F0F7F801F0EEF803B4FF
:10015000FFF7F2FF03BC01F0F5F800001548004777
:10016000FEE7FEE7FEE7FEE7FEE7FEE7FEE7FEE767
:10017000FEE7FEE7FEE7FEE7FEE7FEE7FEE7FEE757
:10018000FEE7FEE7FEE7FEE7FEE7FEE7FEE7FEE747
:10019000FEE7FEE7FEE7FEE7FEE7FEE7FEE7FEE737
:1001A000FEE7FEE7FEE7000003480449044A054B6A
:1001B00070470000C10000085801002058210020AD
:1001C0005811002058110020EF48C06940F0040089
:1001D000ED4AD0611046006940F203121043EA4A2A
:1001E00010611046406840F0B100506000BFE64822
:1001F000006800F001000028F9D0E348006940F0F1
:100200000400E14A1061E148006840F00200E04A61
:10021000C2F88003002100E0491CB1F57A7FFBD3CE
:10022000DA48006820F00200D94AC2F8800310467C
:10023000D0F8800340F01C00C2F880031046D0F8CC
:10024000400140F00100C2F8400100BFD148006801
:1002500000F004000028F9D0FF20CE4A1060CC48FE
:10026000D0F8200140F00300CA4A283A106001206B
:10027000C74AC2F890021046D0F8100140F00300BF
:10028000C2F810011046D0F8100240F00100C2F888
:1002900010021046D0F8000140F00100C2F8000141
:1002A0001046D0F8900140F00100C2F890011046CD
:1002B000D0F84C0140F00500C2F84C0102200122A8
:1002C000824043099B0003F1E023C3F8002100BFF3
:1002D0007047AD48C069B0490843AB49C8610802DE
:1002E000886270470120A849886000BFA64800685E
:1002F00000F004000428F9D14FF48170A249C860CD
:1003000040F60430486000BF9F48006800F00200DB
:100310000228F9D19C48C0699F49503108439A4945
:10032000C8610846806A40F0407088620846C0682C
:1003300040F48370C8607047FFF7D4FFFFF7C9FF30
:1003400000F0FEFBFFF740FF94A000F02EFC96A00B
:1003500000F02BFC00BFFEE72DE9F04107460E46FA
:10036000384600F035FD384600F05DFD00BF894895
:10037000006840F001000028F9D0384600F00EFF78
:100380000546002404E0384600F0D8FE3055641CD1
:10039000AC42F8DB384600F0A8FE7E48006840F02A
:1003A00001007B49C1F848012846BDE8F08170B5DD
:1003B00005460C4616468048007818B9002000F023
:1003C000E1FD18E07C48007808280BDB0822214674
:1003D000284600F063FD08347748007808387649ED
:1003E000087008E0744802782146284600F056FD5F
:1003F00000207149087070BD10B504466088000A7D
:10040000012804D0022817D0032848D129E06B48DE
:100410006B490860007868490870E088097888426C
:1004200002DAA07964490870634802786448016878
:100430000020FFF7BCFF36E06248614908602420D5
:100440005D490870E0880978884202DAA0795A4943
:100450000870594802785A4801680020FFF7A7FF42
:1004600021E0A07810B1012802D100E006E005E00B
:100470000020534908605049087000BF00BFE08861
:100480004D490978884202DAA0794B4908704A48F8
:1004900002784B4801680020FFF789FF03E0002045
:1004A00000F0E9FD00BF00BF10BD0EB54648007862
:1004B0008DF80000444840788DF80100424840889B
:1004C000ADF8020040488088ADF804003E48C0887E
:1004D000ADF806009DF8000000F07F0002284ED025
:1004E00003DC38B101284BD1A5E0402849D042288F
:1004F000F9D167E135A000F058FB9DF801000A280A
:1005000040D2DFE800F00510911191152392272DBC
:1005100001208DF8080000208DF80900022202A9B0
:1005200000F0BCFC85E084E0002000F0A4FD80E049
:100530002DA000F03AFBBDF80200C0B240F08000F0
:100540002D490870002000F01DFD72E06846FFF79D
:1005500053FF6EE001222949002000F09FFC68E073
:10056000BDF8020025490870002000F00BFD23486B
:10057000007818B122A000F018FB54E050E08CE0A5
:100580002FE11EE150E00000000002408003014026
:10059000000001404801014080000001776F726B4C
:1005A00020554152540000005553425F496E697412
:1005B0005061737300000000040000205213000813
:1005C0000000002064130008380000205374616E9E
:1005D0006461726420446576696365205265717553
:1005E00065737420000000005365742041646472D8
:1005F0006573730A0D00000006000020070000204C
:100600000A0D202A2A2A2044657669636520436FF3
:100610006E66696775726564202A2A2A200A0D00B1
:10062000DCA000F0C2FA04E000BF002000F023FDCF
:1006300000BF00BFD9E0E0A000F0B7FA9DF80100CC
:1006400020B10A281BD00B2821D10AE001208DF807
:10065000080000208DF80900022202A900F01EFC0B
:1006600019E0BDF8040030B9BDF8020018B9002047
:1006700000F088FC02E0002000F0FDFC0BE0BDF87B
:10068000040018B9002000F07DFC04E000BF002049
:1006900000F0F1FC00BF00BFA7E0CFA000F085FA9A
:1006A0009DF8010098B3012802D0032877D100E01B
:1006B00000BFBDF8020058BB9DF80100012803D11E
:1006C00000208DF8080002E001208DF80800BDF838
:1006D0000400C0B281280DD006DC012809D0022810
:1006E0000ED003281CD114E082280AD0832817D109
:1006F00010E019E0012202A9104600F0CFFB13E040
:1007000012E0012202A9022000F0C8FB0CE014E074
:100710000FE009E0012202A9032000F0BFFB03E083
:10072000002000F0A8FC00BF00BF002000F02AFC61
:1007300002E0002000F09FFC41E0BDF80400C0B2E0
:10074000812811D006DC012809D002280DD0032809
:1007500017D110E082280DD0832812D110E002A911
:100760000120FFF7F9FD10E00FE002A90220FFF7DA
:10077000F3FD0AE009E002A90320FFF7EDFD04E024
:1007800003E0002000F077FC00BF00BF9DF80800E8
:1007900000F0080020B101208DF8080003E00AE015
:1007A00000208DF8080000208DF80900022202A91F
:1007B00000F074FB03E0002000F05DFC00BF00BF10
:1007C00013E000BF9DF80100012802D0022802D1E9
:1007D00000E004E003E0002000F04DFC00BF00BF9B
:1007E00003E0002000F047FC00BF00BF0EBD10B5C5
:1007F00000248048006800F00100002872D07D4885
:10080000006840F001007C49C1F8480101E0601C2B
:10081000C4B2204600F0C2FC08B9032CF7DB204626
:1008200000F001FB204600F0CEFC74490870204621
:1008300000F0EFFC72490870204600F0D7FC7149C7
:100840000870204600F0AAFC6F49087069480068EB
:100850006E4908706848D0F850016D4908706DA065
:1008600000F0A3F96548007800F093F96AA000F061
:100870009CF96348007800F08CF969A000F095F9C4
:100880006048007800F085F967A000F08EF95E48B6
:10089000007800F07EF966A000F087F95B480078E8
:1008A00000F077F964A000F080F95948007800F072
:1008B00070F924B1012C20D0022C4CD134E04D48E9
:1008C0004038006820B101280DD0022813D10EE075
:1008D0005AA000F06AF961490020FFF73DFDFFF7DB
:1008E000E4FD08E04AE05EA000F05FF903E063A0E9
:1008F00000F05BF900BF00BF2EE03E4830380068D2
:1009000020B1012806D002280CD107E063A000F036
:100910004CF907E069A000F048F903E06EA000F090
:1009200044F900BF00BF17E032482038006820B10A
:10093000012806D002280CD107E06FA000F035F99D
:1009400007E075A000F031F903E073A000F02DF985
:1009500000BF00BF00E000BF00BF2648006800F0F5
:100960001000102806D12348006840F010002249EA
:10097000C1F84801002000F02BFA09E01D4800688A
:1009800000F0040020B16BA000F00FF9FFF71CFC91
:1009900010BD00000A0D202A2A204465766963658F
:1009A000204E6F7420436F6E6669677572656420B0
:1009B0002A2A2A200A0D00005374616E6461726451
:1009C00020496E7465726661636520526571756554
:1009D00073740A0D000000005374616E64617264E8
:1009E00020456E64706F696E742052657175657311
:1009F000740A0D0048010140000001400800002079
:100A00000B0000200A0000200C000020090000203C
:100A10000D00002054533D005354533D000000008E
:100A20004354524C3D000000527843483D000000C2
:100A30005349533D0000000053413D0055534220AF
:100A4000455030205365747570207061636B657418
:100A500020696E746572727570740A003800002027
:100A60005553422045503020494E207472616E73B8
:100A700020696E746572727570740A005553422055
:100A8000455030204F5554207472616E7320696E4A
:100A9000746572727570740A00000000555342202C
:100AA000455031205365747570207061636B6574B7
:100AB00020696E746572727570740A005553422015
:100AC00045503120494E207472616E7320696E74F6
:100AD0006572727570740A0055534220455031207A
:100AE0004F5554207472616E7320696E7465727212
:100AF0007570740A000000005553422045503220A2
:100B00005365747570207061636B657420696E74D1
:100B10006572727570740A00555342204550322038
:100B2000494E207472616E7320696E7465727275BD
:100B300070740A005553425F52657365740A000071
:100B400010B56848806840F0A05066498860084643
:100B5000C06840F4C040C8604FF0705088610846DB
:100B6000406840F4C040486034205F49486241F624
:100B7000D53088626020C86240F2013008633020BE
:100B800088634864072000F0A2F8002057490860F5
:100B900010BD00BF5449896901F020010029F9D135
:100BA000C0F30801504A1160704710B50346002495
:100BB0000BE000BF4C48806900F080000028F9D0AD
:100BC000185DFFF7E6FF601CC4B2185D0028F0D185
:100BD0000D20FFF7DEFF0A20FFF7DBFF10BD10B589
:100BE000072001218140424A430942F8231000BFF7
:100BF0003E48006801281BDD3C480068401E3D4916
:100C0000085C3F2814D104223BA13A4800F01AFBAB
:100C100058B93B48007840B93AA0FFF7C6FF012019
:100C20003749087000203149086000202F490860CA
:100C3000072000F04CF810BD2B48006C00F01000AD
:100C4000B8B12948406C40F0100027494864274853
:100C500000687F280ADA08460068C1B223480268A3
:100C60000068401C214B1860224881540020244910
:100C700008701D48006C00F0200028B11A48406C34
:100C800040F0200018494864704700BF1649896940
:100C900001F010010029F9D113490968C8B2704761
:100CA00000BF1149896901F020010029F9D1C0F381
:100CB00008010D4A1160704710B5034602E0204656
:100CC000FFF7EEFF13F8014B002CF8D110BD00F038
:100CD0001F02012191404209920002F1E022C2F874
:100CE0000011704700000C400080034020000020ED
:100CF00080E100E07800002049444E3F0000000001
:100D000024000020446D697472795F4C6970616ED3
:100D10006F76000098B9FE49096801F0040139B9FD
:100D2000FB49096841F00401FA4AC2F8001106E0E3
:100D3000F749096821F00401F64AC2F800110128B8
:100D400016D1F3491031096801F0040141B9F049A5
:100D50001031096841F00401EE4AC2F8101107E0B1
:100D6000EB491031096821F00401EA4AC2F8101178
:100D7000022816D1E6492031096801F0040141B981
:100D8000E3492031096841F00401E24AC2F8201128
:100D900007E0DF492031096821F00401DD4AC2F88B
:100DA00020117047014621B9D94A121D126802F07C
:100DB0004000012904D1D64A1432126802F04000E2
:100DC000022904D1D24A2432126802F0400070474E
:100DD00030B9CF49096841F00201CE4AC2F800118A
:100DE000012807D1CA491031096841F00201C94AF6
:100DF000C2F81011022807D1C5492031096841F015
:100E00000201C44AC2F82011704711B9C04AC03269
:100E10001060012901D1C04A1060022902D1BE4AE6
:100E200080321060704730B9B949096841F001015A
:100E3000B84AC2F80011012807D1B5491031096834
:100E400041F00101B34AC2F81011022807D1B0499C
:100E50002031096841F00101AE4AC2F82011704703
:100E600038B9AD497039096841F00101A94AC2F8A1
:100E7000D011012807D1A8491031096841F00101BA
:100E8000A44AC2F85012022807D1A3499031096838
:100E900041F001019F4AC2F8D01270472DE9F0419C
:100EA00007460D4616463846FFF7DAFF3846FFF785
:100EB000BAFF002445E0295D3846FFF7A6FF601C15
:100EC000C11700EB91618911A0EB8111E9B9384696
:100ED000FFF77EFF00BF8E484830006800200028E2
:100EE000F9D100BF3846FFF75DFF0028FAD08BA08C
:100EF000FFF75BFE86484830006840F001008549F6
:100F0000C1F848013846FFF705FF3846FFF760FF94
:100F100000BF7F484830006800200028F9D100BF9A
:100F20003846FFF73FFF0028FAD07948483000687C
:100F300040F001007749C1F848013846FFF7EAFE62
:100F4000641CB442B7DBBDE8F08130B97049096870
:100F500041F004016F4AC2F80011012807D16C4921
:100F60001031096841F004016A4AC2F810110228E0
:100F700007D167492031096841F00401654AC2F888
:100F80002011704700B503461846FFF769FF184661
:100F9000FFF749FF1846FFF7D8FF1846FFF718FF7D
:100FA00000BF5B484830006800200028F9D100BF2E
:100FB0001846FFF7F7FE0028FAD055484830006879
:100FC00040F001005349C1F848011846FFF7A2FE5E
:100FD0001846FFF728FF00BD68B94D49096801F0C0
:100FE00008014C4AC2F800111146D1F8041101F071
:100FF0002001C2F8041101280ED1454910310968B9
:1010000001F00801434AC2F810111146D1F8141139
:1010100001F02001C2F8141102280ED13C49203100
:10102000096801F008013B4AC2F820111146D1F8C5
:10103000241101F02001C2F82411704730B934495D
:10104000096841F00801334AC2F80011012807D1AC
:101050002F491031096841F008012E4AC2F81011D9
:10106000022807D12A492031096841F00801294A9C
:10107000C2F82011704700B503461846FFF7D3FEAB
:101080001846FFF7DBFF1846FFF7A2FE3BB900BF8B
:101090001F48001D006840F020000028F8D0012BF8
:1010A00007D100BF1A481430006840F02000002823
:1010B000F8D0022B07D100BF15482430006840F05B
:1010C00020000028F8D01846FFF786FF1846FFF7E3
:1010D000C7FE0F484830006840F001000D49C1F8D4
:1010E00048011846FFF716FE00BD38B9084990318F
:1010F000096841F00101074AC2F89011012813D193
:1011000005493039096841F00101024A0AE000004E
:1011100000010140000001404002014041434B7288
:1011200078656400C2F81012022806D142490968A5
:1011300041F00101414AC2F890127047014611B9CD
:101140003F4A1268D0B2012903D13D4A8032126869
:10115000D0B2022903D1384A103A1268D0B270478F
:1011600038B937498039096821F00401334AC2F897
:101170000011012807D132497039096821F00401B2
:101180002E4AC2F81011022807D12D49603909688A
:1011900021F00401294AC2F820117047014619B90B
:1011A00027480C300068C2B2012904D12248843893
:1011B0000068C0B20246022904D11F48001F00681F
:1011C000C0B202467047014619B91D4A783A126802
:1011D000D0B2012903D11A4A683A1268D0B2022962
:1011E00003D1174A583A1268D0B27047014619B96C
:1011F000134A803A1268D0B2012903D1104A703ADA
:101200001268D0B2022903D10D4A603A1268D0B2F6
:101210007047014619B90A4A7C3A1268D0B20129CE
:1012200003D1074A6C3A1268D0B2022903D1044AAA
:101230005C3A1268D0B27047900201400000014051
:101240008001014040EA010370B59B072ED14FF0A9
:101250000136042A2AD308C810C99D1B9D43121FBA
:1012600015EAC61517D0D8B2E1B2401A50EA0561A6
:1012700010D198B2A1B2401A50EA05410AD123F028
:101280007F4024F07F41401A50EA052102D1180E18
:10129000A0EB146070BDA342DBD018BA21BA88421B
:1012A00001D9012070BD4FF0FF3070BD0AB9002098
:1012B00070BD10F8013B11F8014B63B1A3420AD194
:1012C000521E08D010F8013B11F8014B1BB1A3428C
:1012D00001D1521EEDD1181B70BD70477047704789
:1012E000754600F02BF8AE4605006946534620F0DF
:1012F0000700854618B020B5FEF756FFBDE8204030
:101300004FF000064FF000074FF000084FF0000BC1
:1013100021F00701AC46ACE8C009ACE8C009ACE874
:10132000C009ACE8C0098D46704710B50446AFF35C
:1013300000802046BDE81040FEF709BF0048704716
:10134000F800002001491820ABBEFEE7260002008D
:1013500070471201000200000008341278560000A5
:10136000010000010A02240001010080500009046C
:10137000000002FFFFFF0000080501020800000056
:101380000805810208000000A813000800000020E2
:1013900038000000FC000008E013000838000020BE
:1013A00020210000180100080000000000000000DB
:1013B000000000000000446D697472795F4C697030
:1013C000616E6F760D0A00000000000000446D6938
:1013D0007472795F4C6970616E6F760D0A0000005F
:04000005080000C12E
:00000001FF
